{
  "_format": "hh-sol-artifact-1",
  "contractName": "MyERC721",
  "sourceName": "contracts/souvenir.sol",
  "abi": [
    {
      "inputs": [
        {
          "internalType": "string",
          "name": "name",
          "type": "string"
        },
        {
          "internalType": "string",
          "name": "symbol",
          "type": "string"
        }
      ],
      "stateMutability": "nonpayable",
      "type": "constructor"
    },
    {
      "anonymous": false,
      "inputs": [
        {
          "indexed": true,
          "internalType": "address",
          "name": "owner",
          "type": "address"
        },
        {
          "indexed": true,
          "internalType": "address",
          "name": "approved",
          "type": "address"
        },
        {
          "indexed": true,
          "internalType": "uint256",
          "name": "tokenId",
          "type": "uint256"
        }
      ],
      "name": "Approval",
      "type": "event"
    },
    {
      "anonymous": false,
      "inputs": [
        {
          "indexed": true,
          "internalType": "address",
          "name": "owner",
          "type": "address"
        },
        {
          "indexed": true,
          "internalType": "address",
          "name": "operator",
          "type": "address"
        },
        {
          "indexed": false,
          "internalType": "bool",
          "name": "approved",
          "type": "bool"
        }
      ],
      "name": "ApprovalForAll",
      "type": "event"
    },
    {
      "anonymous": false,
      "inputs": [
        {
          "indexed": true,
          "internalType": "address",
          "name": "from",
          "type": "address"
        },
        {
          "indexed": true,
          "internalType": "address",
          "name": "to",
          "type": "address"
        },
        {
          "indexed": true,
          "internalType": "uint256",
          "name": "tokenId",
          "type": "uint256"
        }
      ],
      "name": "Transfer",
      "type": "event"
    },
    {
      "inputs": [
        {
          "internalType": "address",
          "name": "to",
          "type": "address"
        },
        {
          "internalType": "uint256",
          "name": "tokenId",
          "type": "uint256"
        }
      ],
      "name": "approve",
      "outputs": [],
      "stateMutability": "nonpayable",
      "type": "function"
    },
    {
      "inputs": [
        {
          "internalType": "address",
          "name": "player",
          "type": "address"
        },
        {
          "internalType": "string",
          "name": "tokenURI",
          "type": "string"
        }
      ],
      "name": "awardItem",
      "outputs": [
        {
          "internalType": "uint256",
          "name": "",
          "type": "uint256"
        }
      ],
      "stateMutability": "nonpayable",
      "type": "function"
    },
    {
      "inputs": [
        {
          "internalType": "address",
          "name": "owner",
          "type": "address"
        }
      ],
      "name": "balanceOf",
      "outputs": [
        {
          "internalType": "uint256",
          "name": "",
          "type": "uint256"
        }
      ],
      "stateMutability": "view",
      "type": "function"
    },
    {
      "inputs": [
        {
          "internalType": "uint256",
          "name": "tokenId",
          "type": "uint256"
        }
      ],
      "name": "getApproved",
      "outputs": [
        {
          "internalType": "address",
          "name": "",
          "type": "address"
        }
      ],
      "stateMutability": "view",
      "type": "function"
    },
    {
      "inputs": [
        {
          "internalType": "uint256",
          "name": "tokenId",
          "type": "uint256"
        }
      ],
      "name": "getTokenURI",
      "outputs": [
        {
          "internalType": "string",
          "name": "",
          "type": "string"
        }
      ],
      "stateMutability": "view",
      "type": "function"
    },
    {
      "inputs": [
        {
          "internalType": "address",
          "name": "owner",
          "type": "address"
        },
        {
          "internalType": "address",
          "name": "operator",
          "type": "address"
        }
      ],
      "name": "isApprovedForAll",
      "outputs": [
        {
          "internalType": "bool",
          "name": "",
          "type": "bool"
        }
      ],
      "stateMutability": "view",
      "type": "function"
    },
    {
      "inputs": [],
      "name": "name",
      "outputs": [
        {
          "internalType": "string",
          "name": "",
          "type": "string"
        }
      ],
      "stateMutability": "view",
      "type": "function"
    },
    {
      "inputs": [
        {
          "internalType": "uint256",
          "name": "tokenId",
          "type": "uint256"
        }
      ],
      "name": "ownerOf",
      "outputs": [
        {
          "internalType": "address",
          "name": "",
          "type": "address"
        }
      ],
      "stateMutability": "view",
      "type": "function"
    },
    {
      "inputs": [
        {
          "internalType": "address",
          "name": "from",
          "type": "address"
        },
        {
          "internalType": "address",
          "name": "to",
          "type": "address"
        },
        {
          "internalType": "uint256",
          "name": "tokenId",
          "type": "uint256"
        }
      ],
      "name": "safeTransferFrom",
      "outputs": [],
      "stateMutability": "nonpayable",
      "type": "function"
    },
    {
      "inputs": [
        {
          "internalType": "address",
          "name": "from",
          "type": "address"
        },
        {
          "internalType": "address",
          "name": "to",
          "type": "address"
        },
        {
          "internalType": "uint256",
          "name": "tokenId",
          "type": "uint256"
        },
        {
          "internalType": "bytes",
          "name": "data",
          "type": "bytes"
        }
      ],
      "name": "safeTransferFrom",
      "outputs": [],
      "stateMutability": "nonpayable",
      "type": "function"
    },
    {
      "inputs": [
        {
          "internalType": "address",
          "name": "operator",
          "type": "address"
        },
        {
          "internalType": "bool",
          "name": "approved",
          "type": "bool"
        }
      ],
      "name": "setApprovalForAll",
      "outputs": [],
      "stateMutability": "nonpayable",
      "type": "function"
    },
    {
      "inputs": [
        {
          "internalType": "bytes4",
          "name": "interfaceId",
          "type": "bytes4"
        }
      ],
      "name": "supportsInterface",
      "outputs": [
        {
          "internalType": "bool",
          "name": "",
          "type": "bool"
        }
      ],
      "stateMutability": "view",
      "type": "function"
    },
    {
      "inputs": [],
      "name": "symbol",
      "outputs": [
        {
          "internalType": "string",
          "name": "",
          "type": "string"
        }
      ],
      "stateMutability": "view",
      "type": "function"
    },
    {
      "inputs": [
        {
          "internalType": "uint256",
          "name": "tokenId",
          "type": "uint256"
        }
      ],
      "name": "tokenURI",
      "outputs": [
        {
          "internalType": "string",
          "name": "",
          "type": "string"
        }
      ],
      "stateMutability": "view",
      "type": "function"
    },
    {
      "inputs": [
        {
          "internalType": "address",
          "name": "from",
          "type": "address"
        },
        {
          "internalType": "address",
          "name": "to",
          "type": "address"
        },
        {
          "internalType": "uint256",
          "name": "tokenId",
          "type": "uint256"
        }
      ],
      "name": "transferFrom",
      "outputs": [],
      "stateMutability": "nonpayable",
      "type": "function"
    }
  ],
  "bytecode": "0x60806040523480156200001157600080fd5b5060405162002c3138038062002c318339818101604052810190620000379190620002c2565b818181600090805190602001906200005192919062000075565b5080600190805190602001906200006a92919062000075565b5050505050620003ac565b828054620000839062000376565b90600052602060002090601f016020900481019282620000a75760008555620000f3565b82601f10620000c257805160ff1916838001178555620000f3565b82800160010185558215620000f3579182015b82811115620000f2578251825591602001919060010190620000d5565b5b50905062000102919062000106565b5090565b5b808211156200012157600081600090555060010162000107565b5090565b6000604051905090565b600080fd5b600080fd5b600080fd5b600080fd5b6000601f19601f8301169050919050565b7f4e487b7100000000000000000000000000000000000000000000000000000000600052604160045260246000fd5b6200018e8262000143565b810181811067ffffffffffffffff82111715620001b057620001af62000154565b5b80604052505050565b6000620001c562000125565b9050620001d3828262000183565b919050565b600067ffffffffffffffff821115620001f657620001f562000154565b5b620002018262000143565b9050602081019050919050565b60005b838110156200022e57808201518184015260208101905062000211565b838111156200023e576000848401525b50505050565b60006200025b6200025584620001d8565b620001b9565b9050828152602081018484840111156200027a57620002796200013e565b5b620002878482856200020e565b509392505050565b600082601f830112620002a757620002a662000139565b5b8151620002b984826020860162000244565b91505092915050565b60008060408385031215620002dc57620002db6200012f565b5b600083015167ffffffffffffffff811115620002fd57620002fc62000134565b5b6200030b858286016200028f565b925050602083015167ffffffffffffffff8111156200032f576200032e62000134565b5b6200033d858286016200028f565b9150509250929050565b7f4e487b7100000000000000000000000000000000000000000000000000000000600052602260045260246000fd5b600060028204905060018216806200038f57607f821691505b60208210811415620003a657620003a562000347565b5b50919050565b61287580620003bc6000396000f3fe608060405234801561001057600080fd5b50600436106100f55760003560e01c80636352211e11610097578063b88d4fde11610066578063b88d4fde14610296578063c87b56dd146102b2578063cf378343146102e2578063e985e9c514610312576100f5565b80636352211e146101fc57806370a082311461022c57806395d89b411461025c578063a22cb4651461027a576100f5565b8063095ea7b3116100d3578063095ea7b31461017857806323b872dd146101945780633bb3a24d146101b057806342842e0e146101e0576100f5565b806301ffc9a7146100fa57806306fdde031461012a578063081812fc14610148575b600080fd5b610114600480360381019061010f9190611845565b610342565b604051610121919061188d565b60405180910390f35b610132610424565b60405161013f9190611941565b60405180910390f35b610162600480360381019061015d9190611999565b6104b6565b60405161016f9190611a07565b60405180910390f35b610192600480360381019061018d9190611a4e565b6104fc565b005b6101ae60048036038101906101a99190611a8e565b610614565b005b6101ca60048036038101906101c59190611999565b610674565b6040516101d79190611941565b60405180910390f35b6101fa60048036038101906101f59190611a8e565b610719565b005b61021660048036038101906102119190611999565b610739565b6040516102239190611a07565b60405180910390f35b61024660048036038101906102419190611ae1565b6107eb565b6040516102539190611b1d565b60405180910390f35b6102646108a3565b6040516102719190611941565b60405180910390f35b610294600480360381019061028f9190611b64565b610935565b005b6102b060048036038101906102ab9190611cd9565b61094b565b005b6102cc60048036038101906102c79190611999565b6109ad565b6040516102d99190611941565b60405180910390f35b6102fc60048036038101906102f79190611dfd565b610a15565b6040516103099190611b1d565b60405180910390f35b61032c60048036038101906103279190611e59565b610a4d565b604051610339919061188d565b60405180910390f35b60007f80ac58cd000000000000000000000000000000000000000000000000000000007bffffffffffffffffffffffffffffffffffffffffffffffffffffffff1916827bffffffffffffffffffffffffffffffffffffffffffffffffffffffff1916148061040d57507f5b5e139f000000000000000000000000000000000000000000000000000000007bffffffffffffffffffffffffffffffffffffffffffffffffffffffff1916827bffffffffffffffffffffffffffffffffffffffffffffffffffffffff1916145b8061041d575061041c82610ae1565b5b9050919050565b60606000805461043390611ec8565b80601f016020809104026020016040519081016040528092919081815260200182805461045f90611ec8565b80156104ac5780601f10610481576101008083540402835291602001916104ac565b820191906000526020600020905b81548152906001019060200180831161048f57829003601f168201915b5050505050905090565b60006104c182610b4b565b6004600083815260200190815260200160002060009054906101000a900473ffffffffffffffffffffffffffffffffffffffff169050919050565b600061050782610739565b90508073ffffffffffffffffffffffffffffffffffffffff168373ffffffffffffffffffffffffffffffffffffffff161415610578576040517f08c379a000000000000000000000000000000000000000000000000000000000815260040161056f90611f6c565b60405180910390fd5b8073ffffffffffffffffffffffffffffffffffffffff16610597610b96565b73ffffffffffffffffffffffffffffffffffffffff1614806105c657506105c5816105c0610b96565b610a4d565b5b610605576040517f08c379a00000000000000000000000000000000000000000000000000000000081526004016105fc90611ffe565b60405180910390fd5b61060f8383610b9e565b505050565b61062561061f610b96565b82610c57565b610664576040517f08c379a000000000000000000000000000000000000000000000000000000000815260040161065b90612090565b60405180910390fd5b61066f838383610cec565b505050565b606060076000838152602001908152602001600020805461069490611ec8565b80601f01602080910402602001604051908101604052809291908181526020018280546106c090611ec8565b801561070d5780601f106106e25761010080835404028352916020019161070d565b820191906000526020600020905b8154815290600101906020018083116106f057829003601f168201915b50505050509050919050565b6107348383836040518060200160405280600081525061094b565b505050565b6000806002600084815260200190815260200160002060009054906101000a900473ffffffffffffffffffffffffffffffffffffffff169050600073ffffffffffffffffffffffffffffffffffffffff168173ffffffffffffffffffffffffffffffffffffffff1614156107e2576040517f08c379a00000000000000000000000000000000000000000000000000000000081526004016107d9906120fc565b60405180910390fd5b80915050919050565b60008073ffffffffffffffffffffffffffffffffffffffff168273ffffffffffffffffffffffffffffffffffffffff16141561085c576040517f08c379a00000000000000000000000000000000000000000000000000000000081526004016108539061218e565b60405180910390fd5b600360008373ffffffffffffffffffffffffffffffffffffffff1673ffffffffffffffffffffffffffffffffffffffff168152602001908152602001600020549050919050565b6060600180546108b290611ec8565b80601f01602080910402602001604051908101604052809291908181526020018280546108de90611ec8565b801561092b5780601f106109005761010080835404028352916020019161092b565b820191906000526020600020905b81548152906001019060200180831161090e57829003601f168201915b5050505050905090565b610947610940610b96565b8383610f53565b5050565b61095c610956610b96565b83610c57565b61099b576040517f08c379a000000000000000000000000000000000000000000000000000000000815260040161099290612090565b60405180910390fd5b6109a7848484846110c0565b50505050565b60606109b882610b4b565b60006109c261111c565b905060008151116109e25760405180602001604052806000815250610a0d565b806109ec84611133565b6040516020016109fd9291906121ea565b6040516020818303038152906040525b915050919050565b6000610a216006611294565b6000610a2d60066112aa565b9050610a3984826112b8565b610a438184611492565b8091505092915050565b6000600560008473ffffffffffffffffffffffffffffffffffffffff1673ffffffffffffffffffffffffffffffffffffffff16815260200190815260200160002060008373ffffffffffffffffffffffffffffffffffffffff1673ffffffffffffffffffffffffffffffffffffffff16815260200190815260200160002060009054906101000a900460ff16905092915050565b60007f01ffc9a7000000000000000000000000000000000000000000000000000000007bffffffffffffffffffffffffffffffffffffffffffffffffffffffff1916827bffffffffffffffffffffffffffffffffffffffffffffffffffffffff1916149050919050565b610b5481611506565b610b93576040517f08c379a0000000000000000000000000000000000000000000000000000000008152600401610b8a906120fc565b60405180910390fd5b50565b600033905090565b816004600083815260200190815260200160002060006101000a81548173ffffffffffffffffffffffffffffffffffffffff021916908373ffffffffffffffffffffffffffffffffffffffff160217905550808273ffffffffffffffffffffffffffffffffffffffff16610c1183610739565b73ffffffffffffffffffffffffffffffffffffffff167f8c5be1e5ebec7d5bd14f71427d1e84f3dd0314c0f7b2291e5b200ac8c7c3b92560405160405180910390a45050565b600080610c6383610739565b90508073ffffffffffffffffffffffffffffffffffffffff168473ffffffffffffffffffffffffffffffffffffffff161480610ca55750610ca48185610a4d565b5b80610ce357508373ffffffffffffffffffffffffffffffffffffffff16610ccb846104b6565b73ffffffffffffffffffffffffffffffffffffffff16145b91505092915050565b8273ffffffffffffffffffffffffffffffffffffffff16610d0c82610739565b73ffffffffffffffffffffffffffffffffffffffff1614610d62576040517f08c379a0000000000000000000000000000000000000000000000000000000008152600401610d5990612280565b60405180910390fd5b600073ffffffffffffffffffffffffffffffffffffffff168273ffffffffffffffffffffffffffffffffffffffff161415610dd2576040517f08c379a0000000000000000000000000000000000000000000000000000000008152600401610dc990612312565b60405180910390fd5b610ddd838383611572565b610de8600082610b9e565b6001600360008573ffffffffffffffffffffffffffffffffffffffff1673ffffffffffffffffffffffffffffffffffffffff1681526020019081526020016000206000828254610e389190612361565b925050819055506001600360008473ffffffffffffffffffffffffffffffffffffffff1673ffffffffffffffffffffffffffffffffffffffff1681526020019081526020016000206000828254610e8f9190612395565b92505081905550816002600083815260200190815260200160002060006101000a81548173ffffffffffffffffffffffffffffffffffffffff021916908373ffffffffffffffffffffffffffffffffffffffff160217905550808273ffffffffffffffffffffffffffffffffffffffff168473ffffffffffffffffffffffffffffffffffffffff167fddf252ad1be2c89b69c2b068fc378daa952ba7f163c4a11628f55a4df523b3ef60405160405180910390a4610f4e838383611577565b505050565b8173ffffffffffffffffffffffffffffffffffffffff168373ffffffffffffffffffffffffffffffffffffffff161415610fc2576040517f08c379a0000000000000000000000000000000000000000000000000000000008152600401610fb990612437565b60405180910390fd5b80600560008573ffffffffffffffffffffffffffffffffffffffff1673ffffffffffffffffffffffffffffffffffffffff16815260200190815260200160002060008473ffffffffffffffffffffffffffffffffffffffff1673ffffffffffffffffffffffffffffffffffffffff16815260200190815260200160002060006101000a81548160ff0219169083151502179055508173ffffffffffffffffffffffffffffffffffffffff168373ffffffffffffffffffffffffffffffffffffffff167f17307eab39ab6107e8899845ad3d59bd9653f200f220920489ca2b5937696c31836040516110b3919061188d565b60405180910390a3505050565b6110cb848484610cec565b6110d78484848461157c565b611116576040517f08c379a000000000000000000000000000000000000000000000000000000000815260040161110d906124c9565b60405180910390fd5b50505050565b606060405180602001604052806000815250905090565b6060600082141561117b576040518060400160405280600181526020017f3000000000000000000000000000000000000000000000000000000000000000815250905061128f565b600082905060005b600082146111ad578080611196906124e9565b915050600a826111a69190612561565b9150611183565b60008167ffffffffffffffff8111156111c9576111c8611bae565b5b6040519080825280601f01601f1916602001820160405280156111fb5781602001600182028036833780820191505090505b5090505b60008514611288576001826112149190612361565b9150600a856112239190612592565b603061122f9190612395565b60f81b818381518110611245576112446125c3565b5b60200101907effffffffffffffffffffffffffffffffffffffffffffffffffffffffffffff1916908160001a905350600a856112819190612561565b94506111ff565b8093505050505b919050565b6001816000016000828254019250508190555050565b600081600001549050919050565b600073ffffffffffffffffffffffffffffffffffffffff168273ffffffffffffffffffffffffffffffffffffffff161415611328576040517f08c379a000000000000000000000000000000000000000000000000000000000815260040161131f9061263e565b60405180910390fd5b61133181611506565b15611371576040517f08c379a0000000000000000000000000000000000000000000000000000000008152600401611368906126aa565b60405180910390fd5b61137d60008383611572565b6001600360008473ffffffffffffffffffffffffffffffffffffffff1673ffffffffffffffffffffffffffffffffffffffff16815260200190815260200160002060008282546113cd9190612395565b92505081905550816002600083815260200190815260200160002060006101000a81548173ffffffffffffffffffffffffffffffffffffffff021916908373ffffffffffffffffffffffffffffffffffffffff160217905550808273ffffffffffffffffffffffffffffffffffffffff16600073ffffffffffffffffffffffffffffffffffffffff167fddf252ad1be2c89b69c2b068fc378daa952ba7f163c4a11628f55a4df523b3ef60405160405180910390a461148e60008383611577565b5050565b61149b82611506565b6114da576040517f08c379a00000000000000000000000000000000000000000000000000000000081526004016114d19061273c565b60405180910390fd5b80600760008481526020019081526020016000209080519060200190611501929190611736565b505050565b60008073ffffffffffffffffffffffffffffffffffffffff166002600084815260200190815260200160002060009054906101000a900473ffffffffffffffffffffffffffffffffffffffff1673ffffffffffffffffffffffffffffffffffffffff1614159050919050565b505050565b505050565b600061159d8473ffffffffffffffffffffffffffffffffffffffff16611713565b15611706578373ffffffffffffffffffffffffffffffffffffffff1663150b7a026115c6610b96565b8786866040518563ffffffff1660e01b81526004016115e894939291906127b1565b602060405180830381600087803b15801561160257600080fd5b505af192505050801561163357506040513d601f19601f820116820180604052508101906116309190612812565b60015b6116b6573d8060008114611663576040519150601f19603f3d011682016040523d82523d6000602084013e611668565b606091505b506000815114156116ae576040517f08c379a00000000000000000000000000000000000000000000000000000000081526004016116a5906124c9565b60405180910390fd5b805181602001fd5b63150b7a0260e01b7bffffffffffffffffffffffffffffffffffffffffffffffffffffffff1916817bffffffffffffffffffffffffffffffffffffffffffffffffffffffff19161491505061170b565b600190505b949350505050565b6000808273ffffffffffffffffffffffffffffffffffffffff163b119050919050565b82805461174290611ec8565b90600052602060002090601f01602090048101928261176457600085556117ab565b82601f1061177d57805160ff19168380011785556117ab565b828001600101855582156117ab579182015b828111156117aa57825182559160200191906001019061178f565b5b5090506117b891906117bc565b5090565b5b808211156117d55760008160009055506001016117bd565b5090565b6000604051905090565b600080fd5b600080fd5b60007fffffffff0000000000000000000000000000000000000000000000000000000082169050919050565b611822816117ed565b811461182d57600080fd5b50565b60008135905061183f81611819565b92915050565b60006020828403121561185b5761185a6117e3565b5b600061186984828501611830565b91505092915050565b60008115159050919050565b61188781611872565b82525050565b60006020820190506118a2600083018461187e565b92915050565b600081519050919050565b600082825260208201905092915050565b60005b838110156118e25780820151818401526020810190506118c7565b838111156118f1576000848401525b50505050565b6000601f19601f8301169050919050565b6000611913826118a8565b61191d81856118b3565b935061192d8185602086016118c4565b611936816118f7565b840191505092915050565b6000602082019050818103600083015261195b8184611908565b905092915050565b6000819050919050565b61197681611963565b811461198157600080fd5b50565b6000813590506119938161196d565b92915050565b6000602082840312156119af576119ae6117e3565b5b60006119bd84828501611984565b91505092915050565b600073ffffffffffffffffffffffffffffffffffffffff82169050919050565b60006119f1826119c6565b9050919050565b611a01816119e6565b82525050565b6000602082019050611a1c60008301846119f8565b92915050565b611a2b816119e6565b8114611a3657600080fd5b50565b600081359050611a4881611a22565b92915050565b60008060408385031215611a6557611a646117e3565b5b6000611a7385828601611a39565b9250506020611a8485828601611984565b9150509250929050565b600080600060608486031215611aa757611aa66117e3565b5b6000611ab586828701611a39565b9350506020611ac686828701611a39565b9250506040611ad786828701611984565b9150509250925092565b600060208284031215611af757611af66117e3565b5b6000611b0584828501611a39565b91505092915050565b611b1781611963565b82525050565b6000602082019050611b326000830184611b0e565b92915050565b611b4181611872565b8114611b4c57600080fd5b50565b600081359050611b5e81611b38565b92915050565b60008060408385031215611b7b57611b7a6117e3565b5b6000611b8985828601611a39565b9250506020611b9a85828601611b4f565b9150509250929050565b600080fd5b600080fd5b7f4e487b7100000000000000000000000000000000000000000000000000000000600052604160045260246000fd5b611be6826118f7565b810181811067ffffffffffffffff82111715611c0557611c04611bae565b5b80604052505050565b6000611c186117d9565b9050611c248282611bdd565b919050565b600067ffffffffffffffff821115611c4457611c43611bae565b5b611c4d826118f7565b9050602081019050919050565b82818337600083830152505050565b6000611c7c611c7784611c29565b611c0e565b905082815260208101848484011115611c9857611c97611ba9565b5b611ca3848285611c5a565b509392505050565b600082601f830112611cc057611cbf611ba4565b5b8135611cd0848260208601611c69565b91505092915050565b60008060008060808587031215611cf357611cf26117e3565b5b6000611d0187828801611a39565b9450506020611d1287828801611a39565b9350506040611d2387828801611984565b925050606085013567ffffffffffffffff811115611d4457611d436117e8565b5b611d5087828801611cab565b91505092959194509250565b600067ffffffffffffffff821115611d7757611d76611bae565b5b611d80826118f7565b9050602081019050919050565b6000611da0611d9b84611d5c565b611c0e565b905082815260208101848484011115611dbc57611dbb611ba9565b5b611dc7848285611c5a565b509392505050565b600082601f830112611de457611de3611ba4565b5b8135611df4848260208601611d8d565b91505092915050565b60008060408385031215611e1457611e136117e3565b5b6000611e2285828601611a39565b925050602083013567ffffffffffffffff811115611e4357611e426117e8565b5b611e4f85828601611dcf565b9150509250929050565b60008060408385031215611e7057611e6f6117e3565b5b6000611e7e85828601611a39565b9250506020611e8f85828601611a39565b9150509250929050565b7f4e487b7100000000000000000000000000000000000000000000000000000000600052602260045260246000fd5b60006002820490506001821680611ee057607f821691505b60208210811415611ef457611ef3611e99565b5b50919050565b7f4552433732313a20617070726f76616c20746f2063757272656e74206f776e6560008201527f7200000000000000000000000000000000000000000000000000000000000000602082015250565b6000611f566021836118b3565b9150611f6182611efa565b604082019050919050565b60006020820190508181036000830152611f8581611f49565b9050919050565b7f4552433732313a20617070726f76652063616c6c6572206973206e6f7420746f60008201527f6b656e206f776e6572206e6f7220617070726f76656420666f7220616c6c0000602082015250565b6000611fe8603e836118b3565b9150611ff382611f8c565b604082019050919050565b6000602082019050818103600083015261201781611fdb565b9050919050565b7f4552433732313a2063616c6c6572206973206e6f7420746f6b656e206f776e6560008201527f72206e6f7220617070726f766564000000000000000000000000000000000000602082015250565b600061207a602e836118b3565b91506120858261201e565b604082019050919050565b600060208201905081810360008301526120a98161206d565b9050919050565b7f4552433732313a20696e76616c696420746f6b656e2049440000000000000000600082015250565b60006120e66018836118b3565b91506120f1826120b0565b602082019050919050565b60006020820190508181036000830152612115816120d9565b9050919050565b7f4552433732313a2061646472657373207a65726f206973206e6f74206120766160008201527f6c6964206f776e65720000000000000000000000000000000000000000000000602082015250565b60006121786029836118b3565b91506121838261211c565b604082019050919050565b600060208201905081810360008301526121a78161216b565b9050919050565b600081905092915050565b60006121c4826118a8565b6121ce81856121ae565b93506121de8185602086016118c4565b80840191505092915050565b60006121f682856121b9565b915061220282846121b9565b91508190509392505050565b7f4552433732313a207472616e736665722066726f6d20696e636f72726563742060008201527f6f776e6572000000000000000000000000000000000000000000000000000000602082015250565b600061226a6025836118b3565b91506122758261220e565b604082019050919050565b600060208201905081810360008301526122998161225d565b9050919050565b7f4552433732313a207472616e7366657220746f20746865207a65726f2061646460008201527f7265737300000000000000000000000000000000000000000000000000000000602082015250565b60006122fc6024836118b3565b9150612307826122a0565b604082019050919050565b6000602082019050818103600083015261232b816122ef565b9050919050565b7f4e487b7100000000000000000000000000000000000000000000000000000000600052601160045260246000fd5b600061236c82611963565b915061237783611963565b92508282101561238a57612389612332565b5b828203905092915050565b60006123a082611963565b91506123ab83611963565b9250827fffffffffffffffffffffffffffffffffffffffffffffffffffffffffffffffff038211156123e0576123df612332565b5b828201905092915050565b7f4552433732313a20617070726f766520746f2063616c6c657200000000000000600082015250565b60006124216019836118b3565b915061242c826123eb565b602082019050919050565b6000602082019050818103600083015261245081612414565b9050919050565b7f4552433732313a207472616e7366657220746f206e6f6e20455243373231526560008201527f63656976657220696d706c656d656e7465720000000000000000000000000000602082015250565b60006124b36032836118b3565b91506124be82612457565b604082019050919050565b600060208201905081810360008301526124e2816124a6565b9050919050565b60006124f482611963565b91507fffffffffffffffffffffffffffffffffffffffffffffffffffffffffffffffff82141561252757612526612332565b5b600182019050919050565b7f4e487b7100000000000000000000000000000000000000000000000000000000600052601260045260246000fd5b600061256c82611963565b915061257783611963565b92508261258757612586612532565b5b828204905092915050565b600061259d82611963565b91506125a883611963565b9250826125b8576125b7612532565b5b828206905092915050565b7f4e487b7100000000000000000000000000000000000000000000000000000000600052603260045260246000fd5b7f4552433732313a206d696e7420746f20746865207a65726f2061646472657373600082015250565b60006126286020836118b3565b9150612633826125f2565b602082019050919050565b600060208201905081810360008301526126578161261b565b9050919050565b7f4552433732313a20746f6b656e20616c7265616479206d696e74656400000000600082015250565b6000612694601c836118b3565b915061269f8261265e565b602082019050919050565b600060208201905081810360008301526126c381612687565b9050919050565b7f4552433732314d657461646174613a2055524920736574206f66206e6f6e657860008201527f697374656e7420746f6b656e0000000000000000000000000000000000000000602082015250565b6000612726602c836118b3565b9150612731826126ca565b604082019050919050565b6000602082019050818103600083015261275581612719565b9050919050565b600081519050919050565b600082825260208201905092915050565b60006127838261275c565b61278d8185612767565b935061279d8185602086016118c4565b6127a6816118f7565b840191505092915050565b60006080820190506127c660008301876119f8565b6127d360208301866119f8565b6127e06040830185611b0e565b81810360608301526127f28184612778565b905095945050505050565b60008151905061280c81611819565b92915050565b600060208284031215612828576128276117e3565b5b6000612836848285016127fd565b9150509291505056fea26469706673582212202b84c374279726b53e47bb895f5aef3bfc1df6ef84ea7c631d77f48db6ebb8b364736f6c63430008090033",
  "linkReferences": {},
  "deployedLinkReferences": {}
}