{
  "_format": "hh-sol-artifact-1",
  "contractName": "StudentSocietyDAO",
  "sourceName": "contracts/StudentSocietyDAO.sol",
  "abi": [
    {
      "inputs": [],
      "stateMutability": "nonpayable",
      "type": "constructor"
    },
    {
      "anonymous": false,
      "inputs": [
        {
          "indexed": false,
          "internalType": "uint32",
          "name": "proposalIndex",
          "type": "uint32"
        }
      ],
      "name": "ProposalApproved",
      "type": "event"
    },
    {
      "anonymous": false,
      "inputs": [
        {
          "indexed": false,
          "internalType": "uint32",
          "name": "proposalIndex",
          "type": "uint32"
        }
      ],
      "name": "ProposalInitiated",
      "type": "event"
    },
    {
      "anonymous": false,
      "inputs": [
        {
          "indexed": false,
          "internalType": "uint32",
          "name": "proposalIndex",
          "type": "uint32"
        }
      ],
      "name": "ProposalNotApproved",
      "type": "event"
    },
    {
      "anonymous": false,
      "inputs": [
        {
          "indexed": false,
          "internalType": "address",
          "name": "voter",
          "type": "address"
        },
        {
          "indexed": false,
          "internalType": "uint32",
          "name": "proposalIndex",
          "type": "uint32"
        },
        {
          "indexed": false,
          "internalType": "bool",
          "name": "choice",
          "type": "bool"
        }
      ],
      "name": "ProposalVoted",
      "type": "event"
    },
    {
      "anonymous": false,
      "inputs": [
        {
          "indexed": false,
          "internalType": "address",
          "name": "player",
          "type": "address"
        },
        {
          "indexed": false,
          "internalType": "uint256",
          "name": "id",
          "type": "uint256"
        }
      ],
      "name": "haveSouvenir",
      "type": "event"
    },
    {
      "inputs": [],
      "name": "INIT_TOKEN",
      "outputs": [
        {
          "internalType": "uint256",
          "name": "",
          "type": "uint256"
        }
      ],
      "stateMutability": "view",
      "type": "function"
    },
    {
      "inputs": [],
      "name": "PROPOSAL_REWARD",
      "outputs": [
        {
          "internalType": "uint256",
          "name": "",
          "type": "uint256"
        }
      ],
      "stateMutability": "view",
      "type": "function"
    },
    {
      "inputs": [],
      "name": "PROPOSAL_TOKEN",
      "outputs": [
        {
          "internalType": "uint256",
          "name": "",
          "type": "uint256"
        }
      ],
      "stateMutability": "view",
      "type": "function"
    },
    {
      "inputs": [],
      "name": "VOTE_TOKEN",
      "outputs": [
        {
          "internalType": "uint256",
          "name": "",
          "type": "uint256"
        }
      ],
      "stateMutability": "view",
      "type": "function"
    },
    {
      "inputs": [],
      "name": "checkProposals",
      "outputs": [],
      "stateMutability": "nonpayable",
      "type": "function"
    },
    {
      "inputs": [
        {
          "internalType": "uint256",
          "name": "startTime",
          "type": "uint256"
        },
        {
          "internalType": "uint256",
          "name": "duration",
          "type": "uint256"
        },
        {
          "internalType": "string",
          "name": "name",
          "type": "string"
        }
      ],
      "name": "createProposal",
      "outputs": [
        {
          "internalType": "string",
          "name": "",
          "type": "string"
        }
      ],
      "stateMutability": "nonpayable",
      "type": "function"
    },
    {
      "inputs": [],
      "name": "getFreeToken",
      "outputs": [],
      "stateMutability": "nonpayable",
      "type": "function"
    },
    {
      "inputs": [
        {
          "internalType": "address",
          "name": "account",
          "type": "address"
        },
        {
          "internalType": "uint32",
          "name": "index",
          "type": "uint32"
        }
      ],
      "name": "getIsVoted",
      "outputs": [
        {
          "internalType": "bool",
          "name": "",
          "type": "bool"
        }
      ],
      "stateMutability": "view",
      "type": "function"
    },
    {
      "inputs": [
        {
          "internalType": "address",
          "name": "account",
          "type": "address"
        }
      ],
      "name": "getMySouvenir",
      "outputs": [
        {
          "internalType": "string",
          "name": "",
          "type": "string"
        }
      ],
      "stateMutability": "view",
      "type": "function"
    },
    {
      "inputs": [],
      "name": "idx",
      "outputs": [
        {
          "internalType": "uint32",
          "name": "",
          "type": "uint32"
        }
      ],
      "stateMutability": "view",
      "type": "function"
    },
    {
      "inputs": [
        {
          "internalType": "address",
          "name": "",
          "type": "address"
        }
      ],
      "name": "isInited",
      "outputs": [
        {
          "internalType": "bool",
          "name": "",
          "type": "bool"
        }
      ],
      "stateMutability": "view",
      "type": "function"
    },
    {
      "inputs": [
        {
          "internalType": "uint256",
          "name": "",
          "type": "uint256"
        }
      ],
      "name": "members",
      "outputs": [
        {
          "internalType": "address",
          "name": "",
          "type": "address"
        }
      ],
      "stateMutability": "view",
      "type": "function"
    },
    {
      "inputs": [
        {
          "internalType": "uint32",
          "name": "",
          "type": "uint32"
        }
      ],
      "name": "proposals",
      "outputs": [
        {
          "internalType": "uint32",
          "name": "index",
          "type": "uint32"
        },
        {
          "internalType": "address",
          "name": "proposer",
          "type": "address"
        },
        {
          "internalType": "uint256",
          "name": "startTime",
          "type": "uint256"
        },
        {
          "internalType": "uint256",
          "name": "duration",
          "type": "uint256"
        },
        {
          "internalType": "string",
          "name": "name",
          "type": "string"
        },
        {
          "internalType": "int32",
          "name": "isDone",
          "type": "int32"
        }
      ],
      "stateMutability": "view",
      "type": "function"
    },
    {
      "inputs": [],
      "name": "souvenir",
      "outputs": [
        {
          "internalType": "contract MyERC721",
          "name": "",
          "type": "address"
        }
      ],
      "stateMutability": "view",
      "type": "function"
    },
    {
      "inputs": [],
      "name": "studentERC20",
      "outputs": [
        {
          "internalType": "contract MyERC20",
          "name": "",
          "type": "address"
        }
      ],
      "stateMutability": "view",
      "type": "function"
    },
    {
      "inputs": [
        {
          "internalType": "uint32",
          "name": "index",
          "type": "uint32"
        },
        {
          "internalType": "bool",
          "name": "choice",
          "type": "bool"
        }
      ],
      "name": "vote",
      "outputs": [
        {
          "internalType": "string",
          "name": "",
          "type": "string"
        }
      ],
      "stateMutability": "nonpayable",
      "type": "function"
    }
  ],
  "bytecode": "0x60806040523480156200001157600080fd5b50604051620000209062000106565b6200002b90620001d3565b604051809103906000f08015801562000048573d6000803e3d6000fd5b50600760006101000a81548173ffffffffffffffffffffffffffffffffffffffff021916908373ffffffffffffffffffffffffffffffffffffffff160217905550604051620000979062000114565b620000a290620002aa565b604051809103906000f080158015620000bf573d6000803e3d6000fd5b50600860006101000a81548173ffffffffffffffffffffffffffffffffffffffff021916908373ffffffffffffffffffffffffffffffffffffffff160217905550620002e1565b6119588062002bb683390190565b612d61806200450e83390190565b600082825260208201905092915050565b7f4b6974616b756275436f696e0000000000000000000000000000000000000000600082015250565b60006200016b600c8362000122565b9150620001788262000133565b602082019050919050565b7f4b54430000000000000000000000000000000000000000000000000000000000600082015250565b6000620001bb60038362000122565b9150620001c88262000183565b602082019050919050565b60006040820190508181036000830152620001ee816200015c565b905081810360208301526200020381620001ac565b9050919050565b7f536f7576656e6972000000000000000000000000000000000000000000000000600082015250565b60006200024260088362000122565b91506200024f826200020a565b602082019050919050565b7f5356520000000000000000000000000000000000000000000000000000000000600082015250565b60006200029260038362000122565b91506200029f826200025a565b602082019050919050565b60006040820190508181036000830152620002c58162000233565b90508181036020830152620002da8162000283565b9050919050565b6128c580620002f16000396000f3fe608060405234801561001057600080fd5b50600436106101005760003560e01c8063795dbede116100975780639a954af9116100665780639a954af9146102de578063c72fca99146102e8578063ccb18ad714610306578063e8aaf9881461031057610100565b8063795dbede146102545780638e1283f414610272578063911536681461029057806394928873146102c057610100565b806346230d04116100d357806346230d04146101b85780635daf08ca146101d65780636c3fbb2d1461020657806377cfd5511461022457610100565b80630f23795f146101055780631e4ea779146101355780632a4910ab146101535780634588a2b714610188575b600080fd5b61011f600480360381019061011a9190611e06565b610340565b60405161012c9190611e4e565b60405180910390f35b61013d610360565b60405161014a9190611e82565b60405180910390f35b61016d60048036038101906101689190611ed9565b610365565b60405161017f96959493929190611fd9565b60405180910390f35b6101a2600480360381019061019d9190611e06565b610466565b6040516101af9190612041565b60405180910390f35b6101c061054f565b6040516101cd91906120c2565b60405180910390f35b6101f060048036038101906101eb9190612109565b610575565b6040516101fd9190612136565b60405180910390f35b61020e6105b4565b60405161021b9190612172565b60405180910390f35b61023e600480360381019061023991906121b9565b6105da565b60405161024b9190612041565b60405180910390f35b61025c610b7b565b60405161026991906121f9565b60405180910390f35b61027a610b91565b6040516102879190611e82565b60405180910390f35b6102aa60048036038101906102a59190612214565b610b97565b6040516102b79190611e4e565b60405180910390f35b6102c8610c0b565b6040516102d59190611e82565b60405180910390f35b6102e6610c10565b005b6102f0610ee9565b6040516102fd9190611e82565b60405180910390f35b61030e610eef565b005b61032a60048036038101906103259190612389565b6116e2565b6040516103379190612041565b60405180910390f35b600d6020528060005260406000206000915054906101000a900460ff1681565b606481565b60096020528060005260406000206000915090508060000160009054906101000a900463ffffffff16908060000160049054906101000a900473ffffffffffffffffffffffffffffffffffffffff16908060010154908060020154908060030180546103d090612427565b80601f01602080910402602001604051908101604052809291908181526020018280546103fc90612427565b80156104495780601f1061041e57610100808354040283529160200191610449565b820191906000526020600020905b81548152906001019060200180831161042c57829003601f168201915b5050505050908060040160009054906101000a900460030b905086565b6060600860009054906101000a900473ffffffffffffffffffffffffffffffffffffffff1673ffffffffffffffffffffffffffffffffffffffff16633bb3a24d600e60008573ffffffffffffffffffffffffffffffffffffffff1673ffffffffffffffffffffffffffffffffffffffff168152602001908152602001600020546040518263ffffffff1660e01b81526004016105029190611e82565b600060405180830381865afa15801561051f573d6000803e3d6000fd5b505050506040513d6000823e3d601f19601f8201168201806040525081019061054891906124c9565b9050919050565b600860009054906101000a900473ffffffffffffffffffffffffffffffffffffffff1681565b6006818154811061058557600080fd5b906000526020600020016000915054906101000a900473ffffffffffffffffffffffffffffffffffffffff1681565b600760009054906101000a900473ffffffffffffffffffffffffffffffffffffffff1681565b6060600960008463ffffffff1663ffffffff168152602001908152602001600020600080820160009054906101000a900463ffffffff168160000160006101000a81548163ffffffff021916908363ffffffff1602179055506000820160049054906101000a900473ffffffffffffffffffffffffffffffffffffffff168160000160046101000a81548173ffffffffffffffffffffffffffffffffffffffff021916908373ffffffffffffffffffffffffffffffffffffffff160217905550600182015481600101556002820154816002015560038201816003019080546106c290612427565b6106cd929190611c64565b506004820160009054906101000a900460030b8160040160006101000a81548163ffffffff021916908360030b63ffffffff1602179055509050506000600101544210158015610731575060006002015460006001015461072e9190612541565b42105b610770576040517f08c379a0000000000000000000000000000000000000000000000000000000008152600401610767906125e3565b60405180910390fd5b6064600760009054906101000a900473ffffffffffffffffffffffffffffffffffffffff1673ffffffffffffffffffffffffffffffffffffffff166370a08231336040518263ffffffff1660e01b81526004016107cd9190612136565b602060405180830381865afa1580156107ea573d6000803e3d6000fd5b505050506040513d601f19601f8201168201806040525081019061080e9190612618565b101561084f576040517f08c379a000000000000000000000000000000000000000000000000000000000815260040161084690612691565b60405180910390fd5b600f60003373ffffffffffffffffffffffffffffffffffffffff1673ffffffffffffffffffffffffffffffffffffffff16815260200190815260200160002060008463ffffffff1663ffffffff16815260200190815260200160002060009054906101000a900460ff16156108f9576040517f08c379a00000000000000000000000000000000000000000000000000000000081526004016108f0906126fd565b60405180910390fd5b600760009054906101000a900473ffffffffffffffffffffffffffffffffffffffff1673ffffffffffffffffffffffffffffffffffffffff166323b872dd333060646040518463ffffffff1660e01b81526004016109599392919061271d565b6020604051808303816000875af1158015610978573d6000803e3d6000fd5b505050506040513d601f19601f8201168201806040525081019061099c9190612769565b508115610a1a57600a60008060000160009054906101000a900463ffffffff1663ffffffff1663ffffffff168152602001908152602001600020600081819054906101000a900463ffffffff16809291906109f690612796565b91906101000a81548163ffffffff021916908363ffffffff16021790555050610a8d565b600b60008060000160009054906101000a900463ffffffff1663ffffffff1663ffffffff168152602001908152602001600020600081819054906101000a900463ffffffff1680929190610a6d90612796565b91906101000a81548163ffffffff021916908363ffffffff160217905550505b7fe140f0e707f65852d56a84a9201e334bbf7036488596c31643ef709b2fa9d123338484604051610ac0939291906127c3565b60405180910390a16001600f60003373ffffffffffffffffffffffffffffffffffffffff1673ffffffffffffffffffffffffffffffffffffffff16815260200190815260200160002060008563ffffffff1663ffffffff16815260200190815260200160002060006101000a81548160ff0219169083151502179055506040518060400160405280600c81526020017f566f746520737563636573730000000000000000000000000000000000000000815250905092915050565b600560009054906101000a900463ffffffff1681565b6103e881565b6000600f60008473ffffffffffffffffffffffffffffffffffffffff1673ffffffffffffffffffffffffffffffffffffffff16815260200190815260200160002060008363ffffffff1663ffffffff16815260200190815260200160002060009054906101000a900460ff16905092915050565b60fa81565b600d60003373ffffffffffffffffffffffffffffffffffffffff1673ffffffffffffffffffffffffffffffffffffffff16815260200190815260200160002060009054906101000a900460ff1615610c9d576040517f08c379a0000000000000000000000000000000000000000000000000000000008152600401610c9490612846565b60405180910390fd5b6006339080600181540180825580915050600190039060005260206000200160009091909190916101000a81548173ffffffffffffffffffffffffffffffffffffffff021916908373ffffffffffffffffffffffffffffffffffffffff1602179055506000600c60003373ffffffffffffffffffffffffffffffffffffffff1673ffffffffffffffffffffffffffffffffffffffff16815260200190815260200160002060006101000a81548163ffffffff021916908363ffffffff1602179055506001600d60003373ffffffffffffffffffffffffffffffffffffffff1673ffffffffffffffffffffffffffffffffffffffff16815260200190815260200160002060006101000a81548160ff021916908315150217905550600760009054906101000a900473ffffffffffffffffffffffffffffffffffffffff1673ffffffffffffffffffffffffffffffffffffffff1663a9059cbb336103e86040518363ffffffff1660e01b8152600401610e16929190612866565b6020604051808303816000875af1158015610e35573d6000803e3d6000fd5b505050506040513d601f19601f82011682018060405250810190610e599190612769565b50600760009054906101000a900473ffffffffffffffffffffffffffffffffffffffff1673ffffffffffffffffffffffffffffffffffffffff16633e5beab9336040518263ffffffff1660e01b8152600401610eb59190612136565b600060405180830381600087803b158015610ecf57600080fd5b505af1158015610ee3573d6000803e3d6000fd5b50505050565b6103e881565b60005b600560009054906101000a900463ffffffff1663ffffffff168163ffffffff1610156116df57600960008263ffffffff1663ffffffff168152602001908152602001600020600080820160009054906101000a900463ffffffff168160000160006101000a81548163ffffffff021916908363ffffffff1602179055506000820160049054906101000a900473ffffffffffffffffffffffffffffffffffffffff168160000160046101000a81548173ffffffffffffffffffffffffffffffffffffffff021916908373ffffffffffffffffffffffffffffffffffffffff16021790555060018201548160010155600282015481600201556003820181600301908054610ffe90612427565b611009929190611c64565b506004820160009054906101000a900460030b8160040160006101000a81548163ffffffff021916908360030b63ffffffff1602179055509050507fffffffffffffffffffffffffffffffffffffffffffffffffffffffffffffffff600060040160009054906101000a900460030b60030b14801561109c57506000600201546000600101546110999190612541565b42115b1561159f57600b60008060000160009054906101000a900463ffffffff1663ffffffff1663ffffffff16815260200190815260200160002060009054906101000a900463ffffffff1663ffffffff16600a60008060000160009054906101000a900463ffffffff1663ffffffff1663ffffffff16815260200190815260200160002060009054906101000a900463ffffffff1663ffffffff16111561152b577f3730b57be3d0c31bcae4515485ee72ca588ec3203604704146cfbf14459fd8cb6000800160009054906101000a900463ffffffff1660405161117e91906121f9565b60405180910390a1600c60008060000160049054906101000a900473ffffffffffffffffffffffffffffffffffffffff1673ffffffffffffffffffffffffffffffffffffffff1673ffffffffffffffffffffffffffffffffffffffff168152602001908152602001600020600081819054906101000a900463ffffffff168092919061120990612796565b91906101000a81548163ffffffff021916908363ffffffff16021790555050600760009054906101000a900473ffffffffffffffffffffffffffffffffffffffff1673ffffffffffffffffffffffffffffffffffffffff1663a9059cbb6000800160049054906101000a900473ffffffffffffffffffffffffffffffffffffffff166103e86040518363ffffffff1660e01b81526004016112ab929190612866565b6020604051808303816000875af11580156112ca573d6000803e3d6000fd5b505050506040513d601f19601f820116820180604052508101906112ee9190612769565b506001600060040160006101000a81548163ffffffff021916908360030b63ffffffff1602179055506003600c60008060000160049054906101000a900473ffffffffffffffffffffffffffffffffffffffff1673ffffffffffffffffffffffffffffffffffffffff1673ffffffffffffffffffffffffffffffffffffffff16815260200190815260200160002060009054906101000a900463ffffffff1663ffffffff161415611526576000600860009054906101000a900473ffffffffffffffffffffffffffffffffffffffff1673ffffffffffffffffffffffffffffffffffffffff1663f2fb21206000800160049054906101000a900473ffffffffffffffffffffffffffffffffffffffff166040518263ffffffff1660e01b815260040161141a9190612136565b6020604051808303816000875af1158015611439573d6000803e3d6000fd5b505050506040513d601f19601f8201168201806040525081019061145d9190612618565b905080600e60008060000160049054906101000a900473ffffffffffffffffffffffffffffffffffffffff1673ffffffffffffffffffffffffffffffffffffffff1673ffffffffffffffffffffffffffffffffffffffff168152602001908152602001600020819055507f770a404e1677c793a59e7453a75de2c6c006c57a9df650f3455f12ab2701422f6000800160049054906101000a900473ffffffffffffffffffffffffffffffffffffffff168260405161151c929190612866565b60405180910390a1505b61159e565b7faed7a8e09679f55d17f88f6fc603db93bc9f0e275dc7dae1417a942392b651af6000800160009054906101000a900463ffffffff1660405161156e91906121f9565b60405180910390a160008060040160006101000a81548163ffffffff021916908360030b63ffffffff1602179055505b5b6000600960008363ffffffff1663ffffffff1681526020019081526020016000206000820160009054906101000a900463ffffffff168160000160006101000a81548163ffffffff021916908363ffffffff1602179055506000820160049054906101000a900473ffffffffffffffffffffffffffffffffffffffff168160000160046101000a81548173ffffffffffffffffffffffffffffffffffffffff021916908373ffffffffffffffffffffffffffffffffffffffff1602179055506001820154816001015560028201548160020155600382018160030190805461168690612427565b611691929190611c64565b506004820160009054906101000a900460030b8160040160006101000a81548163ffffffff021916908360030b63ffffffff16021790555090505080806116d790612796565b915050610ef2565b50565b606060fa600760009054906101000a900473ffffffffffffffffffffffffffffffffffffffff1673ffffffffffffffffffffffffffffffffffffffff166370a08231336040518263ffffffff1660e01b81526004016117419190612136565b602060405180830381865afa15801561175e573d6000803e3d6000fd5b505050506040513d601f19601f820116820180604052508101906117829190612618565b10156117c3576040517f08c379a00000000000000000000000000000000000000000000000000000000081526004016117ba90612691565b60405180910390fd5b6040518060c00160405280600560009054906101000a900463ffffffff1663ffffffff1681526020013373ffffffffffffffffffffffffffffffffffffffff1681526020018581526020018481526020018381526020017fffffffffffffffffffffffffffffffffffffffffffffffffffffffffffffffff60030b8152506000808201518160000160006101000a81548163ffffffff021916908363ffffffff16021790555060208201518160000160046101000a81548173ffffffffffffffffffffffffffffffffffffffff021916908373ffffffffffffffffffffffffffffffffffffffff160217905550604082015181600101556060820151816002015560808201518160030190805190602001906118e0929190611cf1565b5060a08201518160040160006101000a81548163ffffffff021916908360030b63ffffffff160217905550905050600760009054906101000a900473ffffffffffffffffffffffffffffffffffffffff1673ffffffffffffffffffffffffffffffffffffffff166323b872dd333060fa6040518463ffffffff1660e01b815260040161196e9392919061271d565b6020604051808303816000875af115801561198d573d6000803e3d6000fd5b505050506040513d601f19601f820116820180604052508101906119b19190612769565b506000600960008060000160009054906101000a900463ffffffff1663ffffffff1663ffffffff1681526020019081526020016000206000820160009054906101000a900463ffffffff168160000160006101000a81548163ffffffff021916908363ffffffff1602179055506000820160049054906101000a900473ffffffffffffffffffffffffffffffffffffffff168160000160046101000a81548173ffffffffffffffffffffffffffffffffffffffff021916908373ffffffffffffffffffffffffffffffffffffffff16021790555060018201548160010155600282015481600201556003820181600301908054611aad90612427565b611ab8929190611c64565b506004820160009054906101000a900460030b8160040160006101000a81548163ffffffff021916908360030b63ffffffff1602179055509050506000600a60008060000160009054906101000a900463ffffffff1663ffffffff1663ffffffff16815260200190815260200160002060006101000a81548163ffffffff021916908363ffffffff1602179055506000600b60008060000160009054906101000a900463ffffffff1663ffffffff1663ffffffff16815260200190815260200160002060006101000a81548163ffffffff021916908363ffffffff1602179055506005600081819054906101000a900463ffffffff1680929190611bbb90612796565b91906101000a81548163ffffffff021916908363ffffffff160217905550507f944f5ef0a446d54c41ea39dac07de1fd2150ec3346cbff6c627d1ffba048676c6000800160009054906101000a900463ffffffff16604051611c1d91906121f9565b60405180910390a16040518060400160405280601781526020017f4372656174652070726f706f73616c207375636365737300000000000000000081525090509392505050565b828054611c7090612427565b90600052602060002090601f016020900481019282611c925760008555611ce0565b82601f10611ca35780548555611ce0565b82800160010185558215611ce057600052602060002091601f016020900482015b82811115611cdf578254825591600101919060010190611cc4565b5b509050611ced9190611d77565b5090565b828054611cfd90612427565b90600052602060002090601f016020900481019282611d1f5760008555611d66565b82601f10611d3857805160ff1916838001178555611d66565b82800160010185558215611d66579182015b82811115611d65578251825591602001919060010190611d4a565b5b509050611d739190611d77565b5090565b5b80821115611d90576000816000905550600101611d78565b5090565b6000604051905090565b600080fd5b600080fd5b600073ffffffffffffffffffffffffffffffffffffffff82169050919050565b6000611dd382611da8565b9050919050565b611de381611dc8565b8114611dee57600080fd5b50565b600081359050611e0081611dda565b92915050565b600060208284031215611e1c57611e1b611d9e565b5b6000611e2a84828501611df1565b91505092915050565b60008115159050919050565b611e4881611e33565b82525050565b6000602082019050611e636000830184611e3f565b92915050565b6000819050919050565b611e7c81611e69565b82525050565b6000602082019050611e976000830184611e73565b92915050565b600063ffffffff82169050919050565b611eb681611e9d565b8114611ec157600080fd5b50565b600081359050611ed381611ead565b92915050565b600060208284031215611eef57611eee611d9e565b5b6000611efd84828501611ec4565b91505092915050565b611f0f81611e9d565b82525050565b611f1e81611dc8565b82525050565b600081519050919050565b600082825260208201905092915050565b60005b83811015611f5e578082015181840152602081019050611f43565b83811115611f6d576000848401525b50505050565b6000601f19601f8301169050919050565b6000611f8f82611f24565b611f998185611f2f565b9350611fa9818560208601611f40565b611fb281611f73565b840191505092915050565b60008160030b9050919050565b611fd381611fbd565b82525050565b600060c082019050611fee6000830189611f06565b611ffb6020830188611f15565b6120086040830187611e73565b6120156060830186611e73565b81810360808301526120278185611f84565b905061203660a0830184611fca565b979650505050505050565b6000602082019050818103600083015261205b8184611f84565b905092915050565b6000819050919050565b600061208861208361207e84611da8565b612063565b611da8565b9050919050565b600061209a8261206d565b9050919050565b60006120ac8261208f565b9050919050565b6120bc816120a1565b82525050565b60006020820190506120d760008301846120b3565b92915050565b6120e681611e69565b81146120f157600080fd5b50565b600081359050612103816120dd565b92915050565b60006020828403121561211f5761211e611d9e565b5b600061212d848285016120f4565b91505092915050565b600060208201905061214b6000830184611f15565b92915050565b600061215c8261208f565b9050919050565b61216c81612151565b82525050565b60006020820190506121876000830184612163565b92915050565b61219681611e33565b81146121a157600080fd5b50565b6000813590506121b38161218d565b92915050565b600080604083850312156121d0576121cf611d9e565b5b60006121de85828601611ec4565b92505060206121ef858286016121a4565b9150509250929050565b600060208201905061220e6000830184611f06565b92915050565b6000806040838503121561222b5761222a611d9e565b5b600061223985828601611df1565b925050602061224a85828601611ec4565b9150509250929050565b600080fd5b600080fd5b7f4e487b7100000000000000000000000000000000000000000000000000000000600052604160045260246000fd5b61229682611f73565b810181811067ffffffffffffffff821117156122b5576122b461225e565b5b80604052505050565b60006122c8611d94565b90506122d4828261228d565b919050565b600067ffffffffffffffff8211156122f4576122f361225e565b5b6122fd82611f73565b9050602081019050919050565b82818337600083830152505050565b600061232c612327846122d9565b6122be565b90508281526020810184848401111561234857612347612259565b5b61235384828561230a565b509392505050565b600082601f8301126123705761236f612254565b5b8135612380848260208601612319565b91505092915050565b6000806000606084860312156123a2576123a1611d9e565b5b60006123b0868287016120f4565b93505060206123c1868287016120f4565b925050604084013567ffffffffffffffff8111156123e2576123e1611da3565b5b6123ee8682870161235b565b9150509250925092565b7f4e487b7100000000000000000000000000000000000000000000000000000000600052602260045260246000fd5b6000600282049050600182168061243f57607f821691505b60208210811415612453576124526123f8565b5b50919050565b600061246c612467846122d9565b6122be565b90508281526020810184848401111561248857612487612259565b5b612493848285611f40565b509392505050565b600082601f8301126124b0576124af612254565b5b81516124c0848260208601612459565b91505092915050565b6000602082840312156124df576124de611d9e565b5b600082015167ffffffffffffffff8111156124fd576124fc611da3565b5b6125098482850161249b565b91505092915050565b7f4e487b7100000000000000000000000000000000000000000000000000000000600052601160045260246000fd5b600061254c82611e69565b915061255783611e69565b9250827fffffffffffffffffffffffffffffffffffffffffffffffffffffffffffffffff0382111561258c5761258b612512565b5b828201905092915050565b7f50726f706f73616c20686173206265656e20636c6f7365640000000000000000600082015250565b60006125cd601883611f2f565b91506125d882612597565b602082019050919050565b600060208201905081810360008301526125fc816125c0565b9050919050565b600081519050612612816120dd565b92915050565b60006020828403121561262e5761262d611d9e565b5b600061263c84828501612603565b91505092915050565b7f546f6b656e2062616c616e636520697320696e73756666696369656e74000000600082015250565b600061267b601d83611f2f565b915061268682612645565b602082019050919050565b600060208201905081810360008301526126aa8161266e565b9050919050565b7f486173206265656e20766f746564000000000000000000000000000000000000600082015250565b60006126e7600e83611f2f565b91506126f2826126b1565b602082019050919050565b60006020820190508181036000830152612716816126da565b9050919050565b60006060820190506127326000830186611f15565b61273f6020830185611f15565b61274c6040830184611e73565b949350505050565b6000815190506127638161218d565b92915050565b60006020828403121561277f5761277e611d9e565b5b600061278d84828501612754565b91505092915050565b60006127a182611e9d565b915063ffffffff8214156127b8576127b7612512565b5b600182019050919050565b60006060820190506127d86000830186611f15565b6127e56020830185611f06565b6127f26040830184611e3f565b949350505050565b7f596f75206861766520616c726561647920676f742074686520746f6b656e0000600082015250565b6000612830601e83611f2f565b915061283b826127fa565b602082019050919050565b6000602082019050818103600083015261285f81612823565b9050919050565b600060408201905061287b6000830185611f15565b6128886020830184611e73565b939250505056fea26469706673582212204f93f00edebdacb89e2260f6251bb73a1a135d6b1703d48122634849caf0ea5a64736f6c634300080c003360806040523480156200001157600080fd5b50604051620019583803806200195883398181016040528101906200003791906200045a565b81818160039080519060200190620000519291906200020d565b5080600490805190602001906200006a9291906200020d565b5050506200008233620f42406200008a60201b60201c565b50506200068b565b600073ffffffffffffffffffffffffffffffffffffffff168273ffffffffffffffffffffffffffffffffffffffff161415620000fd576040517f08c379a0000000000000000000000000000000000000000000000000000000008152600401620000f49062000540565b60405180910390fd5b62000111600083836200020360201b60201c565b80600260008282546200012591906200059b565b92505081905550806000808473ffffffffffffffffffffffffffffffffffffffff1673ffffffffffffffffffffffffffffffffffffffff16815260200190815260200160002060008282546200017c91906200059b565b925050819055508173ffffffffffffffffffffffffffffffffffffffff16600073ffffffffffffffffffffffffffffffffffffffff167fddf252ad1be2c89b69c2b068fc378daa952ba7f163c4a11628f55a4df523b3ef83604051620001e3919062000609565b60405180910390a3620001ff600083836200020860201b60201c565b5050565b505050565b505050565b8280546200021b9062000655565b90600052602060002090601f0160209004810192826200023f57600085556200028b565b82601f106200025a57805160ff19168380011785556200028b565b828001600101855582156200028b579182015b828111156200028a5782518255916020019190600101906200026d565b5b5090506200029a91906200029e565b5090565b5b80821115620002b95760008160009055506001016200029f565b5090565b6000604051905090565b600080fd5b600080fd5b600080fd5b600080fd5b6000601f19601f8301169050919050565b7f4e487b7100000000000000000000000000000000000000000000000000000000600052604160045260246000fd5b6200032682620002db565b810181811067ffffffffffffffff82111715620003485762000347620002ec565b5b80604052505050565b60006200035d620002bd565b90506200036b82826200031b565b919050565b600067ffffffffffffffff8211156200038e576200038d620002ec565b5b6200039982620002db565b9050602081019050919050565b60005b83811015620003c6578082015181840152602081019050620003a9565b83811115620003d6576000848401525b50505050565b6000620003f3620003ed8462000370565b62000351565b905082815260208101848484011115620004125762000411620002d6565b5b6200041f848285620003a6565b509392505050565b600082601f8301126200043f576200043e620002d1565b5b815162000451848260208601620003dc565b91505092915050565b60008060408385031215620004745762000473620002c7565b5b600083015167ffffffffffffffff811115620004955762000494620002cc565b5b620004a38582860162000427565b925050602083015167ffffffffffffffff811115620004c757620004c6620002cc565b5b620004d58582860162000427565b9150509250929050565b600082825260208201905092915050565b7f45524332303a206d696e7420746f20746865207a65726f206164647265737300600082015250565b600062000528601f83620004df565b91506200053582620004f0565b602082019050919050565b600060208201905081810360008301526200055b8162000519565b9050919050565b6000819050919050565b7f4e487b7100000000000000000000000000000000000000000000000000000000600052601160045260246000fd5b6000620005a88262000562565b9150620005b58362000562565b9250827fffffffffffffffffffffffffffffffffffffffffffffffffffffffffffffffff03821115620005ed57620005ec6200056c565b5b828201905092915050565b620006038162000562565b82525050565b6000602082019050620006206000830184620005f8565b92915050565b7f4e487b7100000000000000000000000000000000000000000000000000000000600052602260045260246000fd5b600060028204905060018216806200066e57607f821691505b6020821081141562000685576200068462000626565b5b50919050565b6112bd806200069b6000396000f3fe608060405234801561001057600080fd5b50600436106100b45760003560e01c80633e5beab9116100715780633e5beab9146101a357806370a08231146101bf57806395d89b41146101ef578063a457c2d71461020d578063a9059cbb1461023d578063dd62ed3e1461026d576100b4565b806306fdde03146100b9578063095ea7b3146100d757806318160ddd1461010757806323b872dd14610125578063313ce567146101555780633950935114610173575b600080fd5b6100c161029d565b6040516100ce9190610b77565b60405180910390f35b6100f160048036038101906100ec9190610c32565b61032f565b6040516100fe9190610c8d565b60405180910390f35b61010f610352565b60405161011c9190610cb7565b60405180910390f35b61013f600480360381019061013a9190610cd2565b61035c565b60405161014c9190610c8d565b60405180910390f35b61015d61038b565b60405161016a9190610d41565b60405180910390f35b61018d60048036038101906101889190610c32565b610394565b60405161019a9190610c8d565b60405180910390f35b6101bd60048036038101906101b89190610d5c565b6103cb565b005b6101d960048036038101906101d49190610d5c565b6103f9565b6040516101e69190610cb7565b60405180910390f35b6101f7610441565b6040516102049190610b77565b60405180910390f35b61022760048036038101906102229190610c32565b6104d3565b6040516102349190610c8d565b60405180910390f35b61025760048036038101906102529190610c32565b61054a565b6040516102649190610c8d565b60405180910390f35b61028760048036038101906102829190610d89565b61056d565b6040516102949190610cb7565b60405180910390f35b6060600380546102ac90610df8565b80601f01602080910402602001604051908101604052809291908181526020018280546102d890610df8565b80156103255780601f106102fa57610100808354040283529160200191610325565b820191906000526020600020905b81548152906001019060200180831161030857829003601f168201915b5050505050905090565b60008061033a6105f4565b90506103478185856105fc565b600191505092915050565b6000600254905090565b6000806103676105f4565b90506103748582856107c7565b61037f858585610853565b60019150509392505050565b60006012905090565b60008061039f6105f4565b90506103c08185856103b1858961056d565b6103bb9190610e59565b6105fc565b600191505092915050565b6103f681337fffffffffffffffffffffffffffffffffffffffffffffffffffffffffffffffff6105fc565b50565b60008060008373ffffffffffffffffffffffffffffffffffffffff1673ffffffffffffffffffffffffffffffffffffffff168152602001908152602001600020549050919050565b60606004805461045090610df8565b80601f016020809104026020016040519081016040528092919081815260200182805461047c90610df8565b80156104c95780601f1061049e576101008083540402835291602001916104c9565b820191906000526020600020905b8154815290600101906020018083116104ac57829003601f168201915b5050505050905090565b6000806104de6105f4565b905060006104ec828661056d565b905083811015610531576040517f08c379a000000000000000000000000000000000000000000000000000000000815260040161052890610f21565b60405180910390fd5b61053e82868684036105fc565b60019250505092915050565b6000806105556105f4565b9050610562818585610853565b600191505092915050565b6000600160008473ffffffffffffffffffffffffffffffffffffffff1673ffffffffffffffffffffffffffffffffffffffff16815260200190815260200160002060008373ffffffffffffffffffffffffffffffffffffffff1673ffffffffffffffffffffffffffffffffffffffff16815260200190815260200160002054905092915050565b600033905090565b600073ffffffffffffffffffffffffffffffffffffffff168373ffffffffffffffffffffffffffffffffffffffff16141561066c576040517f08c379a000000000000000000000000000000000000000000000000000000000815260040161066390610fb3565b60405180910390fd5b600073ffffffffffffffffffffffffffffffffffffffff168273ffffffffffffffffffffffffffffffffffffffff1614156106dc576040517f08c379a00000000000000000000000000000000000000000000000000000000081526004016106d390611045565b60405180910390fd5b80600160008573ffffffffffffffffffffffffffffffffffffffff1673ffffffffffffffffffffffffffffffffffffffff16815260200190815260200160002060008473ffffffffffffffffffffffffffffffffffffffff1673ffffffffffffffffffffffffffffffffffffffff168152602001908152602001600020819055508173ffffffffffffffffffffffffffffffffffffffff168373ffffffffffffffffffffffffffffffffffffffff167f8c5be1e5ebec7d5bd14f71427d1e84f3dd0314c0f7b2291e5b200ac8c7c3b925836040516107ba9190610cb7565b60405180910390a3505050565b60006107d3848461056d565b90507fffffffffffffffffffffffffffffffffffffffffffffffffffffffffffffffff811461084d578181101561083f576040517f08c379a0000000000000000000000000000000000000000000000000000000008152600401610836906110b1565b60405180910390fd5b61084c84848484036105fc565b5b50505050565b600073ffffffffffffffffffffffffffffffffffffffff168373ffffffffffffffffffffffffffffffffffffffff1614156108c3576040517f08c379a00000000000000000000000000000000000000000000000000000000081526004016108ba90611143565b60405180910390fd5b600073ffffffffffffffffffffffffffffffffffffffff168273ffffffffffffffffffffffffffffffffffffffff161415610933576040517f08c379a000000000000000000000000000000000000000000000000000000000815260040161092a906111d5565b60405180910390fd5b61093e838383610ad4565b60008060008573ffffffffffffffffffffffffffffffffffffffff1673ffffffffffffffffffffffffffffffffffffffff168152602001908152602001600020549050818110156109c4576040517f08c379a00000000000000000000000000000000000000000000000000000000081526004016109bb90611267565b60405180910390fd5b8181036000808673ffffffffffffffffffffffffffffffffffffffff1673ffffffffffffffffffffffffffffffffffffffff16815260200190815260200160002081905550816000808573ffffffffffffffffffffffffffffffffffffffff1673ffffffffffffffffffffffffffffffffffffffff1681526020019081526020016000206000828254610a579190610e59565b925050819055508273ffffffffffffffffffffffffffffffffffffffff168473ffffffffffffffffffffffffffffffffffffffff167fddf252ad1be2c89b69c2b068fc378daa952ba7f163c4a11628f55a4df523b3ef84604051610abb9190610cb7565b60405180910390a3610ace848484610ad9565b50505050565b505050565b505050565b600081519050919050565b600082825260208201905092915050565b60005b83811015610b18578082015181840152602081019050610afd565b83811115610b27576000848401525b50505050565b6000601f19601f8301169050919050565b6000610b4982610ade565b610b538185610ae9565b9350610b63818560208601610afa565b610b6c81610b2d565b840191505092915050565b60006020820190508181036000830152610b918184610b3e565b905092915050565b600080fd5b600073ffffffffffffffffffffffffffffffffffffffff82169050919050565b6000610bc982610b9e565b9050919050565b610bd981610bbe565b8114610be457600080fd5b50565b600081359050610bf681610bd0565b92915050565b6000819050919050565b610c0f81610bfc565b8114610c1a57600080fd5b50565b600081359050610c2c81610c06565b92915050565b60008060408385031215610c4957610c48610b99565b5b6000610c5785828601610be7565b9250506020610c6885828601610c1d565b9150509250929050565b60008115159050919050565b610c8781610c72565b82525050565b6000602082019050610ca26000830184610c7e565b92915050565b610cb181610bfc565b82525050565b6000602082019050610ccc6000830184610ca8565b92915050565b600080600060608486031215610ceb57610cea610b99565b5b6000610cf986828701610be7565b9350506020610d0a86828701610be7565b9250506040610d1b86828701610c1d565b9150509250925092565b600060ff82169050919050565b610d3b81610d25565b82525050565b6000602082019050610d566000830184610d32565b92915050565b600060208284031215610d7257610d71610b99565b5b6000610d8084828501610be7565b91505092915050565b60008060408385031215610da057610d9f610b99565b5b6000610dae85828601610be7565b9250506020610dbf85828601610be7565b9150509250929050565b7f4e487b7100000000000000000000000000000000000000000000000000000000600052602260045260246000fd5b60006002820490506001821680610e1057607f821691505b60208210811415610e2457610e23610dc9565b5b50919050565b7f4e487b7100000000000000000000000000000000000000000000000000000000600052601160045260246000fd5b6000610e6482610bfc565b9150610e6f83610bfc565b9250827fffffffffffffffffffffffffffffffffffffffffffffffffffffffffffffffff03821115610ea457610ea3610e2a565b5b828201905092915050565b7f45524332303a2064656372656173656420616c6c6f77616e63652062656c6f7760008201527f207a65726f000000000000000000000000000000000000000000000000000000602082015250565b6000610f0b602583610ae9565b9150610f1682610eaf565b604082019050919050565b60006020820190508181036000830152610f3a81610efe565b9050919050565b7f45524332303a20617070726f76652066726f6d20746865207a65726f2061646460008201527f7265737300000000000000000000000000000000000000000000000000000000602082015250565b6000610f9d602483610ae9565b9150610fa882610f41565b604082019050919050565b60006020820190508181036000830152610fcc81610f90565b9050919050565b7f45524332303a20617070726f766520746f20746865207a65726f20616464726560008201527f7373000000000000000000000000000000000000000000000000000000000000602082015250565b600061102f602283610ae9565b915061103a82610fd3565b604082019050919050565b6000602082019050818103600083015261105e81611022565b9050919050565b7f45524332303a20696e73756666696369656e7420616c6c6f77616e6365000000600082015250565b600061109b601d83610ae9565b91506110a682611065565b602082019050919050565b600060208201905081810360008301526110ca8161108e565b9050919050565b7f45524332303a207472616e736665722066726f6d20746865207a65726f20616460008201527f6472657373000000000000000000000000000000000000000000000000000000602082015250565b600061112d602583610ae9565b9150611138826110d1565b604082019050919050565b6000602082019050818103600083015261115c81611120565b9050919050565b7f45524332303a207472616e7366657220746f20746865207a65726f206164647260008201527f6573730000000000000000000000000000000000000000000000000000000000602082015250565b60006111bf602383610ae9565b91506111ca82611163565b604082019050919050565b600060208201905081810360008301526111ee816111b2565b9050919050565b7f45524332303a207472616e7366657220616d6f756e742065786365656473206260008201527f616c616e63650000000000000000000000000000000000000000000000000000602082015250565b6000611251602683610ae9565b915061125c826111f5565b604082019050919050565b6000602082019050818103600083015261128081611244565b905091905056fea264697066735822122097a33f753dfd1c10c6781865826a2a32fe590c8f70220a4b7db8747e59cda57164736f6c634300080c003360806040526040518060600160405280602d815260200162002d34602d91396008908051906020019062000035929190620000f5565b506040518060400160405280600781526020017f2d79656c6c6f77000000000000000000000000000000000000000000000000008152506009908051906020019062000083929190620000f5565b503480156200009157600080fd5b5060405162002d6138038062002d618339818101604052810190620000b7919062000342565b81818160009080519060200190620000d1929190620000f5565b508060019080519060200190620000ea929190620000f5565b50505050506200042c565b8280546200010390620003f6565b90600052602060002090601f01602090048101928262000127576000855562000173565b82601f106200014257805160ff191683800117855562000173565b8280016001018555821562000173579182015b828111156200017257825182559160200191906001019062000155565b5b50905062000182919062000186565b5090565b5b80821115620001a157600081600090555060010162000187565b5090565b6000604051905090565b600080fd5b600080fd5b600080fd5b600080fd5b6000601f19601f8301169050919050565b7f4e487b7100000000000000000000000000000000000000000000000000000000600052604160045260246000fd5b6200020e82620001c3565b810181811067ffffffffffffffff8211171562000230576200022f620001d4565b5b80604052505050565b600062000245620001a5565b905062000253828262000203565b919050565b600067ffffffffffffffff821115620002765762000275620001d4565b5b6200028182620001c3565b9050602081019050919050565b60005b83811015620002ae57808201518184015260208101905062000291565b83811115620002be576000848401525b50505050565b6000620002db620002d58462000258565b62000239565b905082815260208101848484011115620002fa57620002f9620001be565b5b620003078482856200028e565b509392505050565b600082601f830112620003275762000326620001b9565b5b815162000339848260208601620002c4565b91505092915050565b600080604083850312156200035c576200035b620001af565b5b600083015167ffffffffffffffff8111156200037d576200037c620001b4565b5b6200038b858286016200030f565b925050602083015167ffffffffffffffff811115620003af57620003ae620001b4565b5b620003bd858286016200030f565b9150509250929050565b7f4e487b7100000000000000000000000000000000000000000000000000000000600052602260045260246000fd5b600060028204905060018216806200040f57607f821691505b60208210811415620004265762000425620003c7565b5b50919050565b6128f8806200043c6000396000f3fe608060405234801561001057600080fd5b50600436106100f55760003560e01c80636352211e11610097578063b88d4fde11610066578063b88d4fde14610296578063c87b56dd146102b2578063e985e9c5146102e2578063f2fb212014610312576100f5565b80636352211e146101fc57806370a082311461022c57806395d89b411461025c578063a22cb4651461027a576100f5565b8063095ea7b3116100d3578063095ea7b31461017857806323b872dd146101945780633bb3a24d146101b057806342842e0e146101e0576100f5565b806301ffc9a7146100fa57806306fdde031461012a578063081812fc14610148575b600080fd5b610114600480360381019061010f91906118c0565b610342565b6040516101219190611908565b60405180910390f35b610132610424565b60405161013f91906119bc565b60405180910390f35b610162600480360381019061015d9190611a14565b6104b6565b60405161016f9190611a82565b60405180910390f35b610192600480360381019061018d9190611ac9565b6104fc565b005b6101ae60048036038101906101a99190611b09565b610614565b005b6101ca60048036038101906101c59190611a14565b610674565b6040516101d791906119bc565b60405180910390f35b6101fa60048036038101906101f59190611b09565b610719565b005b61021660048036038101906102119190611a14565b610739565b6040516102239190611a82565b60405180910390f35b61024660048036038101906102419190611b5c565b6107eb565b6040516102539190611b98565b60405180910390f35b6102646108a3565b60405161027191906119bc565b60405180910390f35b610294600480360381019061028f9190611bdf565b610935565b005b6102b060048036038101906102ab9190611d54565b61094b565b005b6102cc60048036038101906102c79190611a14565b6109ad565b6040516102d991906119bc565b60405180910390f35b6102fc60048036038101906102f79190611dd7565b610a15565b6040516103099190611908565b60405180910390f35b61032c60048036038101906103279190611b5c565b610aa9565b6040516103399190611b98565b60405180910390f35b60007f80ac58cd000000000000000000000000000000000000000000000000000000007bffffffffffffffffffffffffffffffffffffffffffffffffffffffff1916827bffffffffffffffffffffffffffffffffffffffffffffffffffffffff1916148061040d57507f5b5e139f000000000000000000000000000000000000000000000000000000007bffffffffffffffffffffffffffffffffffffffffffffffffffffffff1916827bffffffffffffffffffffffffffffffffffffffffffffffffffffffff1916145b8061041d575061041c82610b6b565b5b9050919050565b60606000805461043390611e46565b80601f016020809104026020016040519081016040528092919081815260200182805461045f90611e46565b80156104ac5780601f10610481576101008083540402835291602001916104ac565b820191906000526020600020905b81548152906001019060200180831161048f57829003601f168201915b5050505050905090565b60006104c182610bd5565b6004600083815260200190815260200160002060009054906101000a900473ffffffffffffffffffffffffffffffffffffffff169050919050565b600061050782610739565b90508073ffffffffffffffffffffffffffffffffffffffff168373ffffffffffffffffffffffffffffffffffffffff161415610578576040517f08c379a000000000000000000000000000000000000000000000000000000000815260040161056f90611eea565b60405180910390fd5b8073ffffffffffffffffffffffffffffffffffffffff16610597610c20565b73ffffffffffffffffffffffffffffffffffffffff1614806105c657506105c5816105c0610c20565b610a15565b5b610605576040517f08c379a00000000000000000000000000000000000000000000000000000000081526004016105fc90611f7c565b60405180910390fd5b61060f8383610c28565b505050565b61062561061f610c20565b82610ce1565b610664576040517f08c379a000000000000000000000000000000000000000000000000000000000815260040161065b9061200e565b60405180910390fd5b61066f838383610d76565b505050565b606060076000838152602001908152602001600020805461069490611e46565b80601f01602080910402602001604051908101604052809291908181526020018280546106c090611e46565b801561070d5780601f106106e25761010080835404028352916020019161070d565b820191906000526020600020905b8154815290600101906020018083116106f057829003601f168201915b50505050509050919050565b6107348383836040518060200160405280600081525061094b565b505050565b6000806002600084815260200190815260200160002060009054906101000a900473ffffffffffffffffffffffffffffffffffffffff169050600073ffffffffffffffffffffffffffffffffffffffff168173ffffffffffffffffffffffffffffffffffffffff1614156107e2576040517f08c379a00000000000000000000000000000000000000000000000000000000081526004016107d99061207a565b60405180910390fd5b80915050919050565b60008073ffffffffffffffffffffffffffffffffffffffff168273ffffffffffffffffffffffffffffffffffffffff16141561085c576040517f08c379a00000000000000000000000000000000000000000000000000000000081526004016108539061210c565b60405180910390fd5b600360008373ffffffffffffffffffffffffffffffffffffffff1673ffffffffffffffffffffffffffffffffffffffff168152602001908152602001600020549050919050565b6060600180546108b290611e46565b80601f01602080910402602001604051908101604052809291908181526020018280546108de90611e46565b801561092b5780601f106109005761010080835404028352916020019161092b565b820191906000526020600020905b81548152906001019060200180831161090e57829003601f168201915b5050505050905090565b610947610940610c20565b8383610fdd565b5050565b61095c610956610c20565b83610ce1565b61099b576040517f08c379a00000000000000000000000000000000000000000000000000000000081526004016109929061200e565b60405180910390fd5b6109a78484848461114a565b50505050565b60606109b882610bd5565b60006109c26111a6565b905060008151116109e25760405180602001604052806000815250610a0d565b806109ec846111bd565b6040516020016109fd929190612168565b6040516020818303038152906040525b915050919050565b6000600560008473ffffffffffffffffffffffffffffffffffffffff1673ffffffffffffffffffffffffffffffffffffffff16815260200190815260200160002060008373ffffffffffffffffffffffffffffffffffffffff1673ffffffffffffffffffffffffffffffffffffffff16815260200190815260200160002060009054906101000a900460ff16905092915050565b6000610ab5600661131e565b6000610ac16006611334565b9050610acd8382611342565b60006008610ada836111bd565b604051602001610aeb929190612220565b6040516020818303038152906040526009604051602001610b0d929190612244565b6040516020818303038152906040529050610b28828261151c565b7f5d8a776e1ffc11c258f380c8b6f4a92165722bf8508b6dfd657d02e6ba705e548483604051610b59929190612268565b60405180910390a18192505050919050565b60007f01ffc9a7000000000000000000000000000000000000000000000000000000007bffffffffffffffffffffffffffffffffffffffffffffffffffffffff1916827bffffffffffffffffffffffffffffffffffffffffffffffffffffffff1916149050919050565b610bde81611590565b610c1d576040517f08c379a0000000000000000000000000000000000000000000000000000000008152600401610c149061207a565b60405180910390fd5b50565b600033905090565b816004600083815260200190815260200160002060006101000a81548173ffffffffffffffffffffffffffffffffffffffff021916908373ffffffffffffffffffffffffffffffffffffffff160217905550808273ffffffffffffffffffffffffffffffffffffffff16610c9b83610739565b73ffffffffffffffffffffffffffffffffffffffff167f8c5be1e5ebec7d5bd14f71427d1e84f3dd0314c0f7b2291e5b200ac8c7c3b92560405160405180910390a45050565b600080610ced83610739565b90508073ffffffffffffffffffffffffffffffffffffffff168473ffffffffffffffffffffffffffffffffffffffff161480610d2f5750610d2e8185610a15565b5b80610d6d57508373ffffffffffffffffffffffffffffffffffffffff16610d55846104b6565b73ffffffffffffffffffffffffffffffffffffffff16145b91505092915050565b8273ffffffffffffffffffffffffffffffffffffffff16610d9682610739565b73ffffffffffffffffffffffffffffffffffffffff1614610dec576040517f08c379a0000000000000000000000000000000000000000000000000000000008152600401610de390612303565b60405180910390fd5b600073ffffffffffffffffffffffffffffffffffffffff168273ffffffffffffffffffffffffffffffffffffffff161415610e5c576040517f08c379a0000000000000000000000000000000000000000000000000000000008152600401610e5390612395565b60405180910390fd5b610e678383836115fc565b610e72600082610c28565b6001600360008573ffffffffffffffffffffffffffffffffffffffff1673ffffffffffffffffffffffffffffffffffffffff1681526020019081526020016000206000828254610ec291906123e4565b925050819055506001600360008473ffffffffffffffffffffffffffffffffffffffff1673ffffffffffffffffffffffffffffffffffffffff1681526020019081526020016000206000828254610f199190612418565b92505081905550816002600083815260200190815260200160002060006101000a81548173ffffffffffffffffffffffffffffffffffffffff021916908373ffffffffffffffffffffffffffffffffffffffff160217905550808273ffffffffffffffffffffffffffffffffffffffff168473ffffffffffffffffffffffffffffffffffffffff167fddf252ad1be2c89b69c2b068fc378daa952ba7f163c4a11628f55a4df523b3ef60405160405180910390a4610fd8838383611601565b505050565b8173ffffffffffffffffffffffffffffffffffffffff168373ffffffffffffffffffffffffffffffffffffffff16141561104c576040517f08c379a0000000000000000000000000000000000000000000000000000000008152600401611043906124ba565b60405180910390fd5b80600560008573ffffffffffffffffffffffffffffffffffffffff1673ffffffffffffffffffffffffffffffffffffffff16815260200190815260200160002060008473ffffffffffffffffffffffffffffffffffffffff1673ffffffffffffffffffffffffffffffffffffffff16815260200190815260200160002060006101000a81548160ff0219169083151502179055508173ffffffffffffffffffffffffffffffffffffffff168373ffffffffffffffffffffffffffffffffffffffff167f17307eab39ab6107e8899845ad3d59bd9653f200f220920489ca2b5937696c318360405161113d9190611908565b60405180910390a3505050565b611155848484610d76565b61116184848484611606565b6111a0576040517f08c379a00000000000000000000000000000000000000000000000000000000081526004016111979061254c565b60405180910390fd5b50505050565b606060405180602001604052806000815250905090565b60606000821415611205576040518060400160405280600181526020017f30000000000000000000000000000000000000000000000000000000000000008152509050611319565b600082905060005b600082146112375780806112209061256c565b915050600a8261123091906125e4565b915061120d565b60008167ffffffffffffffff81111561125357611252611c29565b5b6040519080825280601f01601f1916602001820160405280156112855781602001600182028036833780820191505090505b5090505b600085146113125760018261129e91906123e4565b9150600a856112ad9190612615565b60306112b99190612418565b60f81b8183815181106112cf576112ce612646565b5b60200101907effffffffffffffffffffffffffffffffffffffffffffffffffffffffffffff1916908160001a905350600a8561130b91906125e4565b9450611289565b8093505050505b919050565b6001816000016000828254019250508190555050565b600081600001549050919050565b600073ffffffffffffffffffffffffffffffffffffffff168273ffffffffffffffffffffffffffffffffffffffff1614156113b2576040517f08c379a00000000000000000000000000000000000000000000000000000000081526004016113a9906126c1565b60405180910390fd5b6113bb81611590565b156113fb576040517f08c379a00000000000000000000000000000000000000000000000000000000081526004016113f29061272d565b60405180910390fd5b611407600083836115fc565b6001600360008473ffffffffffffffffffffffffffffffffffffffff1673ffffffffffffffffffffffffffffffffffffffff16815260200190815260200160002060008282546114579190612418565b92505081905550816002600083815260200190815260200160002060006101000a81548173ffffffffffffffffffffffffffffffffffffffff021916908373ffffffffffffffffffffffffffffffffffffffff160217905550808273ffffffffffffffffffffffffffffffffffffffff16600073ffffffffffffffffffffffffffffffffffffffff167fddf252ad1be2c89b69c2b068fc378daa952ba7f163c4a11628f55a4df523b3ef60405160405180910390a461151860008383611601565b5050565b61152582611590565b611564576040517f08c379a000000000000000000000000000000000000000000000000000000000815260040161155b906127bf565b60405180910390fd5b8060076000848152602001908152602001600020908051906020019061158b9291906117b1565b505050565b60008073ffffffffffffffffffffffffffffffffffffffff166002600084815260200190815260200160002060009054906101000a900473ffffffffffffffffffffffffffffffffffffffff1673ffffffffffffffffffffffffffffffffffffffff1614159050919050565b505050565b505050565b60006116278473ffffffffffffffffffffffffffffffffffffffff1661178e565b15611781578373ffffffffffffffffffffffffffffffffffffffff1663150b7a02611650610c20565b8786866040518563ffffffff1660e01b81526004016116729493929190612834565b6020604051808303816000875af19250505080156116ae57506040513d601f19601f820116820180604052508101906116ab9190612895565b60015b611731573d80600081146116de576040519150601f19603f3d011682016040523d82523d6000602084013e6116e3565b606091505b50600081511415611729576040517f08c379a00000000000000000000000000000000000000000000000000000000081526004016117209061254c565b60405180910390fd5b805181602001fd5b63150b7a0260e01b7bffffffffffffffffffffffffffffffffffffffffffffffffffffffff1916817bffffffffffffffffffffffffffffffffffffffffffffffffffffffff191614915050611786565b600190505b949350505050565b6000808273ffffffffffffffffffffffffffffffffffffffff163b119050919050565b8280546117bd90611e46565b90600052602060002090601f0160209004810192826117df5760008555611826565b82601f106117f857805160ff1916838001178555611826565b82800160010185558215611826579182015b8281111561182557825182559160200191906001019061180a565b5b5090506118339190611837565b5090565b5b80821115611850576000816000905550600101611838565b5090565b6000604051905090565b600080fd5b600080fd5b60007fffffffff0000000000000000000000000000000000000000000000000000000082169050919050565b61189d81611868565b81146118a857600080fd5b50565b6000813590506118ba81611894565b92915050565b6000602082840312156118d6576118d561185e565b5b60006118e4848285016118ab565b91505092915050565b60008115159050919050565b611902816118ed565b82525050565b600060208201905061191d60008301846118f9565b92915050565b600081519050919050565b600082825260208201905092915050565b60005b8381101561195d578082015181840152602081019050611942565b8381111561196c576000848401525b50505050565b6000601f19601f8301169050919050565b600061198e82611923565b611998818561192e565b93506119a881856020860161193f565b6119b181611972565b840191505092915050565b600060208201905081810360008301526119d68184611983565b905092915050565b6000819050919050565b6119f1816119de565b81146119fc57600080fd5b50565b600081359050611a0e816119e8565b92915050565b600060208284031215611a2a57611a2961185e565b5b6000611a38848285016119ff565b91505092915050565b600073ffffffffffffffffffffffffffffffffffffffff82169050919050565b6000611a6c82611a41565b9050919050565b611a7c81611a61565b82525050565b6000602082019050611a976000830184611a73565b92915050565b611aa681611a61565b8114611ab157600080fd5b50565b600081359050611ac381611a9d565b92915050565b60008060408385031215611ae057611adf61185e565b5b6000611aee85828601611ab4565b9250506020611aff858286016119ff565b9150509250929050565b600080600060608486031215611b2257611b2161185e565b5b6000611b3086828701611ab4565b9350506020611b4186828701611ab4565b9250506040611b52868287016119ff565b9150509250925092565b600060208284031215611b7257611b7161185e565b5b6000611b8084828501611ab4565b91505092915050565b611b92816119de565b82525050565b6000602082019050611bad6000830184611b89565b92915050565b611bbc816118ed565b8114611bc757600080fd5b50565b600081359050611bd981611bb3565b92915050565b60008060408385031215611bf657611bf561185e565b5b6000611c0485828601611ab4565b9250506020611c1585828601611bca565b9150509250929050565b600080fd5b600080fd5b7f4e487b7100000000000000000000000000000000000000000000000000000000600052604160045260246000fd5b611c6182611972565b810181811067ffffffffffffffff82111715611c8057611c7f611c29565b5b80604052505050565b6000611c93611854565b9050611c9f8282611c58565b919050565b600067ffffffffffffffff821115611cbf57611cbe611c29565b5b611cc882611972565b9050602081019050919050565b82818337600083830152505050565b6000611cf7611cf284611ca4565b611c89565b905082815260208101848484011115611d1357611d12611c24565b5b611d1e848285611cd5565b509392505050565b600082601f830112611d3b57611d3a611c1f565b5b8135611d4b848260208601611ce4565b91505092915050565b60008060008060808587031215611d6e57611d6d61185e565b5b6000611d7c87828801611ab4565b9450506020611d8d87828801611ab4565b9350506040611d9e878288016119ff565b925050606085013567ffffffffffffffff811115611dbf57611dbe611863565b5b611dcb87828801611d26565b91505092959194509250565b60008060408385031215611dee57611ded61185e565b5b6000611dfc85828601611ab4565b9250506020611e0d85828601611ab4565b9150509250929050565b7f4e487b7100000000000000000000000000000000000000000000000000000000600052602260045260246000fd5b60006002820490506001821680611e5e57607f821691505b60208210811415611e7257611e71611e17565b5b50919050565b7f4552433732313a20617070726f76616c20746f2063757272656e74206f776e6560008201527f7200000000000000000000000000000000000000000000000000000000000000602082015250565b6000611ed460218361192e565b9150611edf82611e78565b604082019050919050565b60006020820190508181036000830152611f0381611ec7565b9050919050565b7f4552433732313a20617070726f76652063616c6c6572206973206e6f7420746f60008201527f6b656e206f776e6572206e6f7220617070726f76656420666f7220616c6c0000602082015250565b6000611f66603e8361192e565b9150611f7182611f0a565b604082019050919050565b60006020820190508181036000830152611f9581611f59565b9050919050565b7f4552433732313a2063616c6c6572206973206e6f7420746f6b656e206f776e6560008201527f72206e6f7220617070726f766564000000000000000000000000000000000000602082015250565b6000611ff8602e8361192e565b915061200382611f9c565b604082019050919050565b6000602082019050818103600083015261202781611feb565b9050919050565b7f4552433732313a20696e76616c696420746f6b656e2049440000000000000000600082015250565b600061206460188361192e565b915061206f8261202e565b602082019050919050565b6000602082019050818103600083015261209381612057565b9050919050565b7f4552433732313a2061646472657373207a65726f206973206e6f74206120766160008201527f6c6964206f776e65720000000000000000000000000000000000000000000000602082015250565b60006120f660298361192e565b91506121018261209a565b604082019050919050565b60006020820190508181036000830152612125816120e9565b9050919050565b600081905092915050565b600061214282611923565b61214c818561212c565b935061215c81856020860161193f565b80840191505092915050565b60006121748285612137565b91506121808284612137565b91508190509392505050565b60008190508160005260206000209050919050565b600081546121ae81611e46565b6121b8818661212c565b945060018216600081146121d357600181146121e457612217565b60ff19831686528186019350612217565b6121ed8561218c565b60005b8381101561220f578154818901526001820191506020810190506121f0565b838801955050505b50505092915050565b600061222c82856121a1565b91506122388284612137565b91508190509392505050565b60006122508285612137565b915061225c82846121a1565b91508190509392505050565b600060408201905061227d6000830185611a73565b61228a6020830184611b89565b9392505050565b7f4552433732313a207472616e736665722066726f6d20696e636f72726563742060008201527f6f776e6572000000000000000000000000000000000000000000000000000000602082015250565b60006122ed60258361192e565b91506122f882612291565b604082019050919050565b6000602082019050818103600083015261231c816122e0565b9050919050565b7f4552433732313a207472616e7366657220746f20746865207a65726f2061646460008201527f7265737300000000000000000000000000000000000000000000000000000000602082015250565b600061237f60248361192e565b915061238a82612323565b604082019050919050565b600060208201905081810360008301526123ae81612372565b9050919050565b7f4e487b7100000000000000000000000000000000000000000000000000000000600052601160045260246000fd5b60006123ef826119de565b91506123fa836119de565b92508282101561240d5761240c6123b5565b5b828203905092915050565b6000612423826119de565b915061242e836119de565b9250827fffffffffffffffffffffffffffffffffffffffffffffffffffffffffffffffff03821115612463576124626123b5565b5b828201905092915050565b7f4552433732313a20617070726f766520746f2063616c6c657200000000000000600082015250565b60006124a460198361192e565b91506124af8261246e565b602082019050919050565b600060208201905081810360008301526124d381612497565b9050919050565b7f4552433732313a207472616e7366657220746f206e6f6e20455243373231526560008201527f63656976657220696d706c656d656e7465720000000000000000000000000000602082015250565b600061253660328361192e565b9150612541826124da565b604082019050919050565b6000602082019050818103600083015261256581612529565b9050919050565b6000612577826119de565b91507fffffffffffffffffffffffffffffffffffffffffffffffffffffffffffffffff8214156125aa576125a96123b5565b5b600182019050919050565b7f4e487b7100000000000000000000000000000000000000000000000000000000600052601260045260246000fd5b60006125ef826119de565b91506125fa836119de565b92508261260a576126096125b5565b5b828204905092915050565b6000612620826119de565b915061262b836119de565b92508261263b5761263a6125b5565b5b828206905092915050565b7f4e487b7100000000000000000000000000000000000000000000000000000000600052603260045260246000fd5b7f4552433732313a206d696e7420746f20746865207a65726f2061646472657373600082015250565b60006126ab60208361192e565b91506126b682612675565b602082019050919050565b600060208201905081810360008301526126da8161269e565b9050919050565b7f4552433732313a20746f6b656e20616c7265616479206d696e74656400000000600082015250565b6000612717601c8361192e565b9150612722826126e1565b602082019050919050565b600060208201905081810360008301526127468161270a565b9050919050565b7f4552433732314d657461646174613a2055524920736574206f66206e6f6e657860008201527f697374656e7420746f6b656e0000000000000000000000000000000000000000602082015250565b60006127a9602c8361192e565b91506127b48261274d565b604082019050919050565b600060208201905081810360008301526127d88161279c565b9050919050565b600081519050919050565b600082825260208201905092915050565b6000612806826127df565b61281081856127ea565b935061282081856020860161193f565b61282981611972565b840191505092915050565b60006080820190506128496000830187611a73565b6128566020830186611a73565b6128636040830185611b89565b818103606083015261287581846127fb565b905095945050505050565b60008151905061288f81611894565b92915050565b6000602082840312156128ab576128aa61185e565b5b60006128b984828501612880565b9150509291505056fea264697066735822122036fd4d25ed27a0114ce789f4f0fc6b37e54399f2655814c631fedcfbc3d8a8e664736f6c634300080c003368747470733a2f2f696d672e736869656c64732e696f2f62616467652f5374617250726f706f7365722d4e6f2e",
  "linkReferences": {},
  "deployedLinkReferences": {}
}