{
  "_format": "hh-sol-artifact-1",
  "contractName": "StudentSocietyDAO",
  "sourceName": "contracts/StudentSocietyDAO.sol",
  "abi": [
    {
      "inputs": [],
      "stateMutability": "nonpayable",
      "type": "constructor"
    },
    {
      "anonymous": false,
      "inputs": [
        {
          "indexed": false,
          "internalType": "uint32",
          "name": "proposalIndex",
          "type": "uint32"
        }
      ],
      "name": "ProposalApproved",
      "type": "event"
    },
    {
      "anonymous": false,
      "inputs": [
        {
          "indexed": false,
          "internalType": "uint32",
          "name": "proposalIndex",
          "type": "uint32"
        }
      ],
      "name": "ProposalInitiated",
      "type": "event"
    },
    {
      "anonymous": false,
      "inputs": [
        {
          "indexed": false,
          "internalType": "uint32",
          "name": "proposalIndex",
          "type": "uint32"
        }
      ],
      "name": "ProposalNotApproved",
      "type": "event"
    },
    {
      "anonymous": false,
      "inputs": [
        {
          "indexed": false,
          "internalType": "address",
          "name": "voter",
          "type": "address"
        },
        {
          "indexed": false,
          "internalType": "uint32",
          "name": "proposalIndex",
          "type": "uint32"
        },
        {
          "indexed": false,
          "internalType": "bool",
          "name": "choice",
          "type": "bool"
        }
      ],
      "name": "ProposalVoted",
      "type": "event"
    },
    {
      "anonymous": false,
      "inputs": [
        {
          "indexed": false,
          "internalType": "address",
          "name": "voter",
          "type": "address"
        },
        {
          "indexed": false,
          "internalType": "uint32",
          "name": "proposalIndex",
          "type": "uint32"
        }
      ],
      "name": "ProposalVotedAnonymously",
      "type": "event"
    },
    {
      "anonymous": false,
      "inputs": [
        {
          "indexed": false,
          "internalType": "address",
          "name": "player",
          "type": "address"
        },
        {
          "indexed": false,
          "internalType": "uint256",
          "name": "id",
          "type": "uint256"
        }
      ],
      "name": "haveSouvenir",
      "type": "event"
    },
    {
      "inputs": [],
      "name": "INIT_TOKEN",
      "outputs": [
        {
          "internalType": "uint256",
          "name": "",
          "type": "uint256"
        }
      ],
      "stateMutability": "view",
      "type": "function"
    },
    {
      "inputs": [],
      "name": "PROPOSAL_REWARD",
      "outputs": [
        {
          "internalType": "uint256",
          "name": "",
          "type": "uint256"
        }
      ],
      "stateMutability": "view",
      "type": "function"
    },
    {
      "inputs": [],
      "name": "PROPOSAL_TOKEN",
      "outputs": [
        {
          "internalType": "uint256",
          "name": "",
          "type": "uint256"
        }
      ],
      "stateMutability": "view",
      "type": "function"
    },
    {
      "inputs": [],
      "name": "VOTE_TOKEN",
      "outputs": [
        {
          "internalType": "uint256",
          "name": "",
          "type": "uint256"
        }
      ],
      "stateMutability": "view",
      "type": "function"
    },
    {
      "inputs": [],
      "name": "checkProposals",
      "outputs": [],
      "stateMutability": "nonpayable",
      "type": "function"
    },
    {
      "inputs": [
        {
          "internalType": "uint256",
          "name": "startTime",
          "type": "uint256"
        },
        {
          "internalType": "uint256",
          "name": "duration",
          "type": "uint256"
        },
        {
          "internalType": "string",
          "name": "name",
          "type": "string"
        },
        {
          "internalType": "bool",
          "name": "isSecret",
          "type": "bool"
        }
      ],
      "name": "createProposal",
      "outputs": [
        {
          "internalType": "string",
          "name": "",
          "type": "string"
        }
      ],
      "stateMutability": "nonpayable",
      "type": "function"
    },
    {
      "inputs": [],
      "name": "getFreeToken",
      "outputs": [],
      "stateMutability": "nonpayable",
      "type": "function"
    },
    {
      "inputs": [
        {
          "internalType": "address",
          "name": "account",
          "type": "address"
        }
      ],
      "name": "getMySouvenir",
      "outputs": [
        {
          "internalType": "string",
          "name": "",
          "type": "string"
        }
      ],
      "stateMutability": "view",
      "type": "function"
    },
    {
      "inputs": [],
      "name": "idx",
      "outputs": [
        {
          "internalType": "uint32",
          "name": "",
          "type": "uint32"
        }
      ],
      "stateMutability": "view",
      "type": "function"
    },
    {
      "inputs": [
        {
          "internalType": "address",
          "name": "",
          "type": "address"
        }
      ],
      "name": "isInited",
      "outputs": [
        {
          "internalType": "bool",
          "name": "",
          "type": "bool"
        }
      ],
      "stateMutability": "view",
      "type": "function"
    },
    {
      "inputs": [
        {
          "internalType": "uint256",
          "name": "",
          "type": "uint256"
        }
      ],
      "name": "members",
      "outputs": [
        {
          "internalType": "address",
          "name": "",
          "type": "address"
        }
      ],
      "stateMutability": "view",
      "type": "function"
    },
    {
      "inputs": [
        {
          "internalType": "uint32",
          "name": "",
          "type": "uint32"
        }
      ],
      "name": "proposals",
      "outputs": [
        {
          "internalType": "uint32",
          "name": "index",
          "type": "uint32"
        },
        {
          "internalType": "address",
          "name": "proposer",
          "type": "address"
        },
        {
          "internalType": "uint256",
          "name": "startTime",
          "type": "uint256"
        },
        {
          "internalType": "uint256",
          "name": "duration",
          "type": "uint256"
        },
        {
          "internalType": "string",
          "name": "name",
          "type": "string"
        },
        {
          "internalType": "bool",
          "name": "isSecret",
          "type": "bool"
        },
        {
          "internalType": "int32",
          "name": "isDone",
          "type": "int32"
        }
      ],
      "stateMutability": "view",
      "type": "function"
    },
    {
      "inputs": [],
      "name": "souvenir",
      "outputs": [
        {
          "internalType": "contract MyERC721",
          "name": "",
          "type": "address"
        }
      ],
      "stateMutability": "view",
      "type": "function"
    },
    {
      "inputs": [],
      "name": "studentERC20",
      "outputs": [
        {
          "internalType": "contract MyERC20",
          "name": "",
          "type": "address"
        }
      ],
      "stateMutability": "view",
      "type": "function"
    },
    {
      "inputs": [
        {
          "internalType": "uint32",
          "name": "index",
          "type": "uint32"
        },
        {
          "internalType": "bool",
          "name": "choice",
          "type": "bool"
        }
      ],
      "name": "vote",
      "outputs": [
        {
          "internalType": "string",
          "name": "",
          "type": "string"
        }
      ],
      "stateMutability": "nonpayable",
      "type": "function"
    }
  ],
  "bytecode": "0x60806040523480156200001157600080fd5b50604051620000209062000106565b6200002b90620001d3565b604051809103906000f08015801562000048573d6000803e3d6000fd5b50600760006101000a81548173ffffffffffffffffffffffffffffffffffffffff021916908373ffffffffffffffffffffffffffffffffffffffff160217905550604051620000979062000114565b620000a290620002aa565b604051809103906000f080158015620000bf573d6000803e3d6000fd5b50600860006101000a81548173ffffffffffffffffffffffffffffffffffffffff021916908373ffffffffffffffffffffffffffffffffffffffff160217905550620002e1565b6119588062002d4f83390190565b612c3180620046a783390190565b600082825260208201905092915050565b7f4b6974616b756275546f6b656e00000000000000000000000000000000000000600082015250565b60006200016b600d8362000122565b9150620001788262000133565b602082019050919050565b7f4b54430000000000000000000000000000000000000000000000000000000000600082015250565b6000620001bb60038362000122565b9150620001c88262000183565b602082019050919050565b60006040820190508181036000830152620001ee816200015c565b905081810360208301526200020381620001ac565b9050919050565b7f536f7576656e6972000000000000000000000000000000000000000000000000600082015250565b60006200024260088362000122565b91506200024f826200020a565b602082019050919050565b7f5356520000000000000000000000000000000000000000000000000000000000600082015250565b60006200029260038362000122565b91506200029f826200025a565b602082019050919050565b60006040820190508181036000830152620002c58162000233565b90508181036020830152620002da8162000283565b9050919050565b612a5e80620002f16000396000f3fe608060405234801561001057600080fd5b50600436106100f55760003560e01c806377cfd551116100975780639a954af9116100665780639a954af9146102a4578063bce97c3f146102ae578063c72fca99146102de578063ccb18ad7146102fc576100f5565b806377cfd5511461021a578063795dbede1461024a5780638e1283f4146102685780639492887314610286576100f5565b80634588a2b7116100d35780634588a2b71461017e57806346230d04146101ae5780635daf08ca146101cc5780636c3fbb2d146101fc576100f5565b80630f23795f146100fa5780631e4ea7791461012a5780632a4910ab14610148575b600080fd5b610114600480360381019061010f9190611f1a565b610306565b6040516101219190611f62565b60405180910390f35b610132610326565b60405161013f9190611f96565b60405180910390f35b610162600480360381019061015d9190611fed565b61032b565b60405161017597969594939291906120ed565b60405180910390f35b61019860048036038101906101939190611f1a565b61043f565b6040516101a59190612163565b60405180910390f35b6101b6610537565b6040516101c391906121e4565b60405180910390f35b6101e660048036038101906101e1919061222b565b61055d565b6040516101f39190612258565b60405180910390f35b61020461059c565b6040516102119190612294565b60405180910390f35b610234600480360381019061022f91906122db565b6105c2565b6040516102419190612163565b60405180910390f35b610252610c05565b60405161025f919061231b565b60405180910390f35b610270610c1b565b60405161027d9190611f96565b60405180910390f35b61028e610c21565b60405161029b9190611f96565b60405180910390f35b6102ac610c27565b005b6102c860048036038101906102c3919061246b565b610f0f565b6040516102d59190612163565b60405180910390f35b6102e6611507565b6040516102f39190611f96565b60405180910390f35b61030461150d565b005b600d6020528060005260406000206000915054906101000a900460ff1681565b606481565b60096020528060005260406000206000915090508060000160009054906101000a900463ffffffff16908060000160049054906101000a900473ffffffffffffffffffffffffffffffffffffffff16908060010154908060020154908060030180546103969061251d565b80601f01602080910402602001604051908101604052809291908181526020018280546103c29061251d565b801561040f5780601f106103e45761010080835404028352916020019161040f565b820191906000526020600020905b8154815290600101906020018083116103f257829003601f168201915b5050505050908060040160009054906101000a900460ff16908060040160019054906101000a900460030b905087565b6060600860009054906101000a900473ffffffffffffffffffffffffffffffffffffffff1673ffffffffffffffffffffffffffffffffffffffff16633bb3a24d600e60008573ffffffffffffffffffffffffffffffffffffffff1673ffffffffffffffffffffffffffffffffffffffff168152602001908152602001600020546040518263ffffffff1660e01b81526004016104db9190611f96565b60006040518083038186803b1580156104f357600080fd5b505afa158015610507573d6000803e3d6000fd5b505050506040513d6000823e3d601f19601f8201168201806040525081019061053091906125bf565b9050919050565b600860009054906101000a900473ffffffffffffffffffffffffffffffffffffffff1681565b6006818154811061056d57600080fd5b906000526020600020016000915054906101000a900473ffffffffffffffffffffffffffffffffffffffff1681565b600760009054906101000a900473ffffffffffffffffffffffffffffffffffffffff1681565b6060600960008463ffffffff1663ffffffff168152602001908152602001600020600080820160009054906101000a900463ffffffff168160000160006101000a81548163ffffffff021916908363ffffffff1602179055506000820160049054906101000a900473ffffffffffffffffffffffffffffffffffffffff168160000160046101000a81548173ffffffffffffffffffffffffffffffffffffffff021916908373ffffffffffffffffffffffffffffffffffffffff160217905550600182015481600101556002820154816002015560038201816003019080546106aa9061251d565b6106b5929190611d78565b506004820160009054906101000a900460ff168160040160006101000a81548160ff0219169083151502179055506004820160019054906101000a900460030b8160040160016101000a81548163ffffffff021916908360030b63ffffffff160217905550905050600060010154421015801561074657506000600201546000600101546107439190612637565b42105b610785576040517f08c379a000000000000000000000000000000000000000000000000000000000815260040161077c906126d9565b60405180910390fd5b6064600760009054906101000a900473ffffffffffffffffffffffffffffffffffffffff1673ffffffffffffffffffffffffffffffffffffffff166370a08231336040518263ffffffff1660e01b81526004016107e29190612258565b60206040518083038186803b1580156107fa57600080fd5b505afa15801561080e573d6000803e3d6000fd5b505050506040513d601f19601f82011682018060405250810190610832919061270e565b1015610873576040517f08c379a000000000000000000000000000000000000000000000000000000000815260040161086a90612787565b60405180910390fd5b600f60003373ffffffffffffffffffffffffffffffffffffffff1673ffffffffffffffffffffffffffffffffffffffff16815260200190815260200160002060008463ffffffff1663ffffffff16815260200190815260200160002060009054906101000a900460ff161561091d576040517f08c379a0000000000000000000000000000000000000000000000000000000008152600401610914906127f3565b60405180910390fd5b600760009054906101000a900473ffffffffffffffffffffffffffffffffffffffff1673ffffffffffffffffffffffffffffffffffffffff166323b872dd333060646040518463ffffffff1660e01b815260040161097d93929190612813565b602060405180830381600087803b15801561099757600080fd5b505af11580156109ab573d6000803e3d6000fd5b505050506040513d601f19601f820116820180604052508101906109cf919061285f565b508115610a4d57600a60008060000160009054906101000a900463ffffffff1663ffffffff1663ffffffff168152602001908152602001600020600081819054906101000a900463ffffffff1680929190610a299061288c565b91906101000a81548163ffffffff021916908363ffffffff16021790555050610ac0565b600b60008060000160009054906101000a900463ffffffff1663ffffffff1663ffffffff168152602001908152602001600020600081819054906101000a900463ffffffff1680929190610aa09061288c565b91906101000a81548163ffffffff021916908363ffffffff160217905550505b600060040160009054906101000a900460ff1615610b16577f0a81919561b87c9c25dbdd3545f9731ec76d273953668cd4c1bdfa08d9d7caea3384604051610b099291906128b9565b60405180910390a1610b52565b7fe140f0e707f65852d56a84a9201e334bbf7036488596c31643ef709b2fa9d123338484604051610b49939291906128e2565b60405180910390a15b6001600f60003373ffffffffffffffffffffffffffffffffffffffff1673ffffffffffffffffffffffffffffffffffffffff16815260200190815260200160002060008563ffffffff1663ffffffff16815260200190815260200160002060006101000a81548160ff0219169083151502179055506040518060400160405280600c81526020017f566f746520737563636573730000000000000000000000000000000000000000815250905092915050565b600560009054906101000a900463ffffffff1681565b6103e881565b6101f481565b600d60003373ffffffffffffffffffffffffffffffffffffffff1673ffffffffffffffffffffffffffffffffffffffff16815260200190815260200160002060009054906101000a900460ff1615610cb4576040517f08c379a0000000000000000000000000000000000000000000000000000000008152600401610cab90612965565b60405180910390fd5b6006339080600181540180825580915050600190039060005260206000200160009091909190916101000a81548173ffffffffffffffffffffffffffffffffffffffff021916908373ffffffffffffffffffffffffffffffffffffffff1602179055506000600c60003373ffffffffffffffffffffffffffffffffffffffff1673ffffffffffffffffffffffffffffffffffffffff16815260200190815260200160002060006101000a81548163ffffffff021916908363ffffffff1602179055506001600d60003373ffffffffffffffffffffffffffffffffffffffff1673ffffffffffffffffffffffffffffffffffffffff16815260200190815260200160002060006101000a81548160ff021916908315150217905550600760009054906101000a900473ffffffffffffffffffffffffffffffffffffffff1673ffffffffffffffffffffffffffffffffffffffff1663a9059cbb336103e86040518363ffffffff1660e01b8152600401610e2d929190612985565b602060405180830381600087803b158015610e4757600080fd5b505af1158015610e5b573d6000803e3d6000fd5b505050506040513d601f19601f82011682018060405250810190610e7f919061285f565b50600760009054906101000a900473ffffffffffffffffffffffffffffffffffffffff1673ffffffffffffffffffffffffffffffffffffffff16633e5beab9336040518263ffffffff1660e01b8152600401610edb9190612258565b600060405180830381600087803b158015610ef557600080fd5b505af1158015610f09573d6000803e3d6000fd5b50505050565b60606101f4600760009054906101000a900473ffffffffffffffffffffffffffffffffffffffff1673ffffffffffffffffffffffffffffffffffffffff166370a08231336040518263ffffffff1660e01b8152600401610f6f9190612258565b60206040518083038186803b158015610f8757600080fd5b505afa158015610f9b573d6000803e3d6000fd5b505050506040513d601f19601f82011682018060405250810190610fbf919061270e565b1015611000576040517f08c379a0000000000000000000000000000000000000000000000000000000008152600401610ff790612787565b60405180910390fd5b6040518060e00160405280600560009054906101000a900463ffffffff1663ffffffff1681526020013373ffffffffffffffffffffffffffffffffffffffff16815260200186815260200185815260200184815260200183151581526020017fffffffffffffffffffffffffffffffffffffffffffffffffffffffffffffffff60030b8152506000808201518160000160006101000a81548163ffffffff021916908363ffffffff16021790555060208201518160000160046101000a81548173ffffffffffffffffffffffffffffffffffffffff021916908373ffffffffffffffffffffffffffffffffffffffff16021790555060408201518160010155606082015181600201556080820151816003019080519060200190611125929190611e05565b5060a08201518160040160006101000a81548160ff02191690831515021790555060c08201518160040160016101000a81548163ffffffff021916908360030b63ffffffff160217905550905050600760009054906101000a900473ffffffffffffffffffffffffffffffffffffffff1673ffffffffffffffffffffffffffffffffffffffff166323b872dd33306101f46040518463ffffffff1660e01b81526004016111d493929190612813565b602060405180830381600087803b1580156111ee57600080fd5b505af1158015611202573d6000803e3d6000fd5b505050506040513d601f19601f82011682018060405250810190611226919061285f565b506000600960008060000160009054906101000a900463ffffffff1663ffffffff1663ffffffff1681526020019081526020016000206000820160009054906101000a900463ffffffff168160000160006101000a81548163ffffffff021916908363ffffffff1602179055506000820160049054906101000a900473ffffffffffffffffffffffffffffffffffffffff168160000160046101000a81548173ffffffffffffffffffffffffffffffffffffffff021916908373ffffffffffffffffffffffffffffffffffffffff160217905550600182015481600101556002820154816002015560038201816003019080546113229061251d565b61132d929190611d78565b506004820160009054906101000a900460ff168160040160006101000a81548160ff0219169083151502179055506004820160019054906101000a900460030b8160040160016101000a81548163ffffffff021916908360030b63ffffffff1602179055509050506000600a60008060000160009054906101000a900463ffffffff1663ffffffff1663ffffffff16815260200190815260200160002060006101000a81548163ffffffff021916908363ffffffff1602179055506000600b60008060000160009054906101000a900463ffffffff1663ffffffff1663ffffffff16815260200190815260200160002060006101000a81548163ffffffff021916908363ffffffff1602179055506005600081819054906101000a900463ffffffff168092919061145d9061288c565b91906101000a81548163ffffffff021916908363ffffffff160217905550507f944f5ef0a446d54c41ea39dac07de1fd2150ec3346cbff6c627d1ffba048676c6000800160009054906101000a900463ffffffff166040516114bf919061231b565b60405180910390a16040518060400160405280601781526020017f4372656174652070726f706f73616c20737563636573730000000000000000008152509050949350505050565b6103e881565b60005b600560009054906101000a900463ffffffff1663ffffffff168163ffffffff161015611d7557600960008263ffffffff1663ffffffff168152602001908152602001600020600080820160009054906101000a900463ffffffff168160000160006101000a81548163ffffffff021916908363ffffffff1602179055506000820160049054906101000a900473ffffffffffffffffffffffffffffffffffffffff168160000160046101000a81548173ffffffffffffffffffffffffffffffffffffffff021916908373ffffffffffffffffffffffffffffffffffffffff1602179055506001820154816001015560028201548160020155600382018160030190805461161c9061251d565b611627929190611d78565b506004820160009054906101000a900460ff168160040160006101000a81548160ff0219169083151502179055506004820160019054906101000a900460030b8160040160016101000a81548163ffffffff021916908360030b63ffffffff1602179055509050507fffffffffffffffffffffffffffffffffffffffffffffffffffffffffffffffff600060040160019054906101000a900460030b60030b1480156116e757506000600201546000600101546116e49190612637565b42115b15611c0857600b60008060000160009054906101000a900463ffffffff1663ffffffff1663ffffffff16815260200190815260200160002060009054906101000a900463ffffffff1663ffffffff16600a60008060000160009054906101000a900463ffffffff1663ffffffff1663ffffffff16815260200190815260200160002060009054906101000a900463ffffffff1663ffffffff161115611b94577f3730b57be3d0c31bcae4515485ee72ca588ec3203604704146cfbf14459fd8cb6000800160009054906101000a900463ffffffff166040516117c9919061231b565b60405180910390a1600c60008060000160049054906101000a900473ffffffffffffffffffffffffffffffffffffffff1673ffffffffffffffffffffffffffffffffffffffff1673ffffffffffffffffffffffffffffffffffffffff168152602001908152602001600020600081819054906101000a900463ffffffff16809291906118549061288c565b91906101000a81548163ffffffff021916908363ffffffff16021790555050600760009054906101000a900473ffffffffffffffffffffffffffffffffffffffff1673ffffffffffffffffffffffffffffffffffffffff1663a9059cbb6000800160049054906101000a900473ffffffffffffffffffffffffffffffffffffffff166103e86040518363ffffffff1660e01b81526004016118f6929190612985565b602060405180830381600087803b15801561191057600080fd5b505af1158015611924573d6000803e3d6000fd5b505050506040513d601f19601f82011682018060405250810190611948919061285f565b506001600060040160016101000a81548163ffffffff021916908360030b63ffffffff1602179055506003600c60008060000160049054906101000a900473ffffffffffffffffffffffffffffffffffffffff1673ffffffffffffffffffffffffffffffffffffffff1673ffffffffffffffffffffffffffffffffffffffff16815260200190815260200160002060009054906101000a900463ffffffff1663ffffffff161415611b8f576000600860009054906101000a900473ffffffffffffffffffffffffffffffffffffffff1673ffffffffffffffffffffffffffffffffffffffff1663cf3783436000800160049054906101000a900473ffffffffffffffffffffffffffffffffffffffff166040518263ffffffff1660e01b8152600401611a7491906129fa565b602060405180830381600087803b158015611a8e57600080fd5b505af1158015611aa2573d6000803e3d6000fd5b505050506040513d601f19601f82011682018060405250810190611ac6919061270e565b905080600e60008060000160049054906101000a900473ffffffffffffffffffffffffffffffffffffffff1673ffffffffffffffffffffffffffffffffffffffff1673ffffffffffffffffffffffffffffffffffffffff168152602001908152602001600020819055507f770a404e1677c793a59e7453a75de2c6c006c57a9df650f3455f12ab2701422f6000800160049054906101000a900473ffffffffffffffffffffffffffffffffffffffff1682604051611b85929190612985565b60405180910390a1505b611c07565b7faed7a8e09679f55d17f88f6fc603db93bc9f0e275dc7dae1417a942392b651af6000800160009054906101000a900463ffffffff16604051611bd7919061231b565b60405180910390a160008060040160016101000a81548163ffffffff021916908360030b63ffffffff1602179055505b5b6000600960008363ffffffff1663ffffffff1681526020019081526020016000206000820160009054906101000a900463ffffffff168160000160006101000a81548163ffffffff021916908363ffffffff1602179055506000820160049054906101000a900473ffffffffffffffffffffffffffffffffffffffff168160000160046101000a81548173ffffffffffffffffffffffffffffffffffffffff021916908373ffffffffffffffffffffffffffffffffffffffff16021790555060018201548160010155600282015481600201556003820181600301908054611cef9061251d565b611cfa929190611d78565b506004820160009054906101000a900460ff168160040160006101000a81548160ff0219169083151502179055506004820160019054906101000a900460030b8160040160016101000a81548163ffffffff021916908360030b63ffffffff1602179055509050508080611d6d9061288c565b915050611510565b50565b828054611d849061251d565b90600052602060002090601f016020900481019282611da65760008555611df4565b82601f10611db75780548555611df4565b82800160010185558215611df457600052602060002091601f016020900482015b82811115611df3578254825591600101919060010190611dd8565b5b509050611e019190611e8b565b5090565b828054611e119061251d565b90600052602060002090601f016020900481019282611e335760008555611e7a565b82601f10611e4c57805160ff1916838001178555611e7a565b82800160010185558215611e7a579182015b82811115611e79578251825591602001919060010190611e5e565b5b509050611e879190611e8b565b5090565b5b80821115611ea4576000816000905550600101611e8c565b5090565b6000604051905090565b600080fd5b600080fd5b600073ffffffffffffffffffffffffffffffffffffffff82169050919050565b6000611ee782611ebc565b9050919050565b611ef781611edc565b8114611f0257600080fd5b50565b600081359050611f1481611eee565b92915050565b600060208284031215611f3057611f2f611eb2565b5b6000611f3e84828501611f05565b91505092915050565b60008115159050919050565b611f5c81611f47565b82525050565b6000602082019050611f776000830184611f53565b92915050565b6000819050919050565b611f9081611f7d565b82525050565b6000602082019050611fab6000830184611f87565b92915050565b600063ffffffff82169050919050565b611fca81611fb1565b8114611fd557600080fd5b50565b600081359050611fe781611fc1565b92915050565b60006020828403121561200357612002611eb2565b5b600061201184828501611fd8565b91505092915050565b61202381611fb1565b82525050565b61203281611edc565b82525050565b600081519050919050565b600082825260208201905092915050565b60005b83811015612072578082015181840152602081019050612057565b83811115612081576000848401525b50505050565b6000601f19601f8301169050919050565b60006120a382612038565b6120ad8185612043565b93506120bd818560208601612054565b6120c681612087565b840191505092915050565b60008160030b9050919050565b6120e7816120d1565b82525050565b600060e082019050612102600083018a61201a565b61210f6020830189612029565b61211c6040830188611f87565b6121296060830187611f87565b818103608083015261213b8186612098565b905061214a60a0830185611f53565b61215760c08301846120de565b98975050505050505050565b6000602082019050818103600083015261217d8184612098565b905092915050565b6000819050919050565b60006121aa6121a56121a084611ebc565b612185565b611ebc565b9050919050565b60006121bc8261218f565b9050919050565b60006121ce826121b1565b9050919050565b6121de816121c3565b82525050565b60006020820190506121f960008301846121d5565b92915050565b61220881611f7d565b811461221357600080fd5b50565b600081359050612225816121ff565b92915050565b60006020828403121561224157612240611eb2565b5b600061224f84828501612216565b91505092915050565b600060208201905061226d6000830184612029565b92915050565b600061227e826121b1565b9050919050565b61228e81612273565b82525050565b60006020820190506122a96000830184612285565b92915050565b6122b881611f47565b81146122c357600080fd5b50565b6000813590506122d5816122af565b92915050565b600080604083850312156122f2576122f1611eb2565b5b600061230085828601611fd8565b9250506020612311858286016122c6565b9150509250929050565b6000602082019050612330600083018461201a565b92915050565b600080fd5b600080fd5b7f4e487b7100000000000000000000000000000000000000000000000000000000600052604160045260246000fd5b61237882612087565b810181811067ffffffffffffffff8211171561239757612396612340565b5b80604052505050565b60006123aa611ea8565b90506123b6828261236f565b919050565b600067ffffffffffffffff8211156123d6576123d5612340565b5b6123df82612087565b9050602081019050919050565b82818337600083830152505050565b600061240e612409846123bb565b6123a0565b90508281526020810184848401111561242a5761242961233b565b5b6124358482856123ec565b509392505050565b600082601f83011261245257612451612336565b5b81356124628482602086016123fb565b91505092915050565b6000806000806080858703121561248557612484611eb2565b5b600061249387828801612216565b94505060206124a487828801612216565b935050604085013567ffffffffffffffff8111156124c5576124c4611eb7565b5b6124d18782880161243d565b92505060606124e2878288016122c6565b91505092959194509250565b7f4e487b7100000000000000000000000000000000000000000000000000000000600052602260045260246000fd5b6000600282049050600182168061253557607f821691505b60208210811415612549576125486124ee565b5b50919050565b600061256261255d846123bb565b6123a0565b90508281526020810184848401111561257e5761257d61233b565b5b612589848285612054565b509392505050565b600082601f8301126125a6576125a5612336565b5b81516125b684826020860161254f565b91505092915050565b6000602082840312156125d5576125d4611eb2565b5b600082015167ffffffffffffffff8111156125f3576125f2611eb7565b5b6125ff84828501612591565b91505092915050565b7f4e487b7100000000000000000000000000000000000000000000000000000000600052601160045260246000fd5b600061264282611f7d565b915061264d83611f7d565b9250827fffffffffffffffffffffffffffffffffffffffffffffffffffffffffffffffff0382111561268257612681612608565b5b828201905092915050565b7f50726f706f73616c20686173206265656e20636c6f7365640000000000000000600082015250565b60006126c3601883612043565b91506126ce8261268d565b602082019050919050565b600060208201905081810360008301526126f2816126b6565b9050919050565b600081519050612708816121ff565b92915050565b60006020828403121561272457612723611eb2565b5b6000612732848285016126f9565b91505092915050565b7f546f6b656e2062616c616e636520697320696e73756666696369656e74000000600082015250565b6000612771601d83612043565b915061277c8261273b565b602082019050919050565b600060208201905081810360008301526127a081612764565b9050919050565b7f486173206265656e20766f746564000000000000000000000000000000000000600082015250565b60006127dd600e83612043565b91506127e8826127a7565b602082019050919050565b6000602082019050818103600083015261280c816127d0565b9050919050565b60006060820190506128286000830186612029565b6128356020830185612029565b6128426040830184611f87565b949350505050565b600081519050612859816122af565b92915050565b60006020828403121561287557612874611eb2565b5b60006128838482850161284a565b91505092915050565b600061289782611fb1565b915063ffffffff8214156128ae576128ad612608565b5b600182019050919050565b60006040820190506128ce6000830185612029565b6128db602083018461201a565b9392505050565b60006060820190506128f76000830186612029565b612904602083018561201a565b6129116040830184611f53565b949350505050565b7f596f75206861766520616c726561647920676f742074686520746f6b656e0000600082015250565b600061294f601e83612043565b915061295a82612919565b602082019050919050565b6000602082019050818103600083015261297e81612942565b9050919050565b600060408201905061299a6000830185612029565b6129a76020830184611f87565b9392505050565b7f706174682f746f2f616464726573732e6a736f6e000000000000000000000000600082015250565b60006129e4601483612043565b91506129ef826129ae565b602082019050919050565b6000604082019050612a0f6000830184612029565b8181036020830152612a20816129d7565b90509291505056fea2646970667358221220b0c1f61f1bceb5df32810d2fcfb9f2808909aad3a784443df6a46eb023dfefb764736f6c6343000809003360806040523480156200001157600080fd5b50604051620019583803806200195883398181016040528101906200003791906200045a565b81818160039080519060200190620000519291906200020d565b5080600490805190602001906200006a9291906200020d565b5050506200008233620f42406200008a60201b60201c565b50506200068b565b600073ffffffffffffffffffffffffffffffffffffffff168273ffffffffffffffffffffffffffffffffffffffff161415620000fd576040517f08c379a0000000000000000000000000000000000000000000000000000000008152600401620000f49062000540565b60405180910390fd5b62000111600083836200020360201b60201c565b80600260008282546200012591906200059b565b92505081905550806000808473ffffffffffffffffffffffffffffffffffffffff1673ffffffffffffffffffffffffffffffffffffffff16815260200190815260200160002060008282546200017c91906200059b565b925050819055508173ffffffffffffffffffffffffffffffffffffffff16600073ffffffffffffffffffffffffffffffffffffffff167fddf252ad1be2c89b69c2b068fc378daa952ba7f163c4a11628f55a4df523b3ef83604051620001e3919062000609565b60405180910390a3620001ff600083836200020860201b60201c565b5050565b505050565b505050565b8280546200021b9062000655565b90600052602060002090601f0160209004810192826200023f57600085556200028b565b82601f106200025a57805160ff19168380011785556200028b565b828001600101855582156200028b579182015b828111156200028a5782518255916020019190600101906200026d565b5b5090506200029a91906200029e565b5090565b5b80821115620002b95760008160009055506001016200029f565b5090565b6000604051905090565b600080fd5b600080fd5b600080fd5b600080fd5b6000601f19601f8301169050919050565b7f4e487b7100000000000000000000000000000000000000000000000000000000600052604160045260246000fd5b6200032682620002db565b810181811067ffffffffffffffff82111715620003485762000347620002ec565b5b80604052505050565b60006200035d620002bd565b90506200036b82826200031b565b919050565b600067ffffffffffffffff8211156200038e576200038d620002ec565b5b6200039982620002db565b9050602081019050919050565b60005b83811015620003c6578082015181840152602081019050620003a9565b83811115620003d6576000848401525b50505050565b6000620003f3620003ed8462000370565b62000351565b905082815260208101848484011115620004125762000411620002d6565b5b6200041f848285620003a6565b509392505050565b600082601f8301126200043f576200043e620002d1565b5b815162000451848260208601620003dc565b91505092915050565b60008060408385031215620004745762000473620002c7565b5b600083015167ffffffffffffffff811115620004955762000494620002cc565b5b620004a38582860162000427565b925050602083015167ffffffffffffffff811115620004c757620004c6620002cc565b5b620004d58582860162000427565b9150509250929050565b600082825260208201905092915050565b7f45524332303a206d696e7420746f20746865207a65726f206164647265737300600082015250565b600062000528601f83620004df565b91506200053582620004f0565b602082019050919050565b600060208201905081810360008301526200055b8162000519565b9050919050565b6000819050919050565b7f4e487b7100000000000000000000000000000000000000000000000000000000600052601160045260246000fd5b6000620005a88262000562565b9150620005b58362000562565b9250827fffffffffffffffffffffffffffffffffffffffffffffffffffffffffffffffff03821115620005ed57620005ec6200056c565b5b828201905092915050565b620006038162000562565b82525050565b6000602082019050620006206000830184620005f8565b92915050565b7f4e487b7100000000000000000000000000000000000000000000000000000000600052602260045260246000fd5b600060028204905060018216806200066e57607f821691505b6020821081141562000685576200068462000626565b5b50919050565b6112bd806200069b6000396000f3fe608060405234801561001057600080fd5b50600436106100b45760003560e01c80633e5beab9116100715780633e5beab9146101a357806370a08231146101bf57806395d89b41146101ef578063a457c2d71461020d578063a9059cbb1461023d578063dd62ed3e1461026d576100b4565b806306fdde03146100b9578063095ea7b3146100d757806318160ddd1461010757806323b872dd14610125578063313ce567146101555780633950935114610173575b600080fd5b6100c161029d565b6040516100ce9190610b77565b60405180910390f35b6100f160048036038101906100ec9190610c32565b61032f565b6040516100fe9190610c8d565b60405180910390f35b61010f610352565b60405161011c9190610cb7565b60405180910390f35b61013f600480360381019061013a9190610cd2565b61035c565b60405161014c9190610c8d565b60405180910390f35b61015d61038b565b60405161016a9190610d41565b60405180910390f35b61018d60048036038101906101889190610c32565b610394565b60405161019a9190610c8d565b60405180910390f35b6101bd60048036038101906101b89190610d5c565b6103cb565b005b6101d960048036038101906101d49190610d5c565b6103f9565b6040516101e69190610cb7565b60405180910390f35b6101f7610441565b6040516102049190610b77565b60405180910390f35b61022760048036038101906102229190610c32565b6104d3565b6040516102349190610c8d565b60405180910390f35b61025760048036038101906102529190610c32565b61054a565b6040516102649190610c8d565b60405180910390f35b61028760048036038101906102829190610d89565b61056d565b6040516102949190610cb7565b60405180910390f35b6060600380546102ac90610df8565b80601f01602080910402602001604051908101604052809291908181526020018280546102d890610df8565b80156103255780601f106102fa57610100808354040283529160200191610325565b820191906000526020600020905b81548152906001019060200180831161030857829003601f168201915b5050505050905090565b60008061033a6105f4565b90506103478185856105fc565b600191505092915050565b6000600254905090565b6000806103676105f4565b90506103748582856107c7565b61037f858585610853565b60019150509392505050565b60006012905090565b60008061039f6105f4565b90506103c08185856103b1858961056d565b6103bb9190610e59565b6105fc565b600191505092915050565b6103f681337fffffffffffffffffffffffffffffffffffffffffffffffffffffffffffffffff6105fc565b50565b60008060008373ffffffffffffffffffffffffffffffffffffffff1673ffffffffffffffffffffffffffffffffffffffff168152602001908152602001600020549050919050565b60606004805461045090610df8565b80601f016020809104026020016040519081016040528092919081815260200182805461047c90610df8565b80156104c95780601f1061049e576101008083540402835291602001916104c9565b820191906000526020600020905b8154815290600101906020018083116104ac57829003601f168201915b5050505050905090565b6000806104de6105f4565b905060006104ec828661056d565b905083811015610531576040517f08c379a000000000000000000000000000000000000000000000000000000000815260040161052890610f21565b60405180910390fd5b61053e82868684036105fc565b60019250505092915050565b6000806105556105f4565b9050610562818585610853565b600191505092915050565b6000600160008473ffffffffffffffffffffffffffffffffffffffff1673ffffffffffffffffffffffffffffffffffffffff16815260200190815260200160002060008373ffffffffffffffffffffffffffffffffffffffff1673ffffffffffffffffffffffffffffffffffffffff16815260200190815260200160002054905092915050565b600033905090565b600073ffffffffffffffffffffffffffffffffffffffff168373ffffffffffffffffffffffffffffffffffffffff16141561066c576040517f08c379a000000000000000000000000000000000000000000000000000000000815260040161066390610fb3565b60405180910390fd5b600073ffffffffffffffffffffffffffffffffffffffff168273ffffffffffffffffffffffffffffffffffffffff1614156106dc576040517f08c379a00000000000000000000000000000000000000000000000000000000081526004016106d390611045565b60405180910390fd5b80600160008573ffffffffffffffffffffffffffffffffffffffff1673ffffffffffffffffffffffffffffffffffffffff16815260200190815260200160002060008473ffffffffffffffffffffffffffffffffffffffff1673ffffffffffffffffffffffffffffffffffffffff168152602001908152602001600020819055508173ffffffffffffffffffffffffffffffffffffffff168373ffffffffffffffffffffffffffffffffffffffff167f8c5be1e5ebec7d5bd14f71427d1e84f3dd0314c0f7b2291e5b200ac8c7c3b925836040516107ba9190610cb7565b60405180910390a3505050565b60006107d3848461056d565b90507fffffffffffffffffffffffffffffffffffffffffffffffffffffffffffffffff811461084d578181101561083f576040517f08c379a0000000000000000000000000000000000000000000000000000000008152600401610836906110b1565b60405180910390fd5b61084c84848484036105fc565b5b50505050565b600073ffffffffffffffffffffffffffffffffffffffff168373ffffffffffffffffffffffffffffffffffffffff1614156108c3576040517f08c379a00000000000000000000000000000000000000000000000000000000081526004016108ba90611143565b60405180910390fd5b600073ffffffffffffffffffffffffffffffffffffffff168273ffffffffffffffffffffffffffffffffffffffff161415610933576040517f08c379a000000000000000000000000000000000000000000000000000000000815260040161092a906111d5565b60405180910390fd5b61093e838383610ad4565b60008060008573ffffffffffffffffffffffffffffffffffffffff1673ffffffffffffffffffffffffffffffffffffffff168152602001908152602001600020549050818110156109c4576040517f08c379a00000000000000000000000000000000000000000000000000000000081526004016109bb90611267565b60405180910390fd5b8181036000808673ffffffffffffffffffffffffffffffffffffffff1673ffffffffffffffffffffffffffffffffffffffff16815260200190815260200160002081905550816000808573ffffffffffffffffffffffffffffffffffffffff1673ffffffffffffffffffffffffffffffffffffffff1681526020019081526020016000206000828254610a579190610e59565b925050819055508273ffffffffffffffffffffffffffffffffffffffff168473ffffffffffffffffffffffffffffffffffffffff167fddf252ad1be2c89b69c2b068fc378daa952ba7f163c4a11628f55a4df523b3ef84604051610abb9190610cb7565b60405180910390a3610ace848484610ad9565b50505050565b505050565b505050565b600081519050919050565b600082825260208201905092915050565b60005b83811015610b18578082015181840152602081019050610afd565b83811115610b27576000848401525b50505050565b6000601f19601f8301169050919050565b6000610b4982610ade565b610b538185610ae9565b9350610b63818560208601610afa565b610b6c81610b2d565b840191505092915050565b60006020820190508181036000830152610b918184610b3e565b905092915050565b600080fd5b600073ffffffffffffffffffffffffffffffffffffffff82169050919050565b6000610bc982610b9e565b9050919050565b610bd981610bbe565b8114610be457600080fd5b50565b600081359050610bf681610bd0565b92915050565b6000819050919050565b610c0f81610bfc565b8114610c1a57600080fd5b50565b600081359050610c2c81610c06565b92915050565b60008060408385031215610c4957610c48610b99565b5b6000610c5785828601610be7565b9250506020610c6885828601610c1d565b9150509250929050565b60008115159050919050565b610c8781610c72565b82525050565b6000602082019050610ca26000830184610c7e565b92915050565b610cb181610bfc565b82525050565b6000602082019050610ccc6000830184610ca8565b92915050565b600080600060608486031215610ceb57610cea610b99565b5b6000610cf986828701610be7565b9350506020610d0a86828701610be7565b9250506040610d1b86828701610c1d565b9150509250925092565b600060ff82169050919050565b610d3b81610d25565b82525050565b6000602082019050610d566000830184610d32565b92915050565b600060208284031215610d7257610d71610b99565b5b6000610d8084828501610be7565b91505092915050565b60008060408385031215610da057610d9f610b99565b5b6000610dae85828601610be7565b9250506020610dbf85828601610be7565b9150509250929050565b7f4e487b7100000000000000000000000000000000000000000000000000000000600052602260045260246000fd5b60006002820490506001821680610e1057607f821691505b60208210811415610e2457610e23610dc9565b5b50919050565b7f4e487b7100000000000000000000000000000000000000000000000000000000600052601160045260246000fd5b6000610e6482610bfc565b9150610e6f83610bfc565b9250827fffffffffffffffffffffffffffffffffffffffffffffffffffffffffffffffff03821115610ea457610ea3610e2a565b5b828201905092915050565b7f45524332303a2064656372656173656420616c6c6f77616e63652062656c6f7760008201527f207a65726f000000000000000000000000000000000000000000000000000000602082015250565b6000610f0b602583610ae9565b9150610f1682610eaf565b604082019050919050565b60006020820190508181036000830152610f3a81610efe565b9050919050565b7f45524332303a20617070726f76652066726f6d20746865207a65726f2061646460008201527f7265737300000000000000000000000000000000000000000000000000000000602082015250565b6000610f9d602483610ae9565b9150610fa882610f41565b604082019050919050565b60006020820190508181036000830152610fcc81610f90565b9050919050565b7f45524332303a20617070726f766520746f20746865207a65726f20616464726560008201527f7373000000000000000000000000000000000000000000000000000000000000602082015250565b600061102f602283610ae9565b915061103a82610fd3565b604082019050919050565b6000602082019050818103600083015261105e81611022565b9050919050565b7f45524332303a20696e73756666696369656e7420616c6c6f77616e6365000000600082015250565b600061109b601d83610ae9565b91506110a682611065565b602082019050919050565b600060208201905081810360008301526110ca8161108e565b9050919050565b7f45524332303a207472616e736665722066726f6d20746865207a65726f20616460008201527f6472657373000000000000000000000000000000000000000000000000000000602082015250565b600061112d602583610ae9565b9150611138826110d1565b604082019050919050565b6000602082019050818103600083015261115c81611120565b9050919050565b7f45524332303a207472616e7366657220746f20746865207a65726f206164647260008201527f6573730000000000000000000000000000000000000000000000000000000000602082015250565b60006111bf602383610ae9565b91506111ca82611163565b604082019050919050565b600060208201905081810360008301526111ee816111b2565b9050919050565b7f45524332303a207472616e7366657220616d6f756e742065786365656473206260008201527f616c616e63650000000000000000000000000000000000000000000000000000602082015250565b6000611251602683610ae9565b915061125c826111f5565b604082019050919050565b6000602082019050818103600083015261128081611244565b905091905056fea2646970667358221220e39a754104b5c74d06365f8bc2a45b1bc7b28f2437058f0b1c624ee04773351864736f6c6343000809003360806040523480156200001157600080fd5b5060405162002c3138038062002c318339818101604052810190620000379190620002c2565b818181600090805190602001906200005192919062000075565b5080600190805190602001906200006a92919062000075565b5050505050620003ac565b828054620000839062000376565b90600052602060002090601f016020900481019282620000a75760008555620000f3565b82601f10620000c257805160ff1916838001178555620000f3565b82800160010185558215620000f3579182015b82811115620000f2578251825591602001919060010190620000d5565b5b50905062000102919062000106565b5090565b5b808211156200012157600081600090555060010162000107565b5090565b6000604051905090565b600080fd5b600080fd5b600080fd5b600080fd5b6000601f19601f8301169050919050565b7f4e487b7100000000000000000000000000000000000000000000000000000000600052604160045260246000fd5b6200018e8262000143565b810181811067ffffffffffffffff82111715620001b057620001af62000154565b5b80604052505050565b6000620001c562000125565b9050620001d3828262000183565b919050565b600067ffffffffffffffff821115620001f657620001f562000154565b5b620002018262000143565b9050602081019050919050565b60005b838110156200022e57808201518184015260208101905062000211565b838111156200023e576000848401525b50505050565b60006200025b6200025584620001d8565b620001b9565b9050828152602081018484840111156200027a57620002796200013e565b5b620002878482856200020e565b509392505050565b600082601f830112620002a757620002a662000139565b5b8151620002b984826020860162000244565b91505092915050565b60008060408385031215620002dc57620002db6200012f565b5b600083015167ffffffffffffffff811115620002fd57620002fc62000134565b5b6200030b858286016200028f565b925050602083015167ffffffffffffffff8111156200032f576200032e62000134565b5b6200033d858286016200028f565b9150509250929050565b7f4e487b7100000000000000000000000000000000000000000000000000000000600052602260045260246000fd5b600060028204905060018216806200038f57607f821691505b60208210811415620003a657620003a562000347565b5b50919050565b61287580620003bc6000396000f3fe608060405234801561001057600080fd5b50600436106100f55760003560e01c80636352211e11610097578063b88d4fde11610066578063b88d4fde14610296578063c87b56dd146102b2578063cf378343146102e2578063e985e9c514610312576100f5565b80636352211e146101fc57806370a082311461022c57806395d89b411461025c578063a22cb4651461027a576100f5565b8063095ea7b3116100d3578063095ea7b31461017857806323b872dd146101945780633bb3a24d146101b057806342842e0e146101e0576100f5565b806301ffc9a7146100fa57806306fdde031461012a578063081812fc14610148575b600080fd5b610114600480360381019061010f9190611845565b610342565b604051610121919061188d565b60405180910390f35b610132610424565b60405161013f9190611941565b60405180910390f35b610162600480360381019061015d9190611999565b6104b6565b60405161016f9190611a07565b60405180910390f35b610192600480360381019061018d9190611a4e565b6104fc565b005b6101ae60048036038101906101a99190611a8e565b610614565b005b6101ca60048036038101906101c59190611999565b610674565b6040516101d79190611941565b60405180910390f35b6101fa60048036038101906101f59190611a8e565b610719565b005b61021660048036038101906102119190611999565b610739565b6040516102239190611a07565b60405180910390f35b61024660048036038101906102419190611ae1565b6107eb565b6040516102539190611b1d565b60405180910390f35b6102646108a3565b6040516102719190611941565b60405180910390f35b610294600480360381019061028f9190611b64565b610935565b005b6102b060048036038101906102ab9190611cd9565b61094b565b005b6102cc60048036038101906102c79190611999565b6109ad565b6040516102d99190611941565b60405180910390f35b6102fc60048036038101906102f79190611dfd565b610a15565b6040516103099190611b1d565b60405180910390f35b61032c60048036038101906103279190611e59565b610a4d565b604051610339919061188d565b60405180910390f35b60007f80ac58cd000000000000000000000000000000000000000000000000000000007bffffffffffffffffffffffffffffffffffffffffffffffffffffffff1916827bffffffffffffffffffffffffffffffffffffffffffffffffffffffff1916148061040d57507f5b5e139f000000000000000000000000000000000000000000000000000000007bffffffffffffffffffffffffffffffffffffffffffffffffffffffff1916827bffffffffffffffffffffffffffffffffffffffffffffffffffffffff1916145b8061041d575061041c82610ae1565b5b9050919050565b60606000805461043390611ec8565b80601f016020809104026020016040519081016040528092919081815260200182805461045f90611ec8565b80156104ac5780601f10610481576101008083540402835291602001916104ac565b820191906000526020600020905b81548152906001019060200180831161048f57829003601f168201915b5050505050905090565b60006104c182610b4b565b6004600083815260200190815260200160002060009054906101000a900473ffffffffffffffffffffffffffffffffffffffff169050919050565b600061050782610739565b90508073ffffffffffffffffffffffffffffffffffffffff168373ffffffffffffffffffffffffffffffffffffffff161415610578576040517f08c379a000000000000000000000000000000000000000000000000000000000815260040161056f90611f6c565b60405180910390fd5b8073ffffffffffffffffffffffffffffffffffffffff16610597610b96565b73ffffffffffffffffffffffffffffffffffffffff1614806105c657506105c5816105c0610b96565b610a4d565b5b610605576040517f08c379a00000000000000000000000000000000000000000000000000000000081526004016105fc90611ffe565b60405180910390fd5b61060f8383610b9e565b505050565b61062561061f610b96565b82610c57565b610664576040517f08c379a000000000000000000000000000000000000000000000000000000000815260040161065b90612090565b60405180910390fd5b61066f838383610cec565b505050565b606060076000838152602001908152602001600020805461069490611ec8565b80601f01602080910402602001604051908101604052809291908181526020018280546106c090611ec8565b801561070d5780601f106106e25761010080835404028352916020019161070d565b820191906000526020600020905b8154815290600101906020018083116106f057829003601f168201915b50505050509050919050565b6107348383836040518060200160405280600081525061094b565b505050565b6000806002600084815260200190815260200160002060009054906101000a900473ffffffffffffffffffffffffffffffffffffffff169050600073ffffffffffffffffffffffffffffffffffffffff168173ffffffffffffffffffffffffffffffffffffffff1614156107e2576040517f08c379a00000000000000000000000000000000000000000000000000000000081526004016107d9906120fc565b60405180910390fd5b80915050919050565b60008073ffffffffffffffffffffffffffffffffffffffff168273ffffffffffffffffffffffffffffffffffffffff16141561085c576040517f08c379a00000000000000000000000000000000000000000000000000000000081526004016108539061218e565b60405180910390fd5b600360008373ffffffffffffffffffffffffffffffffffffffff1673ffffffffffffffffffffffffffffffffffffffff168152602001908152602001600020549050919050565b6060600180546108b290611ec8565b80601f01602080910402602001604051908101604052809291908181526020018280546108de90611ec8565b801561092b5780601f106109005761010080835404028352916020019161092b565b820191906000526020600020905b81548152906001019060200180831161090e57829003601f168201915b5050505050905090565b610947610940610b96565b8383610f53565b5050565b61095c610956610b96565b83610c57565b61099b576040517f08c379a000000000000000000000000000000000000000000000000000000000815260040161099290612090565b60405180910390fd5b6109a7848484846110c0565b50505050565b60606109b882610b4b565b60006109c261111c565b905060008151116109e25760405180602001604052806000815250610a0d565b806109ec84611133565b6040516020016109fd9291906121ea565b6040516020818303038152906040525b915050919050565b6000610a216006611294565b6000610a2d60066112aa565b9050610a3984826112b8565b610a438184611492565b8091505092915050565b6000600560008473ffffffffffffffffffffffffffffffffffffffff1673ffffffffffffffffffffffffffffffffffffffff16815260200190815260200160002060008373ffffffffffffffffffffffffffffffffffffffff1673ffffffffffffffffffffffffffffffffffffffff16815260200190815260200160002060009054906101000a900460ff16905092915050565b60007f01ffc9a7000000000000000000000000000000000000000000000000000000007bffffffffffffffffffffffffffffffffffffffffffffffffffffffff1916827bffffffffffffffffffffffffffffffffffffffffffffffffffffffff1916149050919050565b610b5481611506565b610b93576040517f08c379a0000000000000000000000000000000000000000000000000000000008152600401610b8a906120fc565b60405180910390fd5b50565b600033905090565b816004600083815260200190815260200160002060006101000a81548173ffffffffffffffffffffffffffffffffffffffff021916908373ffffffffffffffffffffffffffffffffffffffff160217905550808273ffffffffffffffffffffffffffffffffffffffff16610c1183610739565b73ffffffffffffffffffffffffffffffffffffffff167f8c5be1e5ebec7d5bd14f71427d1e84f3dd0314c0f7b2291e5b200ac8c7c3b92560405160405180910390a45050565b600080610c6383610739565b90508073ffffffffffffffffffffffffffffffffffffffff168473ffffffffffffffffffffffffffffffffffffffff161480610ca55750610ca48185610a4d565b5b80610ce357508373ffffffffffffffffffffffffffffffffffffffff16610ccb846104b6565b73ffffffffffffffffffffffffffffffffffffffff16145b91505092915050565b8273ffffffffffffffffffffffffffffffffffffffff16610d0c82610739565b73ffffffffffffffffffffffffffffffffffffffff1614610d62576040517f08c379a0000000000000000000000000000000000000000000000000000000008152600401610d5990612280565b60405180910390fd5b600073ffffffffffffffffffffffffffffffffffffffff168273ffffffffffffffffffffffffffffffffffffffff161415610dd2576040517f08c379a0000000000000000000000000000000000000000000000000000000008152600401610dc990612312565b60405180910390fd5b610ddd838383611572565b610de8600082610b9e565b6001600360008573ffffffffffffffffffffffffffffffffffffffff1673ffffffffffffffffffffffffffffffffffffffff1681526020019081526020016000206000828254610e389190612361565b925050819055506001600360008473ffffffffffffffffffffffffffffffffffffffff1673ffffffffffffffffffffffffffffffffffffffff1681526020019081526020016000206000828254610e8f9190612395565b92505081905550816002600083815260200190815260200160002060006101000a81548173ffffffffffffffffffffffffffffffffffffffff021916908373ffffffffffffffffffffffffffffffffffffffff160217905550808273ffffffffffffffffffffffffffffffffffffffff168473ffffffffffffffffffffffffffffffffffffffff167fddf252ad1be2c89b69c2b068fc378daa952ba7f163c4a11628f55a4df523b3ef60405160405180910390a4610f4e838383611577565b505050565b8173ffffffffffffffffffffffffffffffffffffffff168373ffffffffffffffffffffffffffffffffffffffff161415610fc2576040517f08c379a0000000000000000000000000000000000000000000000000000000008152600401610fb990612437565b60405180910390fd5b80600560008573ffffffffffffffffffffffffffffffffffffffff1673ffffffffffffffffffffffffffffffffffffffff16815260200190815260200160002060008473ffffffffffffffffffffffffffffffffffffffff1673ffffffffffffffffffffffffffffffffffffffff16815260200190815260200160002060006101000a81548160ff0219169083151502179055508173ffffffffffffffffffffffffffffffffffffffff168373ffffffffffffffffffffffffffffffffffffffff167f17307eab39ab6107e8899845ad3d59bd9653f200f220920489ca2b5937696c31836040516110b3919061188d565b60405180910390a3505050565b6110cb848484610cec565b6110d78484848461157c565b611116576040517f08c379a000000000000000000000000000000000000000000000000000000000815260040161110d906124c9565b60405180910390fd5b50505050565b606060405180602001604052806000815250905090565b6060600082141561117b576040518060400160405280600181526020017f3000000000000000000000000000000000000000000000000000000000000000815250905061128f565b600082905060005b600082146111ad578080611196906124e9565b915050600a826111a69190612561565b9150611183565b60008167ffffffffffffffff8111156111c9576111c8611bae565b5b6040519080825280601f01601f1916602001820160405280156111fb5781602001600182028036833780820191505090505b5090505b60008514611288576001826112149190612361565b9150600a856112239190612592565b603061122f9190612395565b60f81b818381518110611245576112446125c3565b5b60200101907effffffffffffffffffffffffffffffffffffffffffffffffffffffffffffff1916908160001a905350600a856112819190612561565b94506111ff565b8093505050505b919050565b6001816000016000828254019250508190555050565b600081600001549050919050565b600073ffffffffffffffffffffffffffffffffffffffff168273ffffffffffffffffffffffffffffffffffffffff161415611328576040517f08c379a000000000000000000000000000000000000000000000000000000000815260040161131f9061263e565b60405180910390fd5b61133181611506565b15611371576040517f08c379a0000000000000000000000000000000000000000000000000000000008152600401611368906126aa565b60405180910390fd5b61137d60008383611572565b6001600360008473ffffffffffffffffffffffffffffffffffffffff1673ffffffffffffffffffffffffffffffffffffffff16815260200190815260200160002060008282546113cd9190612395565b92505081905550816002600083815260200190815260200160002060006101000a81548173ffffffffffffffffffffffffffffffffffffffff021916908373ffffffffffffffffffffffffffffffffffffffff160217905550808273ffffffffffffffffffffffffffffffffffffffff16600073ffffffffffffffffffffffffffffffffffffffff167fddf252ad1be2c89b69c2b068fc378daa952ba7f163c4a11628f55a4df523b3ef60405160405180910390a461148e60008383611577565b5050565b61149b82611506565b6114da576040517f08c379a00000000000000000000000000000000000000000000000000000000081526004016114d19061273c565b60405180910390fd5b80600760008481526020019081526020016000209080519060200190611501929190611736565b505050565b60008073ffffffffffffffffffffffffffffffffffffffff166002600084815260200190815260200160002060009054906101000a900473ffffffffffffffffffffffffffffffffffffffff1673ffffffffffffffffffffffffffffffffffffffff1614159050919050565b505050565b505050565b600061159d8473ffffffffffffffffffffffffffffffffffffffff16611713565b15611706578373ffffffffffffffffffffffffffffffffffffffff1663150b7a026115c6610b96565b8786866040518563ffffffff1660e01b81526004016115e894939291906127b1565b602060405180830381600087803b15801561160257600080fd5b505af192505050801561163357506040513d601f19601f820116820180604052508101906116309190612812565b60015b6116b6573d8060008114611663576040519150601f19603f3d011682016040523d82523d6000602084013e611668565b606091505b506000815114156116ae576040517f08c379a00000000000000000000000000000000000000000000000000000000081526004016116a5906124c9565b60405180910390fd5b805181602001fd5b63150b7a0260e01b7bffffffffffffffffffffffffffffffffffffffffffffffffffffffff1916817bffffffffffffffffffffffffffffffffffffffffffffffffffffffff19161491505061170b565b600190505b949350505050565b6000808273ffffffffffffffffffffffffffffffffffffffff163b119050919050565b82805461174290611ec8565b90600052602060002090601f01602090048101928261176457600085556117ab565b82601f1061177d57805160ff19168380011785556117ab565b828001600101855582156117ab579182015b828111156117aa57825182559160200191906001019061178f565b5b5090506117b891906117bc565b5090565b5b808211156117d55760008160009055506001016117bd565b5090565b6000604051905090565b600080fd5b600080fd5b60007fffffffff0000000000000000000000000000000000000000000000000000000082169050919050565b611822816117ed565b811461182d57600080fd5b50565b60008135905061183f81611819565b92915050565b60006020828403121561185b5761185a6117e3565b5b600061186984828501611830565b91505092915050565b60008115159050919050565b61188781611872565b82525050565b60006020820190506118a2600083018461187e565b92915050565b600081519050919050565b600082825260208201905092915050565b60005b838110156118e25780820151818401526020810190506118c7565b838111156118f1576000848401525b50505050565b6000601f19601f8301169050919050565b6000611913826118a8565b61191d81856118b3565b935061192d8185602086016118c4565b611936816118f7565b840191505092915050565b6000602082019050818103600083015261195b8184611908565b905092915050565b6000819050919050565b61197681611963565b811461198157600080fd5b50565b6000813590506119938161196d565b92915050565b6000602082840312156119af576119ae6117e3565b5b60006119bd84828501611984565b91505092915050565b600073ffffffffffffffffffffffffffffffffffffffff82169050919050565b60006119f1826119c6565b9050919050565b611a01816119e6565b82525050565b6000602082019050611a1c60008301846119f8565b92915050565b611a2b816119e6565b8114611a3657600080fd5b50565b600081359050611a4881611a22565b92915050565b60008060408385031215611a6557611a646117e3565b5b6000611a7385828601611a39565b9250506020611a8485828601611984565b9150509250929050565b600080600060608486031215611aa757611aa66117e3565b5b6000611ab586828701611a39565b9350506020611ac686828701611a39565b9250506040611ad786828701611984565b9150509250925092565b600060208284031215611af757611af66117e3565b5b6000611b0584828501611a39565b91505092915050565b611b1781611963565b82525050565b6000602082019050611b326000830184611b0e565b92915050565b611b4181611872565b8114611b4c57600080fd5b50565b600081359050611b5e81611b38565b92915050565b60008060408385031215611b7b57611b7a6117e3565b5b6000611b8985828601611a39565b9250506020611b9a85828601611b4f565b9150509250929050565b600080fd5b600080fd5b7f4e487b7100000000000000000000000000000000000000000000000000000000600052604160045260246000fd5b611be6826118f7565b810181811067ffffffffffffffff82111715611c0557611c04611bae565b5b80604052505050565b6000611c186117d9565b9050611c248282611bdd565b919050565b600067ffffffffffffffff821115611c4457611c43611bae565b5b611c4d826118f7565b9050602081019050919050565b82818337600083830152505050565b6000611c7c611c7784611c29565b611c0e565b905082815260208101848484011115611c9857611c97611ba9565b5b611ca3848285611c5a565b509392505050565b600082601f830112611cc057611cbf611ba4565b5b8135611cd0848260208601611c69565b91505092915050565b60008060008060808587031215611cf357611cf26117e3565b5b6000611d0187828801611a39565b9450506020611d1287828801611a39565b9350506040611d2387828801611984565b925050606085013567ffffffffffffffff811115611d4457611d436117e8565b5b611d5087828801611cab565b91505092959194509250565b600067ffffffffffffffff821115611d7757611d76611bae565b5b611d80826118f7565b9050602081019050919050565b6000611da0611d9b84611d5c565b611c0e565b905082815260208101848484011115611dbc57611dbb611ba9565b5b611dc7848285611c5a565b509392505050565b600082601f830112611de457611de3611ba4565b5b8135611df4848260208601611d8d565b91505092915050565b60008060408385031215611e1457611e136117e3565b5b6000611e2285828601611a39565b925050602083013567ffffffffffffffff811115611e4357611e426117e8565b5b611e4f85828601611dcf565b9150509250929050565b60008060408385031215611e7057611e6f6117e3565b5b6000611e7e85828601611a39565b9250506020611e8f85828601611a39565b9150509250929050565b7f4e487b7100000000000000000000000000000000000000000000000000000000600052602260045260246000fd5b60006002820490506001821680611ee057607f821691505b60208210811415611ef457611ef3611e99565b5b50919050565b7f4552433732313a20617070726f76616c20746f2063757272656e74206f776e6560008201527f7200000000000000000000000000000000000000000000000000000000000000602082015250565b6000611f566021836118b3565b9150611f6182611efa565b604082019050919050565b60006020820190508181036000830152611f8581611f49565b9050919050565b7f4552433732313a20617070726f76652063616c6c6572206973206e6f7420746f60008201527f6b656e206f776e6572206e6f7220617070726f76656420666f7220616c6c0000602082015250565b6000611fe8603e836118b3565b9150611ff382611f8c565b604082019050919050565b6000602082019050818103600083015261201781611fdb565b9050919050565b7f4552433732313a2063616c6c6572206973206e6f7420746f6b656e206f776e6560008201527f72206e6f7220617070726f766564000000000000000000000000000000000000602082015250565b600061207a602e836118b3565b91506120858261201e565b604082019050919050565b600060208201905081810360008301526120a98161206d565b9050919050565b7f4552433732313a20696e76616c696420746f6b656e2049440000000000000000600082015250565b60006120e66018836118b3565b91506120f1826120b0565b602082019050919050565b60006020820190508181036000830152612115816120d9565b9050919050565b7f4552433732313a2061646472657373207a65726f206973206e6f74206120766160008201527f6c6964206f776e65720000000000000000000000000000000000000000000000602082015250565b60006121786029836118b3565b91506121838261211c565b604082019050919050565b600060208201905081810360008301526121a78161216b565b9050919050565b600081905092915050565b60006121c4826118a8565b6121ce81856121ae565b93506121de8185602086016118c4565b80840191505092915050565b60006121f682856121b9565b915061220282846121b9565b91508190509392505050565b7f4552433732313a207472616e736665722066726f6d20696e636f72726563742060008201527f6f776e6572000000000000000000000000000000000000000000000000000000602082015250565b600061226a6025836118b3565b91506122758261220e565b604082019050919050565b600060208201905081810360008301526122998161225d565b9050919050565b7f4552433732313a207472616e7366657220746f20746865207a65726f2061646460008201527f7265737300000000000000000000000000000000000000000000000000000000602082015250565b60006122fc6024836118b3565b9150612307826122a0565b604082019050919050565b6000602082019050818103600083015261232b816122ef565b9050919050565b7f4e487b7100000000000000000000000000000000000000000000000000000000600052601160045260246000fd5b600061236c82611963565b915061237783611963565b92508282101561238a57612389612332565b5b828203905092915050565b60006123a082611963565b91506123ab83611963565b9250827fffffffffffffffffffffffffffffffffffffffffffffffffffffffffffffffff038211156123e0576123df612332565b5b828201905092915050565b7f4552433732313a20617070726f766520746f2063616c6c657200000000000000600082015250565b60006124216019836118b3565b915061242c826123eb565b602082019050919050565b6000602082019050818103600083015261245081612414565b9050919050565b7f4552433732313a207472616e7366657220746f206e6f6e20455243373231526560008201527f63656976657220696d706c656d656e7465720000000000000000000000000000602082015250565b60006124b36032836118b3565b91506124be82612457565b604082019050919050565b600060208201905081810360008301526124e2816124a6565b9050919050565b60006124f482611963565b91507fffffffffffffffffffffffffffffffffffffffffffffffffffffffffffffffff82141561252757612526612332565b5b600182019050919050565b7f4e487b7100000000000000000000000000000000000000000000000000000000600052601260045260246000fd5b600061256c82611963565b915061257783611963565b92508261258757612586612532565b5b828204905092915050565b600061259d82611963565b91506125a883611963565b9250826125b8576125b7612532565b5b828206905092915050565b7f4e487b7100000000000000000000000000000000000000000000000000000000600052603260045260246000fd5b7f4552433732313a206d696e7420746f20746865207a65726f2061646472657373600082015250565b60006126286020836118b3565b9150612633826125f2565b602082019050919050565b600060208201905081810360008301526126578161261b565b9050919050565b7f4552433732313a20746f6b656e20616c7265616479206d696e74656400000000600082015250565b6000612694601c836118b3565b915061269f8261265e565b602082019050919050565b600060208201905081810360008301526126c381612687565b9050919050565b7f4552433732314d657461646174613a2055524920736574206f66206e6f6e657860008201527f697374656e7420746f6b656e0000000000000000000000000000000000000000602082015250565b6000612726602c836118b3565b9150612731826126ca565b604082019050919050565b6000602082019050818103600083015261275581612719565b9050919050565b600081519050919050565b600082825260208201905092915050565b60006127838261275c565b61278d8185612767565b935061279d8185602086016118c4565b6127a6816118f7565b840191505092915050565b60006080820190506127c660008301876119f8565b6127d360208301866119f8565b6127e06040830185611b0e565b81810360608301526127f28184612778565b905095945050505050565b60008151905061280c81611819565b92915050565b600060208284031215612828576128276117e3565b5b6000612836848285016127fd565b9150509291505056fea26469706673582212202b84c374279726b53e47bb895f5aef3bfc1df6ef84ea7c631d77f48db6ebb8b364736f6c63430008090033",
  "linkReferences": {},
  "deployedLinkReferences": {}
}