{
  "_format": "hh-sol-artifact-1",
  "contractName": "StudentSocietyDAO",
  "sourceName": "contracts/StudentSocietyDAO.sol",
  "abi": [
    {
      "inputs": [],
      "stateMutability": "nonpayable",
      "type": "constructor"
    },
    {
      "anonymous": false,
      "inputs": [
        {
          "indexed": false,
          "internalType": "uint32",
          "name": "proposalIndex",
          "type": "uint32"
        }
      ],
      "name": "ProposalApproved",
      "type": "event"
    },
    {
      "anonymous": false,
      "inputs": [
        {
          "indexed": false,
          "internalType": "uint32",
          "name": "proposalIndex",
          "type": "uint32"
        }
      ],
      "name": "ProposalInitiated",
      "type": "event"
    },
    {
      "anonymous": false,
      "inputs": [
        {
          "indexed": false,
          "internalType": "uint32",
          "name": "proposalIndex",
          "type": "uint32"
        }
      ],
      "name": "ProposalNotApproved",
      "type": "event"
    },
    {
      "anonymous": false,
      "inputs": [
        {
          "indexed": false,
          "internalType": "address",
          "name": "voter",
          "type": "address"
        },
        {
          "indexed": false,
          "internalType": "uint32",
          "name": "proposalIndex",
          "type": "uint32"
        },
        {
          "indexed": false,
          "internalType": "bool",
          "name": "choice",
          "type": "bool"
        }
      ],
      "name": "ProposalVoted",
      "type": "event"
    },
    {
      "anonymous": false,
      "inputs": [
        {
          "indexed": false,
          "internalType": "address",
          "name": "voter",
          "type": "address"
        },
        {
          "indexed": false,
          "internalType": "uint32",
          "name": "proposalIndex",
          "type": "uint32"
        }
      ],
      "name": "ProposalVotedAnonymously",
      "type": "event"
    },
    {
      "anonymous": false,
      "inputs": [
        {
          "indexed": false,
          "internalType": "address",
          "name": "player",
          "type": "address"
        },
        {
          "indexed": false,
          "internalType": "uint256",
          "name": "id",
          "type": "uint256"
        }
      ],
      "name": "haveSouvenir",
      "type": "event"
    },
    {
      "inputs": [],
      "name": "INIT_TOKEN",
      "outputs": [
        {
          "internalType": "uint256",
          "name": "",
          "type": "uint256"
        }
      ],
      "stateMutability": "view",
      "type": "function"
    },
    {
      "inputs": [],
      "name": "PROPOSAL_REWARD",
      "outputs": [
        {
          "internalType": "uint256",
          "name": "",
          "type": "uint256"
        }
      ],
      "stateMutability": "view",
      "type": "function"
    },
    {
      "inputs": [],
      "name": "PROPOSAL_TOKEN",
      "outputs": [
        {
          "internalType": "uint256",
          "name": "",
          "type": "uint256"
        }
      ],
      "stateMutability": "view",
      "type": "function"
    },
    {
      "inputs": [],
      "name": "VOTE_TOKEN",
      "outputs": [
        {
          "internalType": "uint256",
          "name": "",
          "type": "uint256"
        }
      ],
      "stateMutability": "view",
      "type": "function"
    },
    {
      "inputs": [],
      "name": "checkProposals",
      "outputs": [],
      "stateMutability": "nonpayable",
      "type": "function"
    },
    {
      "inputs": [
        {
          "internalType": "uint256",
          "name": "startTime",
          "type": "uint256"
        },
        {
          "internalType": "uint256",
          "name": "duration",
          "type": "uint256"
        },
        {
          "internalType": "string",
          "name": "name",
          "type": "string"
        },
        {
          "internalType": "bool",
          "name": "isSecret",
          "type": "bool"
        }
      ],
      "name": "createProposal",
      "outputs": [
        {
          "internalType": "string",
          "name": "",
          "type": "string"
        }
      ],
      "stateMutability": "nonpayable",
      "type": "function"
    },
    {
      "inputs": [],
      "name": "getFreeToken",
      "outputs": [],
      "stateMutability": "nonpayable",
      "type": "function"
    },
    {
      "inputs": [],
      "name": "getIndex",
      "outputs": [
        {
          "internalType": "uint32",
          "name": "",
          "type": "uint32"
        }
      ],
      "stateMutability": "view",
      "type": "function"
    },
    {
      "inputs": [
        {
          "internalType": "address",
          "name": "account",
          "type": "address"
        }
      ],
      "name": "getMySouvenir",
      "outputs": [
        {
          "internalType": "string",
          "name": "",
          "type": "string"
        }
      ],
      "stateMutability": "view",
      "type": "function"
    },
    {
      "inputs": [
        {
          "internalType": "uint32",
          "name": "index",
          "type": "uint32"
        }
      ],
      "name": "getProposal",
      "outputs": [
        {
          "components": [
            {
              "internalType": "uint32",
              "name": "index",
              "type": "uint32"
            },
            {
              "internalType": "address",
              "name": "proposer",
              "type": "address"
            },
            {
              "internalType": "uint256",
              "name": "startTime",
              "type": "uint256"
            },
            {
              "internalType": "uint256",
              "name": "duration",
              "type": "uint256"
            },
            {
              "internalType": "string",
              "name": "name",
              "type": "string"
            },
            {
              "internalType": "bool",
              "name": "isSecret",
              "type": "bool"
            },
            {
              "internalType": "int32",
              "name": "isDone",
              "type": "int32"
            }
          ],
          "internalType": "struct StudentSocietyDAO.Proposal",
          "name": "",
          "type": "tuple"
        }
      ],
      "stateMutability": "view",
      "type": "function"
    },
    {
      "inputs": [
        {
          "internalType": "address",
          "name": "account",
          "type": "address"
        }
      ],
      "name": "getisInited",
      "outputs": [
        {
          "internalType": "bool",
          "name": "",
          "type": "bool"
        }
      ],
      "stateMutability": "view",
      "type": "function"
    },
    {
      "inputs": [
        {
          "internalType": "uint256",
          "name": "",
          "type": "uint256"
        }
      ],
      "name": "members",
      "outputs": [
        {
          "internalType": "address",
          "name": "",
          "type": "address"
        }
      ],
      "stateMutability": "view",
      "type": "function"
    },
    {
      "inputs": [
        {
          "internalType": "uint32",
          "name": "",
          "type": "uint32"
        }
      ],
      "name": "proposals",
      "outputs": [
        {
          "internalType": "uint32",
          "name": "index",
          "type": "uint32"
        },
        {
          "internalType": "address",
          "name": "proposer",
          "type": "address"
        },
        {
          "internalType": "uint256",
          "name": "startTime",
          "type": "uint256"
        },
        {
          "internalType": "uint256",
          "name": "duration",
          "type": "uint256"
        },
        {
          "internalType": "string",
          "name": "name",
          "type": "string"
        },
        {
          "internalType": "bool",
          "name": "isSecret",
          "type": "bool"
        },
        {
          "internalType": "int32",
          "name": "isDone",
          "type": "int32"
        }
      ],
      "stateMutability": "view",
      "type": "function"
    },
    {
      "inputs": [],
      "name": "souvenir",
      "outputs": [
        {
          "internalType": "contract MyERC721",
          "name": "",
          "type": "address"
        }
      ],
      "stateMutability": "view",
      "type": "function"
    },
    {
      "inputs": [],
      "name": "studentERC20",
      "outputs": [
        {
          "internalType": "contract MyERC20",
          "name": "",
          "type": "address"
        }
      ],
      "stateMutability": "view",
      "type": "function"
    },
    {
      "inputs": [
        {
          "internalType": "uint32",
          "name": "index",
          "type": "uint32"
        },
        {
          "internalType": "bool",
          "name": "choice",
          "type": "bool"
        }
      ],
      "name": "vote",
      "outputs": [
        {
          "internalType": "string",
          "name": "",
          "type": "string"
        }
      ],
      "stateMutability": "nonpayable",
      "type": "function"
    }
  ],
  "bytecode": "0x60806040526000600560006101000a81548163ffffffff021916908363ffffffff1602179055503480156200003357600080fd5b50604051620000429062000128565b6200004d90620001f5565b604051809103906000f0801580156200006a573d6000803e3d6000fd5b50600760006101000a81548173ffffffffffffffffffffffffffffffffffffffff021916908373ffffffffffffffffffffffffffffffffffffffff160217905550604051620000b99062000136565b620000c490620002cc565b604051809103906000f080158015620000e1573d6000803e3d6000fd5b50600860006101000a81548173ffffffffffffffffffffffffffffffffffffffff021916908373ffffffffffffffffffffffffffffffffffffffff16021790555062000303565b6119588062002f9f83390190565b612c3180620048f783390190565b600082825260208201905092915050565b7f4b6974616b756275546f6b656e00000000000000000000000000000000000000600082015250565b60006200018d600d8362000144565b91506200019a8262000155565b602082019050919050565b7f4b54430000000000000000000000000000000000000000000000000000000000600082015250565b6000620001dd60038362000144565b9150620001ea82620001a5565b602082019050919050565b6000604082019050818103600083015262000210816200017e565b905081810360208301526200022581620001ce565b9050919050565b7f536f7576656e6972000000000000000000000000000000000000000000000000600082015250565b60006200026460088362000144565b915062000271826200022c565b602082019050919050565b7f5356520000000000000000000000000000000000000000000000000000000000600082015250565b6000620002b460038362000144565b9150620002c1826200027c565b602082019050919050565b60006040820190508181036000830152620002e78162000255565b90508181036020830152620002fc81620002a5565b9050919050565b612c8c80620003136000396000f3fe608060405234801561001057600080fd5b50600436106101005760003560e01c806377cfd551116100975780639a954af9116100665780639a954af9146102df578063bce97c3f146102e9578063c72fca9914610319578063ccb18ad71461033757610100565b806377cfd5511461025557806381045ead146102855780638e1283f4146102a357806394928873146102c157610100565b806346230d04116100d357806346230d04146101b95780635535b7a4146101d75780635daf08ca146102075780636c3fbb2d1461023757610100565b8063114f00ab146101055780631e4ea779146101355780632a4910ab146101535780634588a2b714610189575b600080fd5b61011f600480360381019061011a919061203f565b610341565b60405161012c9190612241565b60405180910390f35b61013d6104d4565b60405161014a9190612272565b60405180910390f35b61016d6004803603810190610168919061203f565b6104d9565b6040516101809796959493929190612313565b60405180910390f35b6101a3600480360381019061019e91906123b5565b6105ed565b6040516101b091906123e2565b60405180910390f35b6101c16106e5565b6040516101ce9190612463565b60405180910390f35b6101f160048036038101906101ec91906123b5565b61070b565b6040516101fe919061247e565b60405180910390f35b610221600480360381019061021c91906124c5565b610761565b60405161022e91906124f2565b60405180910390f35b61023f6107a0565b60405161024c919061252e565b60405180910390f35b61026f600480360381019061026a9190612575565b6107c6565b60405161027c91906123e2565b60405180910390f35b61028d610cea565b60405161029a91906125b5565b60405180910390f35b6102ab610d04565b6040516102b89190612272565b60405180910390f35b6102c9610d0a565b6040516102d69190612272565b60405180910390f35b6102e7610d10565b005b61030360048036038101906102fe9190612705565b610ff8565b60405161031091906123e2565b60405180910390f35b6103216115f0565b60405161032e9190612272565b60405180910390f35b61033f6115f6565b005b610349611e61565b600960008363ffffffff1663ffffffff1681526020019081526020016000206040518060e00160405290816000820160009054906101000a900463ffffffff1663ffffffff1663ffffffff1681526020016000820160049054906101000a900473ffffffffffffffffffffffffffffffffffffffff1673ffffffffffffffffffffffffffffffffffffffff1673ffffffffffffffffffffffffffffffffffffffff1681526020016001820154815260200160028201548152602001600382018054610413906127b7565b80601f016020809104026020016040519081016040528092919081815260200182805461043f906127b7565b801561048c5780601f106104615761010080835404028352916020019161048c565b820191906000526020600020905b81548152906001019060200180831161046f57829003601f168201915b505050505081526020016004820160009054906101000a900460ff161515151581526020016004820160019054906101000a900460030b60030b60030b815250509050919050565b606481565b60096020528060005260406000206000915090508060000160009054906101000a900463ffffffff16908060000160049054906101000a900473ffffffffffffffffffffffffffffffffffffffff1690806001015490806002015490806003018054610544906127b7565b80601f0160208091040260200160405190810160405280929190818152602001828054610570906127b7565b80156105bd5780601f10610592576101008083540402835291602001916105bd565b820191906000526020600020905b8154815290600101906020018083116105a057829003601f168201915b5050505050908060040160009054906101000a900460ff16908060040160019054906101000a900460030b905087565b6060600860009054906101000a900473ffffffffffffffffffffffffffffffffffffffff1673ffffffffffffffffffffffffffffffffffffffff16633bb3a24d600e60008573ffffffffffffffffffffffffffffffffffffffff1673ffffffffffffffffffffffffffffffffffffffff168152602001908152602001600020546040518263ffffffff1660e01b81526004016106899190612272565b60006040518083038186803b1580156106a157600080fd5b505afa1580156106b5573d6000803e3d6000fd5b505050506040513d6000823e3d601f19601f820116820180604052508101906106de9190612859565b9050919050565b600860009054906101000a900473ffffffffffffffffffffffffffffffffffffffff1681565b6000600d60008373ffffffffffffffffffffffffffffffffffffffff1673ffffffffffffffffffffffffffffffffffffffff16815260200190815260200160002060009054906101000a900460ff169050919050565b6006818154811061077157600080fd5b906000526020600020016000915054906101000a900473ffffffffffffffffffffffffffffffffffffffff1681565b600760009054906101000a900473ffffffffffffffffffffffffffffffffffffffff1681565b6060600960008463ffffffff1663ffffffff168152602001908152602001600020600080820160009054906101000a900463ffffffff168160000160006101000a81548163ffffffff021916908363ffffffff1602179055506000820160049054906101000a900473ffffffffffffffffffffffffffffffffffffffff168160000160046101000a81548173ffffffffffffffffffffffffffffffffffffffff021916908373ffffffffffffffffffffffffffffffffffffffff160217905550600182015481600101556002820154816002015560038201816003019080546108ae906127b7565b6108b9929190611ebf565b506004820160009054906101000a900460ff168160040160006101000a81548160ff0219169083151502179055506004820160019054906101000a900460030b8160040160016101000a81548163ffffffff021916908360030b63ffffffff160217905550905050600060010154421015801561094a575060006002015460006001015461094791906128d1565b42105b610989576040517f08c379a000000000000000000000000000000000000000000000000000000000815260040161098090612973565b60405180910390fd5b6064600760009054906101000a900473ffffffffffffffffffffffffffffffffffffffff1673ffffffffffffffffffffffffffffffffffffffff166370a08231336040518263ffffffff1660e01b81526004016109e691906124f2565b60206040518083038186803b1580156109fe57600080fd5b505afa158015610a12573d6000803e3d6000fd5b505050506040513d601f19601f82011682018060405250810190610a3691906129a8565b1015610a77576040517f08c379a0000000000000000000000000000000000000000000000000000000008152600401610a6e90612a21565b60405180910390fd5b600760009054906101000a900473ffffffffffffffffffffffffffffffffffffffff1673ffffffffffffffffffffffffffffffffffffffff166323b872dd333060646040518463ffffffff1660e01b8152600401610ad793929190612a41565b602060405180830381600087803b158015610af157600080fd5b505af1158015610b05573d6000803e3d6000fd5b505050506040513d601f19601f82011682018060405250810190610b299190612a8d565b508115610ba757600a60008060000160009054906101000a900463ffffffff1663ffffffff1663ffffffff168152602001908152602001600020600081819054906101000a900463ffffffff1680929190610b8390612aba565b91906101000a81548163ffffffff021916908363ffffffff16021790555050610c1a565b600b60008060000160009054906101000a900463ffffffff1663ffffffff1663ffffffff168152602001908152602001600020600081819054906101000a900463ffffffff1680929190610bfa90612aba565b91906101000a81548163ffffffff021916908363ffffffff160217905550505b600060040160009054906101000a900460ff1615610c70577f0a81919561b87c9c25dbdd3545f9731ec76d273953668cd4c1bdfa08d9d7caea3384604051610c63929190612ae7565b60405180910390a1610cac565b7fe140f0e707f65852d56a84a9201e334bbf7036488596c31643ef709b2fa9d123338484604051610ca393929190612b10565b60405180910390a15b6040518060400160405280600c81526020017f566f746520737563636573730000000000000000000000000000000000000000815250905092915050565b6000600560009054906101000a900463ffffffff16905090565b6103e881565b6101f481565b600d60003373ffffffffffffffffffffffffffffffffffffffff1673ffffffffffffffffffffffffffffffffffffffff16815260200190815260200160002060009054906101000a900460ff1615610d9d576040517f08c379a0000000000000000000000000000000000000000000000000000000008152600401610d9490612b93565b60405180910390fd5b6006339080600181540180825580915050600190039060005260206000200160009091909190916101000a81548173ffffffffffffffffffffffffffffffffffffffff021916908373ffffffffffffffffffffffffffffffffffffffff1602179055506000600c60003373ffffffffffffffffffffffffffffffffffffffff1673ffffffffffffffffffffffffffffffffffffffff16815260200190815260200160002060006101000a81548163ffffffff021916908363ffffffff1602179055506001600d60003373ffffffffffffffffffffffffffffffffffffffff1673ffffffffffffffffffffffffffffffffffffffff16815260200190815260200160002060006101000a81548160ff021916908315150217905550600760009054906101000a900473ffffffffffffffffffffffffffffffffffffffff1673ffffffffffffffffffffffffffffffffffffffff1663a9059cbb336103e86040518363ffffffff1660e01b8152600401610f16929190612bb3565b602060405180830381600087803b158015610f3057600080fd5b505af1158015610f44573d6000803e3d6000fd5b505050506040513d601f19601f82011682018060405250810190610f689190612a8d565b50600760009054906101000a900473ffffffffffffffffffffffffffffffffffffffff1673ffffffffffffffffffffffffffffffffffffffff16633e5beab9336040518263ffffffff1660e01b8152600401610fc491906124f2565b600060405180830381600087803b158015610fde57600080fd5b505af1158015610ff2573d6000803e3d6000fd5b50505050565b60606101f4600760009054906101000a900473ffffffffffffffffffffffffffffffffffffffff1673ffffffffffffffffffffffffffffffffffffffff166370a08231336040518263ffffffff1660e01b815260040161105891906124f2565b60206040518083038186803b15801561107057600080fd5b505afa158015611084573d6000803e3d6000fd5b505050506040513d601f19601f820116820180604052508101906110a891906129a8565b10156110e9576040517f08c379a00000000000000000000000000000000000000000000000000000000081526004016110e090612a21565b60405180910390fd5b6040518060e00160405280600560009054906101000a900463ffffffff1663ffffffff1681526020013373ffffffffffffffffffffffffffffffffffffffff16815260200186815260200185815260200184815260200183151581526020017fffffffffffffffffffffffffffffffffffffffffffffffffffffffffffffffff60030b8152506000808201518160000160006101000a81548163ffffffff021916908363ffffffff16021790555060208201518160000160046101000a81548173ffffffffffffffffffffffffffffffffffffffff021916908373ffffffffffffffffffffffffffffffffffffffff1602179055506040820151816001015560608201518160020155608082015181600301908051906020019061120e929190611f4c565b5060a08201518160040160006101000a81548160ff02191690831515021790555060c08201518160040160016101000a81548163ffffffff021916908360030b63ffffffff160217905550905050600760009054906101000a900473ffffffffffffffffffffffffffffffffffffffff1673ffffffffffffffffffffffffffffffffffffffff166323b872dd33306101f46040518463ffffffff1660e01b81526004016112bd93929190612a41565b602060405180830381600087803b1580156112d757600080fd5b505af11580156112eb573d6000803e3d6000fd5b505050506040513d601f19601f8201168201806040525081019061130f9190612a8d565b506000600960008060000160009054906101000a900463ffffffff1663ffffffff1663ffffffff1681526020019081526020016000206000820160009054906101000a900463ffffffff168160000160006101000a81548163ffffffff021916908363ffffffff1602179055506000820160049054906101000a900473ffffffffffffffffffffffffffffffffffffffff168160000160046101000a81548173ffffffffffffffffffffffffffffffffffffffff021916908373ffffffffffffffffffffffffffffffffffffffff1602179055506001820154816001015560028201548160020155600382018160030190805461140b906127b7565b611416929190611ebf565b506004820160009054906101000a900460ff168160040160006101000a81548160ff0219169083151502179055506004820160019054906101000a900460030b8160040160016101000a81548163ffffffff021916908360030b63ffffffff1602179055509050506000600a60008060000160009054906101000a900463ffffffff1663ffffffff1663ffffffff16815260200190815260200160002060006101000a81548163ffffffff021916908363ffffffff1602179055506000600b60008060000160009054906101000a900463ffffffff1663ffffffff1663ffffffff16815260200190815260200160002060006101000a81548163ffffffff021916908363ffffffff1602179055506005600081819054906101000a900463ffffffff168092919061154690612aba565b91906101000a81548163ffffffff021916908363ffffffff160217905550507f944f5ef0a446d54c41ea39dac07de1fd2150ec3346cbff6c627d1ffba048676c6000800160009054906101000a900463ffffffff166040516115a891906125b5565b60405180910390a16040518060400160405280601781526020017f4372656174652070726f706f73616c20737563636573730000000000000000008152509050949350505050565b6103e881565b60005b600560009054906101000a900463ffffffff1663ffffffff168163ffffffff161015611e5e57600960008263ffffffff1663ffffffff168152602001908152602001600020600080820160009054906101000a900463ffffffff168160000160006101000a81548163ffffffff021916908363ffffffff1602179055506000820160049054906101000a900473ffffffffffffffffffffffffffffffffffffffff168160000160046101000a81548173ffffffffffffffffffffffffffffffffffffffff021916908373ffffffffffffffffffffffffffffffffffffffff16021790555060018201548160010155600282015481600201556003820181600301908054611705906127b7565b611710929190611ebf565b506004820160009054906101000a900460ff168160040160006101000a81548160ff0219169083151502179055506004820160019054906101000a900460030b8160040160016101000a81548163ffffffff021916908360030b63ffffffff1602179055509050507fffffffffffffffffffffffffffffffffffffffffffffffffffffffffffffffff600060040160019054906101000a900460030b60030b1480156117d057506000600201546000600101546117cd91906128d1565b42115b15611cf157600b60008060000160009054906101000a900463ffffffff1663ffffffff1663ffffffff16815260200190815260200160002060009054906101000a900463ffffffff1663ffffffff16600a60008060000160009054906101000a900463ffffffff1663ffffffff1663ffffffff16815260200190815260200160002060009054906101000a900463ffffffff1663ffffffff161115611c7d577f3730b57be3d0c31bcae4515485ee72ca588ec3203604704146cfbf14459fd8cb6000800160009054906101000a900463ffffffff166040516118b291906125b5565b60405180910390a1600c60008060000160049054906101000a900473ffffffffffffffffffffffffffffffffffffffff1673ffffffffffffffffffffffffffffffffffffffff1673ffffffffffffffffffffffffffffffffffffffff168152602001908152602001600020600081819054906101000a900463ffffffff168092919061193d90612aba565b91906101000a81548163ffffffff021916908363ffffffff16021790555050600760009054906101000a900473ffffffffffffffffffffffffffffffffffffffff1673ffffffffffffffffffffffffffffffffffffffff1663a9059cbb6000800160049054906101000a900473ffffffffffffffffffffffffffffffffffffffff166103e86040518363ffffffff1660e01b81526004016119df929190612bb3565b602060405180830381600087803b1580156119f957600080fd5b505af1158015611a0d573d6000803e3d6000fd5b505050506040513d601f19601f82011682018060405250810190611a319190612a8d565b506001600060040160016101000a81548163ffffffff021916908360030b63ffffffff1602179055506003600c60008060000160049054906101000a900473ffffffffffffffffffffffffffffffffffffffff1673ffffffffffffffffffffffffffffffffffffffff1673ffffffffffffffffffffffffffffffffffffffff16815260200190815260200160002060009054906101000a900463ffffffff1663ffffffff161415611c78576000600860009054906101000a900473ffffffffffffffffffffffffffffffffffffffff1673ffffffffffffffffffffffffffffffffffffffff1663cf3783436000800160049054906101000a900473ffffffffffffffffffffffffffffffffffffffff166040518263ffffffff1660e01b8152600401611b5d9190612c28565b602060405180830381600087803b158015611b7757600080fd5b505af1158015611b8b573d6000803e3d6000fd5b505050506040513d601f19601f82011682018060405250810190611baf91906129a8565b905080600e60008060000160049054906101000a900473ffffffffffffffffffffffffffffffffffffffff1673ffffffffffffffffffffffffffffffffffffffff1673ffffffffffffffffffffffffffffffffffffffff168152602001908152602001600020819055507f770a404e1677c793a59e7453a75de2c6c006c57a9df650f3455f12ab2701422f6000800160049054906101000a900473ffffffffffffffffffffffffffffffffffffffff1682604051611c6e929190612bb3565b60405180910390a1505b611cf0565b7faed7a8e09679f55d17f88f6fc603db93bc9f0e275dc7dae1417a942392b651af6000800160009054906101000a900463ffffffff16604051611cc091906125b5565b60405180910390a160008060040160016101000a81548163ffffffff021916908360030b63ffffffff1602179055505b5b6000600960008363ffffffff1663ffffffff1681526020019081526020016000206000820160009054906101000a900463ffffffff168160000160006101000a81548163ffffffff021916908363ffffffff1602179055506000820160049054906101000a900473ffffffffffffffffffffffffffffffffffffffff168160000160046101000a81548173ffffffffffffffffffffffffffffffffffffffff021916908373ffffffffffffffffffffffffffffffffffffffff16021790555060018201548160010155600282015481600201556003820181600301908054611dd8906127b7565b611de3929190611ebf565b506004820160009054906101000a900460ff168160040160006101000a81548160ff0219169083151502179055506004820160019054906101000a900460030b8160040160016101000a81548163ffffffff021916908360030b63ffffffff1602179055509050508080611e5690612aba565b9150506115f9565b50565b6040518060e00160405280600063ffffffff168152602001600073ffffffffffffffffffffffffffffffffffffffff168152602001600081526020016000815260200160608152602001600015158152602001600060030b81525090565b828054611ecb906127b7565b90600052602060002090601f016020900481019282611eed5760008555611f3b565b82601f10611efe5780548555611f3b565b82800160010185558215611f3b57600052602060002091601f016020900482015b82811115611f3a578254825591600101919060010190611f1f565b5b509050611f489190611fd2565b5090565b828054611f58906127b7565b90600052602060002090601f016020900481019282611f7a5760008555611fc1565b82601f10611f9357805160ff1916838001178555611fc1565b82800160010185558215611fc1579182015b82811115611fc0578251825591602001919060010190611fa5565b5b509050611fce9190611fd2565b5090565b5b80821115611feb576000816000905550600101611fd3565b5090565b6000604051905090565b600080fd5b600080fd5b600063ffffffff82169050919050565b61201c81612003565b811461202757600080fd5b50565b60008135905061203981612013565b92915050565b60006020828403121561205557612054611ff9565b5b60006120638482850161202a565b91505092915050565b61207581612003565b82525050565b600073ffffffffffffffffffffffffffffffffffffffff82169050919050565b60006120a68261207b565b9050919050565b6120b68161209b565b82525050565b6000819050919050565b6120cf816120bc565b82525050565b600081519050919050565b600082825260208201905092915050565b60005b8381101561210f5780820151818401526020810190506120f4565b8381111561211e576000848401525b50505050565b6000601f19601f8301169050919050565b6000612140826120d5565b61214a81856120e0565b935061215a8185602086016120f1565b61216381612124565b840191505092915050565b60008115159050919050565b6121838161216e565b82525050565b60008160030b9050919050565b61219f81612189565b82525050565b600060e0830160008301516121bd600086018261206c565b5060208301516121d060208601826120ad565b5060408301516121e360408601826120c6565b5060608301516121f660608601826120c6565b506080830151848203608086015261220e8282612135565b91505060a083015161222360a086018261217a565b5060c083015161223660c0860182612196565b508091505092915050565b6000602082019050818103600083015261225b81846121a5565b905092915050565b61226c816120bc565b82525050565b60006020820190506122876000830184612263565b92915050565b61229681612003565b82525050565b6122a58161209b565b82525050565b600082825260208201905092915050565b60006122c7826120d5565b6122d181856122ab565b93506122e18185602086016120f1565b6122ea81612124565b840191505092915050565b6122fe8161216e565b82525050565b61230d81612189565b82525050565b600060e082019050612328600083018a61228d565b612335602083018961229c565b6123426040830188612263565b61234f6060830187612263565b818103608083015261236181866122bc565b905061237060a08301856122f5565b61237d60c0830184612304565b98975050505050505050565b6123928161209b565b811461239d57600080fd5b50565b6000813590506123af81612389565b92915050565b6000602082840312156123cb576123ca611ff9565b5b60006123d9848285016123a0565b91505092915050565b600060208201905081810360008301526123fc81846122bc565b905092915050565b6000819050919050565b600061242961242461241f8461207b565b612404565b61207b565b9050919050565b600061243b8261240e565b9050919050565b600061244d82612430565b9050919050565b61245d81612442565b82525050565b60006020820190506124786000830184612454565b92915050565b600060208201905061249360008301846122f5565b92915050565b6124a2816120bc565b81146124ad57600080fd5b50565b6000813590506124bf81612499565b92915050565b6000602082840312156124db576124da611ff9565b5b60006124e9848285016124b0565b91505092915050565b6000602082019050612507600083018461229c565b92915050565b600061251882612430565b9050919050565b6125288161250d565b82525050565b6000602082019050612543600083018461251f565b92915050565b6125528161216e565b811461255d57600080fd5b50565b60008135905061256f81612549565b92915050565b6000806040838503121561258c5761258b611ff9565b5b600061259a8582860161202a565b92505060206125ab85828601612560565b9150509250929050565b60006020820190506125ca600083018461228d565b92915050565b600080fd5b600080fd5b7f4e487b7100000000000000000000000000000000000000000000000000000000600052604160045260246000fd5b61261282612124565b810181811067ffffffffffffffff82111715612631576126306125da565b5b80604052505050565b6000612644611fef565b90506126508282612609565b919050565b600067ffffffffffffffff8211156126705761266f6125da565b5b61267982612124565b9050602081019050919050565b82818337600083830152505050565b60006126a86126a384612655565b61263a565b9050828152602081018484840111156126c4576126c36125d5565b5b6126cf848285612686565b509392505050565b600082601f8301126126ec576126eb6125d0565b5b81356126fc848260208601612695565b91505092915050565b6000806000806080858703121561271f5761271e611ff9565b5b600061272d878288016124b0565b945050602061273e878288016124b0565b935050604085013567ffffffffffffffff81111561275f5761275e611ffe565b5b61276b878288016126d7565b925050606061277c87828801612560565b91505092959194509250565b7f4e487b7100000000000000000000000000000000000000000000000000000000600052602260045260246000fd5b600060028204905060018216806127cf57607f821691505b602082108114156127e3576127e2612788565b5b50919050565b60006127fc6127f784612655565b61263a565b905082815260208101848484011115612818576128176125d5565b5b6128238482856120f1565b509392505050565b600082601f8301126128405761283f6125d0565b5b81516128508482602086016127e9565b91505092915050565b60006020828403121561286f5761286e611ff9565b5b600082015167ffffffffffffffff81111561288d5761288c611ffe565b5b6128998482850161282b565b91505092915050565b7f4e487b7100000000000000000000000000000000000000000000000000000000600052601160045260246000fd5b60006128dc826120bc565b91506128e7836120bc565b9250827fffffffffffffffffffffffffffffffffffffffffffffffffffffffffffffffff0382111561291c5761291b6128a2565b5b828201905092915050565b7f50726f706f73616c20686173206265656e20636c6f7365640000000000000000600082015250565b600061295d6018836122ab565b915061296882612927565b602082019050919050565b6000602082019050818103600083015261298c81612950565b9050919050565b6000815190506129a281612499565b92915050565b6000602082840312156129be576129bd611ff9565b5b60006129cc84828501612993565b91505092915050565b7f546f6b656e2062616c616e636520697320696e73756666696369656e74000000600082015250565b6000612a0b601d836122ab565b9150612a16826129d5565b602082019050919050565b60006020820190508181036000830152612a3a816129fe565b9050919050565b6000606082019050612a56600083018661229c565b612a63602083018561229c565b612a706040830184612263565b949350505050565b600081519050612a8781612549565b92915050565b600060208284031215612aa357612aa2611ff9565b5b6000612ab184828501612a78565b91505092915050565b6000612ac582612003565b915063ffffffff821415612adc57612adb6128a2565b5b600182019050919050565b6000604082019050612afc600083018561229c565b612b09602083018461228d565b9392505050565b6000606082019050612b25600083018661229c565b612b32602083018561228d565b612b3f60408301846122f5565b949350505050565b7f596f75206861766520616c726561647920676f742074686520746f6b656e0000600082015250565b6000612b7d601e836122ab565b9150612b8882612b47565b602082019050919050565b60006020820190508181036000830152612bac81612b70565b9050919050565b6000604082019050612bc8600083018561229c565b612bd56020830184612263565b9392505050565b7f706174682f746f2f616464726573732e6a736f6e000000000000000000000000600082015250565b6000612c126014836122ab565b9150612c1d82612bdc565b602082019050919050565b6000604082019050612c3d600083018461229c565b8181036020830152612c4e81612c05565b90509291505056fea2646970667358221220a67526b6cfd1cbf8120d5a5d746d9c7c91331a951b6802b64a5efa510fba415664736f6c6343000809003360806040523480156200001157600080fd5b50604051620019583803806200195883398181016040528101906200003791906200045a565b81818160039080519060200190620000519291906200020d565b5080600490805190602001906200006a9291906200020d565b5050506200008233620f42406200008a60201b60201c565b50506200068b565b600073ffffffffffffffffffffffffffffffffffffffff168273ffffffffffffffffffffffffffffffffffffffff161415620000fd576040517f08c379a0000000000000000000000000000000000000000000000000000000008152600401620000f49062000540565b60405180910390fd5b62000111600083836200020360201b60201c565b80600260008282546200012591906200059b565b92505081905550806000808473ffffffffffffffffffffffffffffffffffffffff1673ffffffffffffffffffffffffffffffffffffffff16815260200190815260200160002060008282546200017c91906200059b565b925050819055508173ffffffffffffffffffffffffffffffffffffffff16600073ffffffffffffffffffffffffffffffffffffffff167fddf252ad1be2c89b69c2b068fc378daa952ba7f163c4a11628f55a4df523b3ef83604051620001e3919062000609565b60405180910390a3620001ff600083836200020860201b60201c565b5050565b505050565b505050565b8280546200021b9062000655565b90600052602060002090601f0160209004810192826200023f57600085556200028b565b82601f106200025a57805160ff19168380011785556200028b565b828001600101855582156200028b579182015b828111156200028a5782518255916020019190600101906200026d565b5b5090506200029a91906200029e565b5090565b5b80821115620002b95760008160009055506001016200029f565b5090565b6000604051905090565b600080fd5b600080fd5b600080fd5b600080fd5b6000601f19601f8301169050919050565b7f4e487b7100000000000000000000000000000000000000000000000000000000600052604160045260246000fd5b6200032682620002db565b810181811067ffffffffffffffff82111715620003485762000347620002ec565b5b80604052505050565b60006200035d620002bd565b90506200036b82826200031b565b919050565b600067ffffffffffffffff8211156200038e576200038d620002ec565b5b6200039982620002db565b9050602081019050919050565b60005b83811015620003c6578082015181840152602081019050620003a9565b83811115620003d6576000848401525b50505050565b6000620003f3620003ed8462000370565b62000351565b905082815260208101848484011115620004125762000411620002d6565b5b6200041f848285620003a6565b509392505050565b600082601f8301126200043f576200043e620002d1565b5b815162000451848260208601620003dc565b91505092915050565b60008060408385031215620004745762000473620002c7565b5b600083015167ffffffffffffffff811115620004955762000494620002cc565b5b620004a38582860162000427565b925050602083015167ffffffffffffffff811115620004c757620004c6620002cc565b5b620004d58582860162000427565b9150509250929050565b600082825260208201905092915050565b7f45524332303a206d696e7420746f20746865207a65726f206164647265737300600082015250565b600062000528601f83620004df565b91506200053582620004f0565b602082019050919050565b600060208201905081810360008301526200055b8162000519565b9050919050565b6000819050919050565b7f4e487b7100000000000000000000000000000000000000000000000000000000600052601160045260246000fd5b6000620005a88262000562565b9150620005b58362000562565b9250827fffffffffffffffffffffffffffffffffffffffffffffffffffffffffffffffff03821115620005ed57620005ec6200056c565b5b828201905092915050565b620006038162000562565b82525050565b6000602082019050620006206000830184620005f8565b92915050565b7f4e487b7100000000000000000000000000000000000000000000000000000000600052602260045260246000fd5b600060028204905060018216806200066e57607f821691505b6020821081141562000685576200068462000626565b5b50919050565b6112bd806200069b6000396000f3fe608060405234801561001057600080fd5b50600436106100b45760003560e01c80633e5beab9116100715780633e5beab9146101a357806370a08231146101bf57806395d89b41146101ef578063a457c2d71461020d578063a9059cbb1461023d578063dd62ed3e1461026d576100b4565b806306fdde03146100b9578063095ea7b3146100d757806318160ddd1461010757806323b872dd14610125578063313ce567146101555780633950935114610173575b600080fd5b6100c161029d565b6040516100ce9190610b77565b60405180910390f35b6100f160048036038101906100ec9190610c32565b61032f565b6040516100fe9190610c8d565b60405180910390f35b61010f610352565b60405161011c9190610cb7565b60405180910390f35b61013f600480360381019061013a9190610cd2565b61035c565b60405161014c9190610c8d565b60405180910390f35b61015d61038b565b60405161016a9190610d41565b60405180910390f35b61018d60048036038101906101889190610c32565b610394565b60405161019a9190610c8d565b60405180910390f35b6101bd60048036038101906101b89190610d5c565b6103cb565b005b6101d960048036038101906101d49190610d5c565b6103f9565b6040516101e69190610cb7565b60405180910390f35b6101f7610441565b6040516102049190610b77565b60405180910390f35b61022760048036038101906102229190610c32565b6104d3565b6040516102349190610c8d565b60405180910390f35b61025760048036038101906102529190610c32565b61054a565b6040516102649190610c8d565b60405180910390f35b61028760048036038101906102829190610d89565b61056d565b6040516102949190610cb7565b60405180910390f35b6060600380546102ac90610df8565b80601f01602080910402602001604051908101604052809291908181526020018280546102d890610df8565b80156103255780601f106102fa57610100808354040283529160200191610325565b820191906000526020600020905b81548152906001019060200180831161030857829003601f168201915b5050505050905090565b60008061033a6105f4565b90506103478185856105fc565b600191505092915050565b6000600254905090565b6000806103676105f4565b90506103748582856107c7565b61037f858585610853565b60019150509392505050565b60006012905090565b60008061039f6105f4565b90506103c08185856103b1858961056d565b6103bb9190610e59565b6105fc565b600191505092915050565b6103f681337fffffffffffffffffffffffffffffffffffffffffffffffffffffffffffffffff6105fc565b50565b60008060008373ffffffffffffffffffffffffffffffffffffffff1673ffffffffffffffffffffffffffffffffffffffff168152602001908152602001600020549050919050565b60606004805461045090610df8565b80601f016020809104026020016040519081016040528092919081815260200182805461047c90610df8565b80156104c95780601f1061049e576101008083540402835291602001916104c9565b820191906000526020600020905b8154815290600101906020018083116104ac57829003601f168201915b5050505050905090565b6000806104de6105f4565b905060006104ec828661056d565b905083811015610531576040517f08c379a000000000000000000000000000000000000000000000000000000000815260040161052890610f21565b60405180910390fd5b61053e82868684036105fc565b60019250505092915050565b6000806105556105f4565b9050610562818585610853565b600191505092915050565b6000600160008473ffffffffffffffffffffffffffffffffffffffff1673ffffffffffffffffffffffffffffffffffffffff16815260200190815260200160002060008373ffffffffffffffffffffffffffffffffffffffff1673ffffffffffffffffffffffffffffffffffffffff16815260200190815260200160002054905092915050565b600033905090565b600073ffffffffffffffffffffffffffffffffffffffff168373ffffffffffffffffffffffffffffffffffffffff16141561066c576040517f08c379a000000000000000000000000000000000000000000000000000000000815260040161066390610fb3565b60405180910390fd5b600073ffffffffffffffffffffffffffffffffffffffff168273ffffffffffffffffffffffffffffffffffffffff1614156106dc576040517f08c379a00000000000000000000000000000000000000000000000000000000081526004016106d390611045565b60405180910390fd5b80600160008573ffffffffffffffffffffffffffffffffffffffff1673ffffffffffffffffffffffffffffffffffffffff16815260200190815260200160002060008473ffffffffffffffffffffffffffffffffffffffff1673ffffffffffffffffffffffffffffffffffffffff168152602001908152602001600020819055508173ffffffffffffffffffffffffffffffffffffffff168373ffffffffffffffffffffffffffffffffffffffff167f8c5be1e5ebec7d5bd14f71427d1e84f3dd0314c0f7b2291e5b200ac8c7c3b925836040516107ba9190610cb7565b60405180910390a3505050565b60006107d3848461056d565b90507fffffffffffffffffffffffffffffffffffffffffffffffffffffffffffffffff811461084d578181101561083f576040517f08c379a0000000000000000000000000000000000000000000000000000000008152600401610836906110b1565b60405180910390fd5b61084c84848484036105fc565b5b50505050565b600073ffffffffffffffffffffffffffffffffffffffff168373ffffffffffffffffffffffffffffffffffffffff1614156108c3576040517f08c379a00000000000000000000000000000000000000000000000000000000081526004016108ba90611143565b60405180910390fd5b600073ffffffffffffffffffffffffffffffffffffffff168273ffffffffffffffffffffffffffffffffffffffff161415610933576040517f08c379a000000000000000000000000000000000000000000000000000000000815260040161092a906111d5565b60405180910390fd5b61093e838383610ad4565b60008060008573ffffffffffffffffffffffffffffffffffffffff1673ffffffffffffffffffffffffffffffffffffffff168152602001908152602001600020549050818110156109c4576040517f08c379a00000000000000000000000000000000000000000000000000000000081526004016109bb90611267565b60405180910390fd5b8181036000808673ffffffffffffffffffffffffffffffffffffffff1673ffffffffffffffffffffffffffffffffffffffff16815260200190815260200160002081905550816000808573ffffffffffffffffffffffffffffffffffffffff1673ffffffffffffffffffffffffffffffffffffffff1681526020019081526020016000206000828254610a579190610e59565b925050819055508273ffffffffffffffffffffffffffffffffffffffff168473ffffffffffffffffffffffffffffffffffffffff167fddf252ad1be2c89b69c2b068fc378daa952ba7f163c4a11628f55a4df523b3ef84604051610abb9190610cb7565b60405180910390a3610ace848484610ad9565b50505050565b505050565b505050565b600081519050919050565b600082825260208201905092915050565b60005b83811015610b18578082015181840152602081019050610afd565b83811115610b27576000848401525b50505050565b6000601f19601f8301169050919050565b6000610b4982610ade565b610b538185610ae9565b9350610b63818560208601610afa565b610b6c81610b2d565b840191505092915050565b60006020820190508181036000830152610b918184610b3e565b905092915050565b600080fd5b600073ffffffffffffffffffffffffffffffffffffffff82169050919050565b6000610bc982610b9e565b9050919050565b610bd981610bbe565b8114610be457600080fd5b50565b600081359050610bf681610bd0565b92915050565b6000819050919050565b610c0f81610bfc565b8114610c1a57600080fd5b50565b600081359050610c2c81610c06565b92915050565b60008060408385031215610c4957610c48610b99565b5b6000610c5785828601610be7565b9250506020610c6885828601610c1d565b9150509250929050565b60008115159050919050565b610c8781610c72565b82525050565b6000602082019050610ca26000830184610c7e565b92915050565b610cb181610bfc565b82525050565b6000602082019050610ccc6000830184610ca8565b92915050565b600080600060608486031215610ceb57610cea610b99565b5b6000610cf986828701610be7565b9350506020610d0a86828701610be7565b9250506040610d1b86828701610c1d565b9150509250925092565b600060ff82169050919050565b610d3b81610d25565b82525050565b6000602082019050610d566000830184610d32565b92915050565b600060208284031215610d7257610d71610b99565b5b6000610d8084828501610be7565b91505092915050565b60008060408385031215610da057610d9f610b99565b5b6000610dae85828601610be7565b9250506020610dbf85828601610be7565b9150509250929050565b7f4e487b7100000000000000000000000000000000000000000000000000000000600052602260045260246000fd5b60006002820490506001821680610e1057607f821691505b60208210811415610e2457610e23610dc9565b5b50919050565b7f4e487b7100000000000000000000000000000000000000000000000000000000600052601160045260246000fd5b6000610e6482610bfc565b9150610e6f83610bfc565b9250827fffffffffffffffffffffffffffffffffffffffffffffffffffffffffffffffff03821115610ea457610ea3610e2a565b5b828201905092915050565b7f45524332303a2064656372656173656420616c6c6f77616e63652062656c6f7760008201527f207a65726f000000000000000000000000000000000000000000000000000000602082015250565b6000610f0b602583610ae9565b9150610f1682610eaf565b604082019050919050565b60006020820190508181036000830152610f3a81610efe565b9050919050565b7f45524332303a20617070726f76652066726f6d20746865207a65726f2061646460008201527f7265737300000000000000000000000000000000000000000000000000000000602082015250565b6000610f9d602483610ae9565b9150610fa882610f41565b604082019050919050565b60006020820190508181036000830152610fcc81610f90565b9050919050565b7f45524332303a20617070726f766520746f20746865207a65726f20616464726560008201527f7373000000000000000000000000000000000000000000000000000000000000602082015250565b600061102f602283610ae9565b915061103a82610fd3565b604082019050919050565b6000602082019050818103600083015261105e81611022565b9050919050565b7f45524332303a20696e73756666696369656e7420616c6c6f77616e6365000000600082015250565b600061109b601d83610ae9565b91506110a682611065565b602082019050919050565b600060208201905081810360008301526110ca8161108e565b9050919050565b7f45524332303a207472616e736665722066726f6d20746865207a65726f20616460008201527f6472657373000000000000000000000000000000000000000000000000000000602082015250565b600061112d602583610ae9565b9150611138826110d1565b604082019050919050565b6000602082019050818103600083015261115c81611120565b9050919050565b7f45524332303a207472616e7366657220746f20746865207a65726f206164647260008201527f6573730000000000000000000000000000000000000000000000000000000000602082015250565b60006111bf602383610ae9565b91506111ca82611163565b604082019050919050565b600060208201905081810360008301526111ee816111b2565b9050919050565b7f45524332303a207472616e7366657220616d6f756e742065786365656473206260008201527f616c616e63650000000000000000000000000000000000000000000000000000602082015250565b6000611251602683610ae9565b915061125c826111f5565b604082019050919050565b6000602082019050818103600083015261128081611244565b905091905056fea2646970667358221220e39a754104b5c74d06365f8bc2a45b1bc7b28f2437058f0b1c624ee04773351864736f6c6343000809003360806040523480156200001157600080fd5b5060405162002c3138038062002c318339818101604052810190620000379190620002c2565b818181600090805190602001906200005192919062000075565b5080600190805190602001906200006a92919062000075565b5050505050620003ac565b828054620000839062000376565b90600052602060002090601f016020900481019282620000a75760008555620000f3565b82601f10620000c257805160ff1916838001178555620000f3565b82800160010185558215620000f3579182015b82811115620000f2578251825591602001919060010190620000d5565b5b50905062000102919062000106565b5090565b5b808211156200012157600081600090555060010162000107565b5090565b6000604051905090565b600080fd5b600080fd5b600080fd5b600080fd5b6000601f19601f8301169050919050565b7f4e487b7100000000000000000000000000000000000000000000000000000000600052604160045260246000fd5b6200018e8262000143565b810181811067ffffffffffffffff82111715620001b057620001af62000154565b5b80604052505050565b6000620001c562000125565b9050620001d3828262000183565b919050565b600067ffffffffffffffff821115620001f657620001f562000154565b5b620002018262000143565b9050602081019050919050565b60005b838110156200022e57808201518184015260208101905062000211565b838111156200023e576000848401525b50505050565b60006200025b6200025584620001d8565b620001b9565b9050828152602081018484840111156200027a57620002796200013e565b5b620002878482856200020e565b509392505050565b600082601f830112620002a757620002a662000139565b5b8151620002b984826020860162000244565b91505092915050565b60008060408385031215620002dc57620002db6200012f565b5b600083015167ffffffffffffffff811115620002fd57620002fc62000134565b5b6200030b858286016200028f565b925050602083015167ffffffffffffffff8111156200032f576200032e62000134565b5b6200033d858286016200028f565b9150509250929050565b7f4e487b7100000000000000000000000000000000000000000000000000000000600052602260045260246000fd5b600060028204905060018216806200038f57607f821691505b60208210811415620003a657620003a562000347565b5b50919050565b61287580620003bc6000396000f3fe608060405234801561001057600080fd5b50600436106100f55760003560e01c80636352211e11610097578063b88d4fde11610066578063b88d4fde14610296578063c87b56dd146102b2578063cf378343146102e2578063e985e9c514610312576100f5565b80636352211e146101fc57806370a082311461022c57806395d89b411461025c578063a22cb4651461027a576100f5565b8063095ea7b3116100d3578063095ea7b31461017857806323b872dd146101945780633bb3a24d146101b057806342842e0e146101e0576100f5565b806301ffc9a7146100fa57806306fdde031461012a578063081812fc14610148575b600080fd5b610114600480360381019061010f9190611845565b610342565b604051610121919061188d565b60405180910390f35b610132610424565b60405161013f9190611941565b60405180910390f35b610162600480360381019061015d9190611999565b6104b6565b60405161016f9190611a07565b60405180910390f35b610192600480360381019061018d9190611a4e565b6104fc565b005b6101ae60048036038101906101a99190611a8e565b610614565b005b6101ca60048036038101906101c59190611999565b610674565b6040516101d79190611941565b60405180910390f35b6101fa60048036038101906101f59190611a8e565b610719565b005b61021660048036038101906102119190611999565b610739565b6040516102239190611a07565b60405180910390f35b61024660048036038101906102419190611ae1565b6107eb565b6040516102539190611b1d565b60405180910390f35b6102646108a3565b6040516102719190611941565b60405180910390f35b610294600480360381019061028f9190611b64565b610935565b005b6102b060048036038101906102ab9190611cd9565b61094b565b005b6102cc60048036038101906102c79190611999565b6109ad565b6040516102d99190611941565b60405180910390f35b6102fc60048036038101906102f79190611dfd565b610a15565b6040516103099190611b1d565b60405180910390f35b61032c60048036038101906103279190611e59565b610a4d565b604051610339919061188d565b60405180910390f35b60007f80ac58cd000000000000000000000000000000000000000000000000000000007bffffffffffffffffffffffffffffffffffffffffffffffffffffffff1916827bffffffffffffffffffffffffffffffffffffffffffffffffffffffff1916148061040d57507f5b5e139f000000000000000000000000000000000000000000000000000000007bffffffffffffffffffffffffffffffffffffffffffffffffffffffff1916827bffffffffffffffffffffffffffffffffffffffffffffffffffffffff1916145b8061041d575061041c82610ae1565b5b9050919050565b60606000805461043390611ec8565b80601f016020809104026020016040519081016040528092919081815260200182805461045f90611ec8565b80156104ac5780601f10610481576101008083540402835291602001916104ac565b820191906000526020600020905b81548152906001019060200180831161048f57829003601f168201915b5050505050905090565b60006104c182610b4b565b6004600083815260200190815260200160002060009054906101000a900473ffffffffffffffffffffffffffffffffffffffff169050919050565b600061050782610739565b90508073ffffffffffffffffffffffffffffffffffffffff168373ffffffffffffffffffffffffffffffffffffffff161415610578576040517f08c379a000000000000000000000000000000000000000000000000000000000815260040161056f90611f6c565b60405180910390fd5b8073ffffffffffffffffffffffffffffffffffffffff16610597610b96565b73ffffffffffffffffffffffffffffffffffffffff1614806105c657506105c5816105c0610b96565b610a4d565b5b610605576040517f08c379a00000000000000000000000000000000000000000000000000000000081526004016105fc90611ffe565b60405180910390fd5b61060f8383610b9e565b505050565b61062561061f610b96565b82610c57565b610664576040517f08c379a000000000000000000000000000000000000000000000000000000000815260040161065b90612090565b60405180910390fd5b61066f838383610cec565b505050565b606060076000838152602001908152602001600020805461069490611ec8565b80601f01602080910402602001604051908101604052809291908181526020018280546106c090611ec8565b801561070d5780601f106106e25761010080835404028352916020019161070d565b820191906000526020600020905b8154815290600101906020018083116106f057829003601f168201915b50505050509050919050565b6107348383836040518060200160405280600081525061094b565b505050565b6000806002600084815260200190815260200160002060009054906101000a900473ffffffffffffffffffffffffffffffffffffffff169050600073ffffffffffffffffffffffffffffffffffffffff168173ffffffffffffffffffffffffffffffffffffffff1614156107e2576040517f08c379a00000000000000000000000000000000000000000000000000000000081526004016107d9906120fc565b60405180910390fd5b80915050919050565b60008073ffffffffffffffffffffffffffffffffffffffff168273ffffffffffffffffffffffffffffffffffffffff16141561085c576040517f08c379a00000000000000000000000000000000000000000000000000000000081526004016108539061218e565b60405180910390fd5b600360008373ffffffffffffffffffffffffffffffffffffffff1673ffffffffffffffffffffffffffffffffffffffff168152602001908152602001600020549050919050565b6060600180546108b290611ec8565b80601f01602080910402602001604051908101604052809291908181526020018280546108de90611ec8565b801561092b5780601f106109005761010080835404028352916020019161092b565b820191906000526020600020905b81548152906001019060200180831161090e57829003601f168201915b5050505050905090565b610947610940610b96565b8383610f53565b5050565b61095c610956610b96565b83610c57565b61099b576040517f08c379a000000000000000000000000000000000000000000000000000000000815260040161099290612090565b60405180910390fd5b6109a7848484846110c0565b50505050565b60606109b882610b4b565b60006109c261111c565b905060008151116109e25760405180602001604052806000815250610a0d565b806109ec84611133565b6040516020016109fd9291906121ea565b6040516020818303038152906040525b915050919050565b6000610a216006611294565b6000610a2d60066112aa565b9050610a3984826112b8565b610a438184611492565b8091505092915050565b6000600560008473ffffffffffffffffffffffffffffffffffffffff1673ffffffffffffffffffffffffffffffffffffffff16815260200190815260200160002060008373ffffffffffffffffffffffffffffffffffffffff1673ffffffffffffffffffffffffffffffffffffffff16815260200190815260200160002060009054906101000a900460ff16905092915050565b60007f01ffc9a7000000000000000000000000000000000000000000000000000000007bffffffffffffffffffffffffffffffffffffffffffffffffffffffff1916827bffffffffffffffffffffffffffffffffffffffffffffffffffffffff1916149050919050565b610b5481611506565b610b93576040517f08c379a0000000000000000000000000000000000000000000000000000000008152600401610b8a906120fc565b60405180910390fd5b50565b600033905090565b816004600083815260200190815260200160002060006101000a81548173ffffffffffffffffffffffffffffffffffffffff021916908373ffffffffffffffffffffffffffffffffffffffff160217905550808273ffffffffffffffffffffffffffffffffffffffff16610c1183610739565b73ffffffffffffffffffffffffffffffffffffffff167f8c5be1e5ebec7d5bd14f71427d1e84f3dd0314c0f7b2291e5b200ac8c7c3b92560405160405180910390a45050565b600080610c6383610739565b90508073ffffffffffffffffffffffffffffffffffffffff168473ffffffffffffffffffffffffffffffffffffffff161480610ca55750610ca48185610a4d565b5b80610ce357508373ffffffffffffffffffffffffffffffffffffffff16610ccb846104b6565b73ffffffffffffffffffffffffffffffffffffffff16145b91505092915050565b8273ffffffffffffffffffffffffffffffffffffffff16610d0c82610739565b73ffffffffffffffffffffffffffffffffffffffff1614610d62576040517f08c379a0000000000000000000000000000000000000000000000000000000008152600401610d5990612280565b60405180910390fd5b600073ffffffffffffffffffffffffffffffffffffffff168273ffffffffffffffffffffffffffffffffffffffff161415610dd2576040517f08c379a0000000000000000000000000000000000000000000000000000000008152600401610dc990612312565b60405180910390fd5b610ddd838383611572565b610de8600082610b9e565b6001600360008573ffffffffffffffffffffffffffffffffffffffff1673ffffffffffffffffffffffffffffffffffffffff1681526020019081526020016000206000828254610e389190612361565b925050819055506001600360008473ffffffffffffffffffffffffffffffffffffffff1673ffffffffffffffffffffffffffffffffffffffff1681526020019081526020016000206000828254610e8f9190612395565b92505081905550816002600083815260200190815260200160002060006101000a81548173ffffffffffffffffffffffffffffffffffffffff021916908373ffffffffffffffffffffffffffffffffffffffff160217905550808273ffffffffffffffffffffffffffffffffffffffff168473ffffffffffffffffffffffffffffffffffffffff167fddf252ad1be2c89b69c2b068fc378daa952ba7f163c4a11628f55a4df523b3ef60405160405180910390a4610f4e838383611577565b505050565b8173ffffffffffffffffffffffffffffffffffffffff168373ffffffffffffffffffffffffffffffffffffffff161415610fc2576040517f08c379a0000000000000000000000000000000000000000000000000000000008152600401610fb990612437565b60405180910390fd5b80600560008573ffffffffffffffffffffffffffffffffffffffff1673ffffffffffffffffffffffffffffffffffffffff16815260200190815260200160002060008473ffffffffffffffffffffffffffffffffffffffff1673ffffffffffffffffffffffffffffffffffffffff16815260200190815260200160002060006101000a81548160ff0219169083151502179055508173ffffffffffffffffffffffffffffffffffffffff168373ffffffffffffffffffffffffffffffffffffffff167f17307eab39ab6107e8899845ad3d59bd9653f200f220920489ca2b5937696c31836040516110b3919061188d565b60405180910390a3505050565b6110cb848484610cec565b6110d78484848461157c565b611116576040517f08c379a000000000000000000000000000000000000000000000000000000000815260040161110d906124c9565b60405180910390fd5b50505050565b606060405180602001604052806000815250905090565b6060600082141561117b576040518060400160405280600181526020017f3000000000000000000000000000000000000000000000000000000000000000815250905061128f565b600082905060005b600082146111ad578080611196906124e9565b915050600a826111a69190612561565b9150611183565b60008167ffffffffffffffff8111156111c9576111c8611bae565b5b6040519080825280601f01601f1916602001820160405280156111fb5781602001600182028036833780820191505090505b5090505b60008514611288576001826112149190612361565b9150600a856112239190612592565b603061122f9190612395565b60f81b818381518110611245576112446125c3565b5b60200101907effffffffffffffffffffffffffffffffffffffffffffffffffffffffffffff1916908160001a905350600a856112819190612561565b94506111ff565b8093505050505b919050565b6001816000016000828254019250508190555050565b600081600001549050919050565b600073ffffffffffffffffffffffffffffffffffffffff168273ffffffffffffffffffffffffffffffffffffffff161415611328576040517f08c379a000000000000000000000000000000000000000000000000000000000815260040161131f9061263e565b60405180910390fd5b61133181611506565b15611371576040517f08c379a0000000000000000000000000000000000000000000000000000000008152600401611368906126aa565b60405180910390fd5b61137d60008383611572565b6001600360008473ffffffffffffffffffffffffffffffffffffffff1673ffffffffffffffffffffffffffffffffffffffff16815260200190815260200160002060008282546113cd9190612395565b92505081905550816002600083815260200190815260200160002060006101000a81548173ffffffffffffffffffffffffffffffffffffffff021916908373ffffffffffffffffffffffffffffffffffffffff160217905550808273ffffffffffffffffffffffffffffffffffffffff16600073ffffffffffffffffffffffffffffffffffffffff167fddf252ad1be2c89b69c2b068fc378daa952ba7f163c4a11628f55a4df523b3ef60405160405180910390a461148e60008383611577565b5050565b61149b82611506565b6114da576040517f08c379a00000000000000000000000000000000000000000000000000000000081526004016114d19061273c565b60405180910390fd5b80600760008481526020019081526020016000209080519060200190611501929190611736565b505050565b60008073ffffffffffffffffffffffffffffffffffffffff166002600084815260200190815260200160002060009054906101000a900473ffffffffffffffffffffffffffffffffffffffff1673ffffffffffffffffffffffffffffffffffffffff1614159050919050565b505050565b505050565b600061159d8473ffffffffffffffffffffffffffffffffffffffff16611713565b15611706578373ffffffffffffffffffffffffffffffffffffffff1663150b7a026115c6610b96565b8786866040518563ffffffff1660e01b81526004016115e894939291906127b1565b602060405180830381600087803b15801561160257600080fd5b505af192505050801561163357506040513d601f19601f820116820180604052508101906116309190612812565b60015b6116b6573d8060008114611663576040519150601f19603f3d011682016040523d82523d6000602084013e611668565b606091505b506000815114156116ae576040517f08c379a00000000000000000000000000000000000000000000000000000000081526004016116a5906124c9565b60405180910390fd5b805181602001fd5b63150b7a0260e01b7bffffffffffffffffffffffffffffffffffffffffffffffffffffffff1916817bffffffffffffffffffffffffffffffffffffffffffffffffffffffff19161491505061170b565b600190505b949350505050565b6000808273ffffffffffffffffffffffffffffffffffffffff163b119050919050565b82805461174290611ec8565b90600052602060002090601f01602090048101928261176457600085556117ab565b82601f1061177d57805160ff19168380011785556117ab565b828001600101855582156117ab579182015b828111156117aa57825182559160200191906001019061178f565b5b5090506117b891906117bc565b5090565b5b808211156117d55760008160009055506001016117bd565b5090565b6000604051905090565b600080fd5b600080fd5b60007fffffffff0000000000000000000000000000000000000000000000000000000082169050919050565b611822816117ed565b811461182d57600080fd5b50565b60008135905061183f81611819565b92915050565b60006020828403121561185b5761185a6117e3565b5b600061186984828501611830565b91505092915050565b60008115159050919050565b61188781611872565b82525050565b60006020820190506118a2600083018461187e565b92915050565b600081519050919050565b600082825260208201905092915050565b60005b838110156118e25780820151818401526020810190506118c7565b838111156118f1576000848401525b50505050565b6000601f19601f8301169050919050565b6000611913826118a8565b61191d81856118b3565b935061192d8185602086016118c4565b611936816118f7565b840191505092915050565b6000602082019050818103600083015261195b8184611908565b905092915050565b6000819050919050565b61197681611963565b811461198157600080fd5b50565b6000813590506119938161196d565b92915050565b6000602082840312156119af576119ae6117e3565b5b60006119bd84828501611984565b91505092915050565b600073ffffffffffffffffffffffffffffffffffffffff82169050919050565b60006119f1826119c6565b9050919050565b611a01816119e6565b82525050565b6000602082019050611a1c60008301846119f8565b92915050565b611a2b816119e6565b8114611a3657600080fd5b50565b600081359050611a4881611a22565b92915050565b60008060408385031215611a6557611a646117e3565b5b6000611a7385828601611a39565b9250506020611a8485828601611984565b9150509250929050565b600080600060608486031215611aa757611aa66117e3565b5b6000611ab586828701611a39565b9350506020611ac686828701611a39565b9250506040611ad786828701611984565b9150509250925092565b600060208284031215611af757611af66117e3565b5b6000611b0584828501611a39565b91505092915050565b611b1781611963565b82525050565b6000602082019050611b326000830184611b0e565b92915050565b611b4181611872565b8114611b4c57600080fd5b50565b600081359050611b5e81611b38565b92915050565b60008060408385031215611b7b57611b7a6117e3565b5b6000611b8985828601611a39565b9250506020611b9a85828601611b4f565b9150509250929050565b600080fd5b600080fd5b7f4e487b7100000000000000000000000000000000000000000000000000000000600052604160045260246000fd5b611be6826118f7565b810181811067ffffffffffffffff82111715611c0557611c04611bae565b5b80604052505050565b6000611c186117d9565b9050611c248282611bdd565b919050565b600067ffffffffffffffff821115611c4457611c43611bae565b5b611c4d826118f7565b9050602081019050919050565b82818337600083830152505050565b6000611c7c611c7784611c29565b611c0e565b905082815260208101848484011115611c9857611c97611ba9565b5b611ca3848285611c5a565b509392505050565b600082601f830112611cc057611cbf611ba4565b5b8135611cd0848260208601611c69565b91505092915050565b60008060008060808587031215611cf357611cf26117e3565b5b6000611d0187828801611a39565b9450506020611d1287828801611a39565b9350506040611d2387828801611984565b925050606085013567ffffffffffffffff811115611d4457611d436117e8565b5b611d5087828801611cab565b91505092959194509250565b600067ffffffffffffffff821115611d7757611d76611bae565b5b611d80826118f7565b9050602081019050919050565b6000611da0611d9b84611d5c565b611c0e565b905082815260208101848484011115611dbc57611dbb611ba9565b5b611dc7848285611c5a565b509392505050565b600082601f830112611de457611de3611ba4565b5b8135611df4848260208601611d8d565b91505092915050565b60008060408385031215611e1457611e136117e3565b5b6000611e2285828601611a39565b925050602083013567ffffffffffffffff811115611e4357611e426117e8565b5b611e4f85828601611dcf565b9150509250929050565b60008060408385031215611e7057611e6f6117e3565b5b6000611e7e85828601611a39565b9250506020611e8f85828601611a39565b9150509250929050565b7f4e487b7100000000000000000000000000000000000000000000000000000000600052602260045260246000fd5b60006002820490506001821680611ee057607f821691505b60208210811415611ef457611ef3611e99565b5b50919050565b7f4552433732313a20617070726f76616c20746f2063757272656e74206f776e6560008201527f7200000000000000000000000000000000000000000000000000000000000000602082015250565b6000611f566021836118b3565b9150611f6182611efa565b604082019050919050565b60006020820190508181036000830152611f8581611f49565b9050919050565b7f4552433732313a20617070726f76652063616c6c6572206973206e6f7420746f60008201527f6b656e206f776e6572206e6f7220617070726f76656420666f7220616c6c0000602082015250565b6000611fe8603e836118b3565b9150611ff382611f8c565b604082019050919050565b6000602082019050818103600083015261201781611fdb565b9050919050565b7f4552433732313a2063616c6c6572206973206e6f7420746f6b656e206f776e6560008201527f72206e6f7220617070726f766564000000000000000000000000000000000000602082015250565b600061207a602e836118b3565b91506120858261201e565b604082019050919050565b600060208201905081810360008301526120a98161206d565b9050919050565b7f4552433732313a20696e76616c696420746f6b656e2049440000000000000000600082015250565b60006120e66018836118b3565b91506120f1826120b0565b602082019050919050565b60006020820190508181036000830152612115816120d9565b9050919050565b7f4552433732313a2061646472657373207a65726f206973206e6f74206120766160008201527f6c6964206f776e65720000000000000000000000000000000000000000000000602082015250565b60006121786029836118b3565b91506121838261211c565b604082019050919050565b600060208201905081810360008301526121a78161216b565b9050919050565b600081905092915050565b60006121c4826118a8565b6121ce81856121ae565b93506121de8185602086016118c4565b80840191505092915050565b60006121f682856121b9565b915061220282846121b9565b91508190509392505050565b7f4552433732313a207472616e736665722066726f6d20696e636f72726563742060008201527f6f776e6572000000000000000000000000000000000000000000000000000000602082015250565b600061226a6025836118b3565b91506122758261220e565b604082019050919050565b600060208201905081810360008301526122998161225d565b9050919050565b7f4552433732313a207472616e7366657220746f20746865207a65726f2061646460008201527f7265737300000000000000000000000000000000000000000000000000000000602082015250565b60006122fc6024836118b3565b9150612307826122a0565b604082019050919050565b6000602082019050818103600083015261232b816122ef565b9050919050565b7f4e487b7100000000000000000000000000000000000000000000000000000000600052601160045260246000fd5b600061236c82611963565b915061237783611963565b92508282101561238a57612389612332565b5b828203905092915050565b60006123a082611963565b91506123ab83611963565b9250827fffffffffffffffffffffffffffffffffffffffffffffffffffffffffffffffff038211156123e0576123df612332565b5b828201905092915050565b7f4552433732313a20617070726f766520746f2063616c6c657200000000000000600082015250565b60006124216019836118b3565b915061242c826123eb565b602082019050919050565b6000602082019050818103600083015261245081612414565b9050919050565b7f4552433732313a207472616e7366657220746f206e6f6e20455243373231526560008201527f63656976657220696d706c656d656e7465720000000000000000000000000000602082015250565b60006124b36032836118b3565b91506124be82612457565b604082019050919050565b600060208201905081810360008301526124e2816124a6565b9050919050565b60006124f482611963565b91507fffffffffffffffffffffffffffffffffffffffffffffffffffffffffffffffff82141561252757612526612332565b5b600182019050919050565b7f4e487b7100000000000000000000000000000000000000000000000000000000600052601260045260246000fd5b600061256c82611963565b915061257783611963565b92508261258757612586612532565b5b828204905092915050565b600061259d82611963565b91506125a883611963565b9250826125b8576125b7612532565b5b828206905092915050565b7f4e487b7100000000000000000000000000000000000000000000000000000000600052603260045260246000fd5b7f4552433732313a206d696e7420746f20746865207a65726f2061646472657373600082015250565b60006126286020836118b3565b9150612633826125f2565b602082019050919050565b600060208201905081810360008301526126578161261b565b9050919050565b7f4552433732313a20746f6b656e20616c7265616479206d696e74656400000000600082015250565b6000612694601c836118b3565b915061269f8261265e565b602082019050919050565b600060208201905081810360008301526126c381612687565b9050919050565b7f4552433732314d657461646174613a2055524920736574206f66206e6f6e657860008201527f697374656e7420746f6b656e0000000000000000000000000000000000000000602082015250565b6000612726602c836118b3565b9150612731826126ca565b604082019050919050565b6000602082019050818103600083015261275581612719565b9050919050565b600081519050919050565b600082825260208201905092915050565b60006127838261275c565b61278d8185612767565b935061279d8185602086016118c4565b6127a6816118f7565b840191505092915050565b60006080820190506127c660008301876119f8565b6127d360208301866119f8565b6127e06040830185611b0e565b81810360608301526127f28184612778565b905095945050505050565b60008151905061280c81611819565b92915050565b600060208284031215612828576128276117e3565b5b6000612836848285016127fd565b9150509291505056fea26469706673582212202b84c374279726b53e47bb895f5aef3bfc1df6ef84ea7c631d77f48db6ebb8b364736f6c63430008090033",
  "linkReferences": {},
  "deployedLinkReferences": {}
}